{
  "transactions": [
    {
      "hash": "0xf06f7528ccce8dcffe37d7c6fb7ed4ddc366ce07638829943f02575e55910551",
      "transactionType": "CALL",
      "contractName": null,
      "contractAddress": "0x31df624816ba14e08a89d9b8e8cb04d7f5f3fb56",
      "function": "grantRole(bytes32,address)",
      "arguments": [
        "0x7281a06530430c928fbd948f9c020be986527f437101783d53aeb9ba7cc0d064",
        "0x51a09e0D1ad47225c90e3e60EA204765A24E4C68"
      ],
      "transaction": {
        "from": "0x76ff9fa884d418bed250b15ab5aee9eed055a9ce",
        "to": "0x31df624816ba14e08a89d9b8e8cb04d7f5f3fb56",
        "gas": "0x146c8",
        "value": "0x0",
        "input": "0x2f2ff15d7281a06530430c928fbd948f9c020be986527f437101783d53aeb9ba7cc0d06400000000000000000000000051a09e0d1ad47225c90e3e60ea204765a24e4c68",
        "nonce": "0x5",
        "chainId": "0x3df"
      },
      "additionalContracts": [],
      "isFixedGasLimit": false
    },
    {
      "hash": "0xd0640c82ca6527402b9a1f2dcf1904a2aaee4d749243e040278d0143113342b8",
      "transactionType": "CALL",
      "contractName": null,
      "contractAddress": "0x31df624816ba14e08a89d9b8e8cb04d7f5f3fb56",
      "function": "grantRole(bytes32,address)",
      "arguments": [
        "0x5246556c0ab216b5b325ad7c539bfbd1a07c768773cdf810fecd3c3375c27407",
        "0x9ac39983F233b3B91462C22fE0B979e19F6362dC"
      ],
      "transaction": {
        "from": "0x76ff9fa884d418bed250b15ab5aee9eed055a9ce",
        "to": "0x31df624816ba14e08a89d9b8e8cb04d7f5f3fb56",
        "gas": "0x146c8",
        "value": "0x0",
        "input": "0x2f2ff15d5246556c0ab216b5b325ad7c539bfbd1a07c768773cdf810fecd3c3375c274070000000000000000000000009ac39983f233b3b91462c22fe0b979e19f6362dc",
        "nonce": "0x6",
        "chainId": "0x3df"
      },
      "additionalContracts": [],
      "isFixedGasLimit": false
    }
  ],
  "receipts": [
    {
      "type": "0x2",
      "status": "0x1",
      "cumulativeGasUsed": "0x2540be400",
      "logs": [
        {
          "address": "0x31df624816ba14e08a89d9b8e8cb04d7f5f3fb56",
          "topics": [
            "0x2f8788117e7eff1d82e926ec794901d17c78024a50270940304540a733656f0d",
            "0x7281a06530430c928fbd948f9c020be986527f437101783d53aeb9ba7cc0d064",
            "0x00000000000000000000000051a09e0d1ad47225c90e3e60ea204765a24e4c68",
            "0x00000000000000000000000076ff9fa884d418bed250b15ab5aee9eed055a9ce"
          ],
          "data": "0x",
          "blockHash": "0x12980d899f3059c6d5add038498476ee7daba809dcc34127be175fd7a030406d",
          "blockNumber": "0xc0a0",
          "transactionHash": "0xf06f7528ccce8dcffe37d7c6fb7ed4ddc366ce07638829943f02575e55910551",
          "transactionIndex": "0x0",
          "logIndex": "0x0",
          "removed": false
        }
      ],
      "logsBloom": "0x00000000000000000000000000000000000000000000000000000000000000000000000000000000000000000000000000000000000000000000000000000000000000000000000000000000000000000000000000000000000000000000000000000000000000000000000000000000000000000000000000000000000000000000000000000000000000000000000000000000000000000000000000000000000000000000000000000000000000000000000000000000000000000000000000000000000000000000000000000000000000000000000000000000000000000000000000000000000000000000000000000000000000000000000000000000",
      "transactionHash": "0xf06f7528ccce8dcffe37d7c6fb7ed4ddc366ce07638829943f02575e55910551",
      "transactionIndex": "0x0",
      "blockHash": "0x12980d899f3059c6d5add038498476ee7daba809dcc34127be175fd7a030406d",
      "blockNumber": "0xc0a0",
      "gasUsed": "0x199d",
      "effectiveGasPrice": "0xf4240",
      "from": "0x76ff9fa884d418bed250b15ab5aee9eed055a9ce",
      "to": "0x31df624816ba14e08a89d9b8e8cb04d7f5f3fb56",
      "contractAddress": null
    },
    {
      "type": "0x2",
      "status": "0x1",
      "cumulativeGasUsed": "0x2540be400",
      "logs": [
        {
          "address": "0x31df624816ba14e08a89d9b8e8cb04d7f5f3fb56",
          "topics": [
            "0x2f8788117e7eff1d82e926ec794901d17c78024a50270940304540a733656f0d",
            "0x5246556c0ab216b5b325ad7c539bfbd1a07c768773cdf810fecd3c3375c27407",
            "0x0000000000000000000000009ac39983f233b3b91462c22fe0b979e19f6362dc",
            "0x00000000000000000000000076ff9fa884d418bed250b15ab5aee9eed055a9ce"
          ],
          "data": "0x",
          "blockHash": "0x595015052bf4c089480b6b3cdf650cafd5cd2e6fd47b3c4e922236823a7b2a6c",
          "blockNumber": "0xc0a1",
          "transactionHash": "0xd0640c82ca6527402b9a1f2dcf1904a2aaee4d749243e040278d0143113342b8",
          "transactionIndex": "0x0",
          "logIndex": "0x0",
          "removed": false
        }
      ],
      "logsBloom": "0x00000000000000000000000000000000000000000000000000000000000000000000000000000000000000000000000000000000000000000000000000000000000000000000000000000000000000000000000000000000000000000000000000000000000000000000000000000000000000000000000000000000000000000000000000000000000000000000000000000000000000000000000000000000000000000000000000000000000000000000000000000000000000000000000000000000000000000000000000000000000000000000000000000000000000000000000000000000000000000000000000000000000000000000000000000000",
      "transactionHash": "0xd0640c82ca6527402b9a1f2dcf1904a2aaee4d749243e040278d0143113342b8",
      "transactionIndex": "0x0",
      "blockHash": "0x595015052bf4c089480b6b3cdf650cafd5cd2e6fd47b3c4e922236823a7b2a6c",
      "blockNumber": "0xc0a1",
      "gasUsed": "0x199d",
      "effectiveGasPrice": "0xf4240",
      "from": "0x76ff9fa884d418bed250b15ab5aee9eed055a9ce",
      "to": "0x31df624816ba14e08a89d9b8e8cb04d7f5f3fb56",
      "contractAddress": null
    }
  ],
  "libraries": [],
  "pending": [],
  "returns": {},
  "timestamp": 1782374216844,
  "chain": 991,
  "commit": null
}