{
  "transactions": [
    {
      "hash": "0xc59417565b6c73b480dbc894185256ff8f65c25c870b57b2b681aadb978577c8",
      "transactionType": "CREATE",
      "contractName": "EmptyLogic",
      "contractAddress": "0x680e5aeed8220ebd57b2a0f852b2946e69ccbd68",
      "function": null,
      "arguments": null,
      "transaction": {
        "from": "0xcc90553427e7848576eddaa27eb0720c70a01d7e",
        "to": null,
        "gas": "0x1537e",
        "value": "0x0",
        "input": "0x6080604052348015600e575f5ffd5b50603e80601a5f395ff3fe60806040525f5ffdfea26469706673582212200580edd8bca1f61f234da091fa3602a7e6f262ed40390734fe693912882c8b2864736f6c63430008230033",
        "nonce": "0x31",
        "chainId": "0x3df"
      },
      "additionalContracts": [],
      "isFixedGasLimit": false
    },
    {
      "hash": "0x781de43474a03e16291d02c936a019c29d4d556c7675dc7f97c71ad2e19086b4",
      "transactionType": "CREATE",
      "contractName": "UpgradeableBeacon",
      "contractAddress": "0x9f0c2acf9520cb2f573a3cd328e7f1eeb4fb38dc",
      "function": null,
      "arguments": [
        "0x680E5AEEd8220EBd57b2A0f852b2946e69Ccbd68",
        "0xcC90553427e7848576eDDaa27EB0720c70a01D7E"
      ],
      "transaction": {
        "from": "0xcc90553427e7848576eddaa27eb0720c70a01d7e",
        "to": null,
        "gas": "0x7ad6a",
        "value": "0x0",
        "input": "0x608060405234801561000f575f5ffd5b50604051610823380380610823833981810160405281019061003191906102c8565b805f73ffffffffffffffffffffffffffffffffffffffff168173ffffffffffffffffffffffffffffffffffffffff16036100a2575f6040517f1e4fbdf70000000000000000000000000000000000000000000000000000000081526004016100999190610315565b60405180910390fd5b6100b1816100c860201b60201c565b506100c18261018960201b60201c565b505061032e565b5f5f5f9054906101000a900473ffffffffffffffffffffffffffffffffffffffff169050815f5f6101000a81548173ffffffffffffffffffffffffffffffffffffffff021916908373ffffffffffffffffffffffffffffffffffffffff1602179055508173ffffffffffffffffffffffffffffffffffffffff168173ffffffffffffffffffffffffffffffffffffffff167f8be0079c531659141344cd1fd0a4f28419497f9722a3daafe3b4186f6b6457e060405160405180910390a35050565b5f8173ffffffffffffffffffffffffffffffffffffffff163b036101e457806040517f847ac5640000000000000000000000000000000000000000000000000000000081526004016101db9190610315565b60405180910390fd5b8060015f6101000a81548173ffffffffffffffffffffffffffffffffffffffff021916908373ffffffffffffffffffffffffffffffffffffffff1602179055508073ffffffffffffffffffffffffffffffffffffffff167fbc7cd75a20ee27fd9adebab32041f755214dbc6bffa90cc0225b39da2e5c2d3b60405160405180910390a250565b5f5ffd5b5f73ffffffffffffffffffffffffffffffffffffffff82169050919050565b5f6102978261026e565b9050919050565b6102a78161028d565b81146102b1575f5ffd5b50565b5f815190506102c28161029e565b92915050565b5f5f604083850312156102de576102dd61026a565b5b5f6102eb858286016102b4565b92505060206102fc858286016102b4565b9150509250929050565b61030f8161028d565b82525050565b5f6020820190506103285f830184610306565b92915050565b6104e88061033b5f395ff3fe608060405234801561000f575f5ffd5b5060043610610055575f3560e01c80633659cfe6146100595780635c60da1b14610075578063715018a6146100935780638da5cb5b1461009d578063f2fde38b146100bb575b5f5ffd5b610073600480360381019061006e919061045f565b6100d7565b005b61007d6100eb565b60405161008a9190610499565b60405180910390f35b61009b610113565b005b6100a5610126565b6040516100b29190610499565b60405180910390f35b6100d560048036038101906100d0919061045f565b61014d565b005b6100df6101d1565b6100e881610258565b50565b5f60015f9054906101000a900473ffffffffffffffffffffffffffffffffffffffff16905090565b61011b6101d1565b6101245f610339565b565b5f5f5f9054906101000a900473ffffffffffffffffffffffffffffffffffffffff16905090565b6101556101d1565b5f73ffffffffffffffffffffffffffffffffffffffff168173ffffffffffffffffffffffffffffffffffffffff16036101c5575f6040517f1e4fbdf70000000000000000000000000000000000000000000000000000000081526004016101bc9190610499565b60405180910390fd5b6101ce81610339565b50565b6101d96103fa565b73ffffffffffffffffffffffffffffffffffffffff166101f7610126565b73ffffffffffffffffffffffffffffffffffffffff16146102565761021a6103fa565b6040517f118cdaa700000000000000000000000000000000000000000000000000000000815260040161024d9190610499565b60405180910390fd5b565b5f8173ffffffffffffffffffffffffffffffffffffffff163b036102b357806040517f847ac5640000000000000000000000000000000000000000000000000000000081526004016102aa9190610499565b60405180910390fd5b8060015f6101000a81548173ffffffffffffffffffffffffffffffffffffffff021916908373ffffffffffffffffffffffffffffffffffffffff1602179055508073ffffffffffffffffffffffffffffffffffffffff167fbc7cd75a20ee27fd9adebab32041f755214dbc6bffa90cc0225b39da2e5c2d3b60405160405180910390a250565b5f5f5f9054906101000a900473ffffffffffffffffffffffffffffffffffffffff169050815f5f6101000a81548173ffffffffffffffffffffffffffffffffffffffff021916908373ffffffffffffffffffffffffffffffffffffffff1602179055508173ffffffffffffffffffffffffffffffffffffffff168173ffffffffffffffffffffffffffffffffffffffff167f8be0079c531659141344cd1fd0a4f28419497f9722a3daafe3b4186f6b6457e060405160405180910390a35050565b5f33905090565b5f5ffd5b5f73ffffffffffffffffffffffffffffffffffffffff82169050919050565b5f61042e82610405565b9050919050565b61043e81610424565b8114610448575f5ffd5b50565b5f8135905061045981610435565b92915050565b5f6020828403121561047457610473610401565b5b5f6104818482850161044b565b91505092915050565b61049381610424565b82525050565b5f6020820190506104ac5f83018461048a565b9291505056fea26469706673582212203425d6f7fbaebdcdb24d9329623a9ca0e4740a7f92a905dc6fbffa72bd54d44064736f6c63430008230033000000000000000000000000680e5aeed8220ebd57b2a0f852b2946e69ccbd68000000000000000000000000cc90553427e7848576eddaa27eb0720c70a01d7e",
        "nonce": "0x32",
        "chainId": "0x3df"
      },
      "additionalContracts": [],
      "isFixedGasLimit": false
    },
    {
      "hash": "0x0d1b90d50ef1f84db3a0b9b3adffd87cafaccf184dfbec8cec8bbd64e183aa73",
      "transactionType": "CALL",
      "contractName": null,
      "contractAddress": "0xfd68a8e35034c09bb0b3a60da126279337392402",
      "function": "registerSubModule(bytes32,bytes32,address)",
      "arguments": [
        "0xacf1dcc98c83259b0b03819a24c0cc51e1b3a194194a9a3039f3bb86a17619fd",
        "0x0000000000000000000000000000000000000000000000000000000000000000",
        "0x9f0c2acF9520Cb2F573a3cD328E7f1EEb4fb38dc"
      ],
      "transaction": {
        "from": "0xcc90553427e7848576eddaa27eb0720c70a01d7e",
        "to": "0xfd68a8e35034c09bb0b3a60da126279337392402",
        "gas": "0x11896",
        "value": "0x0",
        "input": "0xad48810bacf1dcc98c83259b0b03819a24c0cc51e1b3a194194a9a3039f3bb86a17619fd00000000000000000000000000000000000000000000000000000000000000000000000000000000000000009f0c2acf9520cb2f573a3cd328e7f1eeb4fb38dc",
        "nonce": "0x33",
        "chainId": "0x3df"
      },
      "additionalContracts": [],
      "isFixedGasLimit": false
    },
    {
      "hash": "0x96631cf5616b1b3385005a6d9ca87de98fb621fb270f7ab9c7b564916955fc33",
      "transactionType": "CREATE",
      "contractName": "UpgradeableBeacon",
      "contractAddress": "0x71018e3f70c0111a8bffd53bece2c49bafa6d0a3",
      "function": null,
      "arguments": [
        "0x680E5AEEd8220EBd57b2A0f852b2946e69Ccbd68",
        "0xcC90553427e7848576eDDaa27EB0720c70a01D7E"
      ],
      "transaction": {
        "from": "0xcc90553427e7848576eddaa27eb0720c70a01d7e",
        "to": null,
        "gas": "0x7ad6a",
        "value": "0x0",
        "input": "0x608060405234801561000f575f5ffd5b50604051610823380380610823833981810160405281019061003191906102c8565b805f73ffffffffffffffffffffffffffffffffffffffff168173ffffffffffffffffffffffffffffffffffffffff16036100a2575f6040517f1e4fbdf70000000000000000000000000000000000000000000000000000000081526004016100999190610315565b60405180910390fd5b6100b1816100c860201b60201c565b506100c18261018960201b60201c565b505061032e565b5f5f5f9054906101000a900473ffffffffffffffffffffffffffffffffffffffff169050815f5f6101000a81548173ffffffffffffffffffffffffffffffffffffffff021916908373ffffffffffffffffffffffffffffffffffffffff1602179055508173ffffffffffffffffffffffffffffffffffffffff168173ffffffffffffffffffffffffffffffffffffffff167f8be0079c531659141344cd1fd0a4f28419497f9722a3daafe3b4186f6b6457e060405160405180910390a35050565b5f8173ffffffffffffffffffffffffffffffffffffffff163b036101e457806040517f847ac5640000000000000000000000000000000000000000000000000000000081526004016101db9190610315565b60405180910390fd5b8060015f6101000a81548173ffffffffffffffffffffffffffffffffffffffff021916908373ffffffffffffffffffffffffffffffffffffffff1602179055508073ffffffffffffffffffffffffffffffffffffffff167fbc7cd75a20ee27fd9adebab32041f755214dbc6bffa90cc0225b39da2e5c2d3b60405160405180910390a250565b5f5ffd5b5f73ffffffffffffffffffffffffffffffffffffffff82169050919050565b5f6102978261026e565b9050919050565b6102a78161028d565b81146102b1575f5ffd5b50565b5f815190506102c28161029e565b92915050565b5f5f604083850312156102de576102dd61026a565b5b5f6102eb858286016102b4565b92505060206102fc858286016102b4565b9150509250929050565b61030f8161028d565b82525050565b5f6020820190506103285f830184610306565b92915050565b6104e88061033b5f395ff3fe608060405234801561000f575f5ffd5b5060043610610055575f3560e01c80633659cfe6146100595780635c60da1b14610075578063715018a6146100935780638da5cb5b1461009d578063f2fde38b146100bb575b5f5ffd5b610073600480360381019061006e919061045f565b6100d7565b005b61007d6100eb565b60405161008a9190610499565b60405180910390f35b61009b610113565b005b6100a5610126565b6040516100b29190610499565b60405180910390f35b6100d560048036038101906100d0919061045f565b61014d565b005b6100df6101d1565b6100e881610258565b50565b5f60015f9054906101000a900473ffffffffffffffffffffffffffffffffffffffff16905090565b61011b6101d1565b6101245f610339565b565b5f5f5f9054906101000a900473ffffffffffffffffffffffffffffffffffffffff16905090565b6101556101d1565b5f73ffffffffffffffffffffffffffffffffffffffff168173ffffffffffffffffffffffffffffffffffffffff16036101c5575f6040517f1e4fbdf70000000000000000000000000000000000000000000000000000000081526004016101bc9190610499565b60405180910390fd5b6101ce81610339565b50565b6101d96103fa565b73ffffffffffffffffffffffffffffffffffffffff166101f7610126565b73ffffffffffffffffffffffffffffffffffffffff16146102565761021a6103fa565b6040517f118cdaa700000000000000000000000000000000000000000000000000000000815260040161024d9190610499565b60405180910390fd5b565b5f8173ffffffffffffffffffffffffffffffffffffffff163b036102b357806040517f847ac5640000000000000000000000000000000000000000000000000000000081526004016102aa9190610499565b60405180910390fd5b8060015f6101000a81548173ffffffffffffffffffffffffffffffffffffffff021916908373ffffffffffffffffffffffffffffffffffffffff1602179055508073ffffffffffffffffffffffffffffffffffffffff167fbc7cd75a20ee27fd9adebab32041f755214dbc6bffa90cc0225b39da2e5c2d3b60405160405180910390a250565b5f5f5f9054906101000a900473ffffffffffffffffffffffffffffffffffffffff169050815f5f6101000a81548173ffffffffffffffffffffffffffffffffffffffff021916908373ffffffffffffffffffffffffffffffffffffffff1602179055508173ffffffffffffffffffffffffffffffffffffffff168173ffffffffffffffffffffffffffffffffffffffff167f8be0079c531659141344cd1fd0a4f28419497f9722a3daafe3b4186f6b6457e060405160405180910390a35050565b5f33905090565b5f5ffd5b5f73ffffffffffffffffffffffffffffffffffffffff82169050919050565b5f61042e82610405565b9050919050565b61043e81610424565b8114610448575f5ffd5b50565b5f8135905061045981610435565b92915050565b5f6020828403121561047457610473610401565b5b5f6104818482850161044b565b91505092915050565b61049381610424565b82525050565b5f6020820190506104ac5f83018461048a565b9291505056fea26469706673582212203425d6f7fbaebdcdb24d9329623a9ca0e4740a7f92a905dc6fbffa72bd54d44064736f6c63430008230033000000000000000000000000680e5aeed8220ebd57b2a0f852b2946e69ccbd68000000000000000000000000cc90553427e7848576eddaa27eb0720c70a01d7e",
        "nonce": "0x34",
        "chainId": "0x3df"
      },
      "additionalContracts": [],
      "isFixedGasLimit": false
    },
    {
      "hash": "0x1c44ed1971904564073317b956de69a8bcc7de9e287c0918598365aaa0f80fd3",
      "transactionType": "CALL",
      "contractName": null,
      "contractAddress": "0xfd68a8e35034c09bb0b3a60da126279337392402",
      "function": "registerSubModule(bytes32,bytes32,address)",
      "arguments": [
        "0xef25a28340e0dfeb4479e3cdeb1697cdeebbc6c7e86e06b53ae9a5f4cc6a69c5",
        "0x0000000000000000000000000000000000000000000000000000000000000000",
        "0x71018E3f70c0111A8bFfd53BECe2C49BAfA6d0A3"
      ],
      "transaction": {
        "from": "0xcc90553427e7848576eddaa27eb0720c70a01d7e",
        "to": "0xfd68a8e35034c09bb0b3a60da126279337392402",
        "gas": "0x16542",
        "value": "0x0",
        "input": "0xad48810bef25a28340e0dfeb4479e3cdeb1697cdeebbc6c7e86e06b53ae9a5f4cc6a69c5000000000000000000000000000000000000000000000000000000000000000000000000000000000000000071018e3f70c0111a8bffd53bece2c49bafa6d0a3",
        "nonce": "0x35",
        "chainId": "0x3df"
      },
      "additionalContracts": [],
      "isFixedGasLimit": false
    },
    {
      "hash": "0xf96cdbe569e216ee477329c11ac557fe416071ec295b54e678febe2f97204e11",
      "transactionType": "CREATE",
      "contractName": "UpgradeableBeacon",
      "contractAddress": "0x7997a0acaa87c2d89074c5aa19838ab1be1027f6",
      "function": null,
      "arguments": [
        "0x680E5AEEd8220EBd57b2A0f852b2946e69Ccbd68",
        "0xcC90553427e7848576eDDaa27EB0720c70a01D7E"
      ],
      "transaction": {
        "from": "0xcc90553427e7848576eddaa27eb0720c70a01d7e",
        "to": null,
        "gas": "0x7ad6a",
        "value": "0x0",
        "input": "0x608060405234801561000f575f5ffd5b50604051610823380380610823833981810160405281019061003191906102c8565b805f73ffffffffffffffffffffffffffffffffffffffff168173ffffffffffffffffffffffffffffffffffffffff16036100a2575f6040517f1e4fbdf70000000000000000000000000000000000000000000000000000000081526004016100999190610315565b60405180910390fd5b6100b1816100c860201b60201c565b506100c18261018960201b60201c565b505061032e565b5f5f5f9054906101000a900473ffffffffffffffffffffffffffffffffffffffff169050815f5f6101000a81548173ffffffffffffffffffffffffffffffffffffffff021916908373ffffffffffffffffffffffffffffffffffffffff1602179055508173ffffffffffffffffffffffffffffffffffffffff168173ffffffffffffffffffffffffffffffffffffffff167f8be0079c531659141344cd1fd0a4f28419497f9722a3daafe3b4186f6b6457e060405160405180910390a35050565b5f8173ffffffffffffffffffffffffffffffffffffffff163b036101e457806040517f847ac5640000000000000000000000000000000000000000000000000000000081526004016101db9190610315565b60405180910390fd5b8060015f6101000a81548173ffffffffffffffffffffffffffffffffffffffff021916908373ffffffffffffffffffffffffffffffffffffffff1602179055508073ffffffffffffffffffffffffffffffffffffffff167fbc7cd75a20ee27fd9adebab32041f755214dbc6bffa90cc0225b39da2e5c2d3b60405160405180910390a250565b5f5ffd5b5f73ffffffffffffffffffffffffffffffffffffffff82169050919050565b5f6102978261026e565b9050919050565b6102a78161028d565b81146102b1575f5ffd5b50565b5f815190506102c28161029e565b92915050565b5f5f604083850312156102de576102dd61026a565b5b5f6102eb858286016102b4565b92505060206102fc858286016102b4565b9150509250929050565b61030f8161028d565b82525050565b5f6020820190506103285f830184610306565b92915050565b6104e88061033b5f395ff3fe608060405234801561000f575f5ffd5b5060043610610055575f3560e01c80633659cfe6146100595780635c60da1b14610075578063715018a6146100935780638da5cb5b1461009d578063f2fde38b146100bb575b5f5ffd5b610073600480360381019061006e919061045f565b6100d7565b005b61007d6100eb565b60405161008a9190610499565b60405180910390f35b61009b610113565b005b6100a5610126565b6040516100b29190610499565b60405180910390f35b6100d560048036038101906100d0919061045f565b61014d565b005b6100df6101d1565b6100e881610258565b50565b5f60015f9054906101000a900473ffffffffffffffffffffffffffffffffffffffff16905090565b61011b6101d1565b6101245f610339565b565b5f5f5f9054906101000a900473ffffffffffffffffffffffffffffffffffffffff16905090565b6101556101d1565b5f73ffffffffffffffffffffffffffffffffffffffff168173ffffffffffffffffffffffffffffffffffffffff16036101c5575f6040517f1e4fbdf70000000000000000000000000000000000000000000000000000000081526004016101bc9190610499565b60405180910390fd5b6101ce81610339565b50565b6101d96103fa565b73ffffffffffffffffffffffffffffffffffffffff166101f7610126565b73ffffffffffffffffffffffffffffffffffffffff16146102565761021a6103fa565b6040517f118cdaa700000000000000000000000000000000000000000000000000000000815260040161024d9190610499565b60405180910390fd5b565b5f8173ffffffffffffffffffffffffffffffffffffffff163b036102b357806040517f847ac5640000000000000000000000000000000000000000000000000000000081526004016102aa9190610499565b60405180910390fd5b8060015f6101000a81548173ffffffffffffffffffffffffffffffffffffffff021916908373ffffffffffffffffffffffffffffffffffffffff1602179055508073ffffffffffffffffffffffffffffffffffffffff167fbc7cd75a20ee27fd9adebab32041f755214dbc6bffa90cc0225b39da2e5c2d3b60405160405180910390a250565b5f5f5f9054906101000a900473ffffffffffffffffffffffffffffffffffffffff169050815f5f6101000a81548173ffffffffffffffffffffffffffffffffffffffff021916908373ffffffffffffffffffffffffffffffffffffffff1602179055508173ffffffffffffffffffffffffffffffffffffffff168173ffffffffffffffffffffffffffffffffffffffff167f8be0079c531659141344cd1fd0a4f28419497f9722a3daafe3b4186f6b6457e060405160405180910390a35050565b5f33905090565b5f5ffd5b5f73ffffffffffffffffffffffffffffffffffffffff82169050919050565b5f61042e82610405565b9050919050565b61043e81610424565b8114610448575f5ffd5b50565b5f8135905061045981610435565b92915050565b5f6020828403121561047457610473610401565b5b5f6104818482850161044b565b91505092915050565b61049381610424565b82525050565b5f6020820190506104ac5f83018461048a565b9291505056fea26469706673582212203425d6f7fbaebdcdb24d9329623a9ca0e4740a7f92a905dc6fbffa72bd54d44064736f6c63430008230033000000000000000000000000680e5aeed8220ebd57b2a0f852b2946e69ccbd68000000000000000000000000cc90553427e7848576eddaa27eb0720c70a01d7e",
        "nonce": "0x36",
        "chainId": "0x3df"
      },
      "additionalContracts": [],
      "isFixedGasLimit": false
    },
    {
      "hash": "0x3a9a42d9fdc03ae02a18d1be4d8a736adc46e3d864e35184a3e29978ec0e75b3",
      "transactionType": "CALL",
      "contractName": null,
      "contractAddress": "0xfd68a8e35034c09bb0b3a60da126279337392402",
      "function": "registerSubModule(bytes32,bytes32,address)",
      "arguments": [
        "0xa7855c40c8645ce5764ecc193316fc26d65093c553d5b3bd2a64c24400a14cc7",
        "0x0000000000000000000000000000000000000000000000000000000000000000",
        "0x7997a0aCAA87C2d89074C5aA19838ab1BE1027f6"
      ],
      "transaction": {
        "from": "0xcc90553427e7848576eddaa27eb0720c70a01d7e",
        "to": "0xfd68a8e35034c09bb0b3a60da126279337392402",
        "gas": "0x108ee",
        "value": "0x0",
        "input": "0xad48810ba7855c40c8645ce5764ecc193316fc26d65093c553d5b3bd2a64c24400a14cc700000000000000000000000000000000000000000000000000000000000000000000000000000000000000007997a0acaa87c2d89074c5aa19838ab1be1027f6",
        "nonce": "0x37",
        "chainId": "0x3df"
      },
      "additionalContracts": [],
      "isFixedGasLimit": false
    }
  ],
  "receipts": [
    {
      "type": "0x2",
      "status": "0x1",
      "cumulativeGasUsed": "0x2540be400",
      "logs": [],
      "logsBloom": "0x00000000000000000000000000000000000000000000000000000000000000000000000000000000000000000000000000000000000000000000000000000000000000000000000000000000000000000000000000000000000000000000000000000000000000000000000000000000000000000000000000000000000000000000000000000000000000000000000000000000000000000000000000000000000000000000000000000000000000000000000000000000000000000000000000000000000000000000000000000000000000000000000000000000000000000000000000000000000000000000000000000000000000000000000000000000",
      "transactionHash": "0xc59417565b6c73b480dbc894185256ff8f65c25c870b57b2b681aadb978577c8",
      "transactionIndex": "0x0",
      "blockHash": "0xfbe83234a40bd0a7167b02aed25f06c3c98b53e81d575d80c723f44849ee4ee2",
      "blockNumber": "0x8dbc",
      "gasUsed": "0x8627",
      "effectiveGasPrice": "0xf4240",
      "from": "0xcc90553427e7848576eddaa27eb0720c70a01d7e",
      "to": null,
      "contractAddress": "0x680e5aeed8220ebd57b2a0f852b2946e69ccbd68"
    },
    {
      "type": "0x2",
      "status": "0x1",
      "cumulativeGasUsed": "0x2540be400",
      "logs": [
        {
          "address": "0x9f0c2acf9520cb2f573a3cd328e7f1eeb4fb38dc",
          "topics": [
            "0x8be0079c531659141344cd1fd0a4f28419497f9722a3daafe3b4186f6b6457e0",
            "0x0000000000000000000000000000000000000000000000000000000000000000",
            "0x000000000000000000000000cc90553427e7848576eddaa27eb0720c70a01d7e"
          ],
          "data": "0x",
          "blockHash": "0x53c8aa097bd0f4ce6fb87b170cd02150ba6ca3feeac617d784b15b4dbefcf9f2",
          "blockNumber": "0x8dbd",
          "transactionHash": "0x781de43474a03e16291d02c936a019c29d4d556c7675dc7f97c71ad2e19086b4",
          "transactionIndex": "0x0",
          "logIndex": "0x0",
          "removed": false
        },
        {
          "address": "0x9f0c2acf9520cb2f573a3cd328e7f1eeb4fb38dc",
          "topics": [
            "0xbc7cd75a20ee27fd9adebab32041f755214dbc6bffa90cc0225b39da2e5c2d3b",
            "0x000000000000000000000000680e5aeed8220ebd57b2a0f852b2946e69ccbd68"
          ],
          "data": "0x",
          "blockHash": "0x53c8aa097bd0f4ce6fb87b170cd02150ba6ca3feeac617d784b15b4dbefcf9f2",
          "blockNumber": "0x8dbd",
          "transactionHash": "0x781de43474a03e16291d02c936a019c29d4d556c7675dc7f97c71ad2e19086b4",
          "transactionIndex": "0x0",
          "logIndex": "0x1",
          "removed": false
        }
      ],
      "logsBloom": "0x00000000000000000000000000000000000000000000000000000000000000000000000000000000000000000000000000000000000000000000000000000000000000000000000000000000000000000000000000000000000000000000000000000000000000000000000000000000000000000000000000000000000000000000000000000000000000000000000000000000000000000000000000000000000000000000000000000000000000000000000000000000000000000000000000000000000000000000000000000000000000000000000000000000000000000000000000000000000000000000000000000000000000000000000000000000",
      "transactionHash": "0x781de43474a03e16291d02c936a019c29d4d556c7675dc7f97c71ad2e19086b4",
      "transactionIndex": "0x0",
      "blockHash": "0x53c8aa097bd0f4ce6fb87b170cd02150ba6ca3feeac617d784b15b4dbefcf9f2",
      "blockNumber": "0x8dbd",
      "gasUsed": "0xa4d3",
      "effectiveGasPrice": "0xf4240",
      "from": "0xcc90553427e7848576eddaa27eb0720c70a01d7e",
      "to": null,
      "contractAddress": "0x9f0c2acf9520cb2f573a3cd328e7f1eeb4fb38dc"
    },
    {
      "type": "0x2",
      "status": "0x1",
      "cumulativeGasUsed": "0x2540be400",
      "logs": [
        {
          "address": "0xfd68a8e35034c09bb0b3a60da126279337392402",
          "topics": [
            "0x9641a7dc63a7282918c5789e7a4ec53e7509f3ab9b80c05b7b22c403c3a62bcc",
            "0xacf1dcc98c83259b0b03819a24c0cc51e1b3a194194a9a3039f3bb86a17619fd",
            "0x0000000000000000000000000000000000000000000000000000000000000000",
            "0x0000000000000000000000009f0c2acf9520cb2f573a3cd328e7f1eeb4fb38dc"
          ],
          "data": "0x",
          "blockHash": "0x62e2928fd3a696b191bde0e20f72326b21c374068bf0d8eda66bb1a76cc4186f",
          "blockNumber": "0x8dbe",
          "transactionHash": "0x0d1b90d50ef1f84db3a0b9b3adffd87cafaccf184dfbec8cec8bbd64e183aa73",
          "transactionIndex": "0x0",
          "logIndex": "0x0",
          "removed": false
        }
      ],
      "logsBloom": "0x00000000000000000000000000000000000000000000000000000000000000000000000000000000000000000000000000000000000000000000000000000000000000000000000000000000000000000000000000000000000000000000000000000000000000000000000000000000000000000000000000000000000000000000000000000000000000000000000000000000000000000000000000000000000000000000000000000000000000000000000000000000000000000000000000000000000000000000000000000000000000000000000000000000000000000000000000000000000000000000000000000000000000000000000000000000",
      "transactionHash": "0x0d1b90d50ef1f84db3a0b9b3adffd87cafaccf184dfbec8cec8bbd64e183aa73",
      "transactionIndex": "0x0",
      "blockHash": "0x62e2928fd3a696b191bde0e20f72326b21c374068bf0d8eda66bb1a76cc4186f",
      "blockNumber": "0x8dbe",
      "gasUsed": "0x217c",
      "effectiveGasPrice": "0xf4240",
      "from": "0xcc90553427e7848576eddaa27eb0720c70a01d7e",
      "to": "0xfd68a8e35034c09bb0b3a60da126279337392402",
      "contractAddress": null
    },
    {
      "type": "0x2",
      "status": "0x1",
      "cumulativeGasUsed": "0x2540be400",
      "logs": [
        {
          "address": "0x71018e3f70c0111a8bffd53bece2c49bafa6d0a3",
          "topics": [
            "0x8be0079c531659141344cd1fd0a4f28419497f9722a3daafe3b4186f6b6457e0",
            "0x0000000000000000000000000000000000000000000000000000000000000000",
            "0x000000000000000000000000cc90553427e7848576eddaa27eb0720c70a01d7e"
          ],
          "data": "0x",
          "blockHash": "0xb707b98f192ff1835a3939d84314dd6c0dafe4a0bb88c211c037fd9dde80aa7b",
          "blockNumber": "0x8dbf",
          "transactionHash": "0x96631cf5616b1b3385005a6d9ca87de98fb621fb270f7ab9c7b564916955fc33",
          "transactionIndex": "0x0",
          "logIndex": "0x0",
          "removed": false
        },
        {
          "address": "0x71018e3f70c0111a8bffd53bece2c49bafa6d0a3",
          "topics": [
            "0xbc7cd75a20ee27fd9adebab32041f755214dbc6bffa90cc0225b39da2e5c2d3b",
            "0x000000000000000000000000680e5aeed8220ebd57b2a0f852b2946e69ccbd68"
          ],
          "data": "0x",
          "blockHash": "0xb707b98f192ff1835a3939d84314dd6c0dafe4a0bb88c211c037fd9dde80aa7b",
          "blockNumber": "0x8dbf",
          "transactionHash": "0x96631cf5616b1b3385005a6d9ca87de98fb621fb270f7ab9c7b564916955fc33",
          "transactionIndex": "0x0",
          "logIndex": "0x1",
          "removed": false
        }
      ],
      "logsBloom": "0x00000000000000000000000000000000000000000000000000000000000000000000000000000000000000000000000000000000000000000000000000000000000000000000000000000000000000000000000000000000000000000000000000000000000000000000000000000000000000000000000000000000000000000000000000000000000000000000000000000000000000000000000000000000000000000000000000000000000000000000000000000000000000000000000000000000000000000000000000000000000000000000000000000000000000000000000000000000000000000000000000000000000000000000000000000000",
      "transactionHash": "0x96631cf5616b1b3385005a6d9ca87de98fb621fb270f7ab9c7b564916955fc33",
      "transactionIndex": "0x0",
      "blockHash": "0xb707b98f192ff1835a3939d84314dd6c0dafe4a0bb88c211c037fd9dde80aa7b",
      "blockNumber": "0x8dbf",
      "gasUsed": "0xa4d3",
      "effectiveGasPrice": "0xf4240",
      "from": "0xcc90553427e7848576eddaa27eb0720c70a01d7e",
      "to": null,
      "contractAddress": "0x71018e3f70c0111a8bffd53bece2c49bafa6d0a3"
    },
    {
      "type": "0x2",
      "status": "0x1",
      "cumulativeGasUsed": "0x2540be400",
      "logs": [
        {
          "address": "0xfd68a8e35034c09bb0b3a60da126279337392402",
          "topics": [
            "0x9641a7dc63a7282918c5789e7a4ec53e7509f3ab9b80c05b7b22c403c3a62bcc",
            "0xef25a28340e0dfeb4479e3cdeb1697cdeebbc6c7e86e06b53ae9a5f4cc6a69c5",
            "0x0000000000000000000000000000000000000000000000000000000000000000",
            "0x00000000000000000000000071018e3f70c0111a8bffd53bece2c49bafa6d0a3"
          ],
          "data": "0x",
          "blockHash": "0xdf797a8126c4be6f31d7613ec84bbcdf1b19108acb788b74b8e18a8354afb9c3",
          "blockNumber": "0x8dc0",
          "transactionHash": "0x1c44ed1971904564073317b956de69a8bcc7de9e287c0918598365aaa0f80fd3",
          "transactionIndex": "0x0",
          "logIndex": "0x0",
          "removed": false
        }
      ],
      "logsBloom": "0x00000000000000000000000000000000000000000000000000000000000000000000000000000000000000000000000000000000000000000000000000000000000000000000000000000000000000000000000000000000000000000000000000000000000000000000000000000000000000000000000000000000000000000000000000000000000000000000000000000000000000000000000000000000000000000000000000000000000000000000000000000000000000000000000000000000000000000000000000000000000000000000000000000000000000000000000000000000000000000000000000000000000000000000000000000000",
      "transactionHash": "0x1c44ed1971904564073317b956de69a8bcc7de9e287c0918598365aaa0f80fd3",
      "transactionIndex": "0x0",
      "blockHash": "0xdf797a8126c4be6f31d7613ec84bbcdf1b19108acb788b74b8e18a8354afb9c3",
      "blockNumber": "0x8dc0",
      "gasUsed": "0x2118",
      "effectiveGasPrice": "0xf4240",
      "from": "0xcc90553427e7848576eddaa27eb0720c70a01d7e",
      "to": "0xfd68a8e35034c09bb0b3a60da126279337392402",
      "contractAddress": null
    },
    {
      "type": "0x2",
      "status": "0x1",
      "cumulativeGasUsed": "0x2540be400",
      "logs": [
        {
          "address": "0x7997a0acaa87c2d89074c5aa19838ab1be1027f6",
          "topics": [
            "0x8be0079c531659141344cd1fd0a4f28419497f9722a3daafe3b4186f6b6457e0",
            "0x0000000000000000000000000000000000000000000000000000000000000000",
            "0x000000000000000000000000cc90553427e7848576eddaa27eb0720c70a01d7e"
          ],
          "data": "0x",
          "blockHash": "0x154522ee239ce16bc8d80629875acbb1b87bf9e70ea6b393a8eb88b963f7c194",
          "blockNumber": "0x8dc1",
          "transactionHash": "0xf96cdbe569e216ee477329c11ac557fe416071ec295b54e678febe2f97204e11",
          "transactionIndex": "0x0",
          "logIndex": "0x0",
          "removed": false
        },
        {
          "address": "0x7997a0acaa87c2d89074c5aa19838ab1be1027f6",
          "topics": [
            "0xbc7cd75a20ee27fd9adebab32041f755214dbc6bffa90cc0225b39da2e5c2d3b",
            "0x000000000000000000000000680e5aeed8220ebd57b2a0f852b2946e69ccbd68"
          ],
          "data": "0x",
          "blockHash": "0x154522ee239ce16bc8d80629875acbb1b87bf9e70ea6b393a8eb88b963f7c194",
          "blockNumber": "0x8dc1",
          "transactionHash": "0xf96cdbe569e216ee477329c11ac557fe416071ec295b54e678febe2f97204e11",
          "transactionIndex": "0x0",
          "logIndex": "0x1",
          "removed": false
        }
      ],
      "logsBloom": "0x00000000000000000000000000000000000000000000000000000000000000000000000000000000000000000000000000000000000000000000000000000000000000000000000000000000000000000000000000000000000000000000000000000000000000000000000000000000000000000000000000000000000000000000000000000000000000000000000000000000000000000000000000000000000000000000000000000000000000000000000000000000000000000000000000000000000000000000000000000000000000000000000000000000000000000000000000000000000000000000000000000000000000000000000000000000",
      "transactionHash": "0xf96cdbe569e216ee477329c11ac557fe416071ec295b54e678febe2f97204e11",
      "transactionIndex": "0x0",
      "blockHash": "0x154522ee239ce16bc8d80629875acbb1b87bf9e70ea6b393a8eb88b963f7c194",
      "blockNumber": "0x8dc1",
      "gasUsed": "0xa4d3",
      "effectiveGasPrice": "0xf4240",
      "from": "0xcc90553427e7848576eddaa27eb0720c70a01d7e",
      "to": null,
      "contractAddress": "0x7997a0acaa87c2d89074c5aa19838ab1be1027f6"
    },
    {
      "type": "0x2",
      "status": "0x1",
      "cumulativeGasUsed": "0x2540be400",
      "logs": [
        {
          "address": "0xfd68a8e35034c09bb0b3a60da126279337392402",
          "topics": [
            "0x9641a7dc63a7282918c5789e7a4ec53e7509f3ab9b80c05b7b22c403c3a62bcc",
            "0xa7855c40c8645ce5764ecc193316fc26d65093c553d5b3bd2a64c24400a14cc7",
            "0x0000000000000000000000000000000000000000000000000000000000000000",
            "0x0000000000000000000000007997a0acaa87c2d89074c5aa19838ab1be1027f6"
          ],
          "data": "0x",
          "blockHash": "0x74c1b8d7b02680c66a7a821af595e1483d9da0470331b1d0ba4fcde7e12a6f11",
          "blockNumber": "0x8dc2",
          "transactionHash": "0x3a9a42d9fdc03ae02a18d1be4d8a736adc46e3d864e35184a3e29978ec0e75b3",
          "transactionIndex": "0x0",
          "logIndex": "0x0",
          "removed": false
        }
      ],
      "logsBloom": "0x00000000000000000000000000000000000000000000000000000000000000000000000000000000000000000000000000000000000000000000000000000000000000000000000000000000000000000000000000000000000000000000000000000000000000000000000000000000000000000000000000000000000000000000000000000000000000000000000000000000000000000000000000000000000000000000000000000000000000000000000000000000000000000000000000000000000000000000000000000000000000000000000000000000000000000000000000000000000000000000000000000000000000000000000000000000",
      "transactionHash": "0x3a9a42d9fdc03ae02a18d1be4d8a736adc46e3d864e35184a3e29978ec0e75b3",
      "transactionIndex": "0x0",
      "blockHash": "0x74c1b8d7b02680c66a7a821af595e1483d9da0470331b1d0ba4fcde7e12a6f11",
      "blockNumber": "0x8dc2",
      "gasUsed": "0x217c",
      "effectiveGasPrice": "0xf4240",
      "from": "0xcc90553427e7848576eddaa27eb0720c70a01d7e",
      "to": "0xfd68a8e35034c09bb0b3a60da126279337392402",
      "contractAddress": null
    }
  ],
  "libraries": [],
  "pending": [],
  "returns": {},
  "timestamp": 1781777259902,
  "chain": 991,
  "commit": "48ca5e3"
}