{
  "transactions": [
    {
      "hash": "0x74cbc63a286c476eb4922950e38b00a99ae07c620a0b411ef0f4810048daab0f",
      "transactionType": "CREATE",
      "contractName": "EmptyLogic",
      "contractAddress": "0x0a6a5fb8f0f5e31ab17fecaaa13fa3eeb9e907c9",
      "function": null,
      "arguments": null,
      "transaction": {
        "from": "0xcc90553427e7848576eddaa27eb0720c70a01d7e",
        "to": null,
        "gas": "0x1537e",
        "value": "0x0",
        "input": "0x6080604052348015600e575f5ffd5b50603e80601a5f395ff3fe60806040525f5ffdfea26469706673582212200580edd8bca1f61f234da091fa3602a7e6f262ed40390734fe693912882c8b2864736f6c63430008230033",
        "nonce": "0x4d",
        "chainId": "0x3df"
      },
      "additionalContracts": [],
      "isFixedGasLimit": false
    },
    {
      "hash": "0xd555de2b31608d3aa88416d92f542bb84aed159238e815ebba1e1f5f73fb73b5",
      "transactionType": "CREATE",
      "contractName": "UpgradeableBeacon",
      "contractAddress": "0xa98b4b65cb9997b11fe3a07fbd3bb2fc40f013c4",
      "function": null,
      "arguments": [
        "0x0A6A5fB8f0f5E31ab17fECAAa13fa3eeB9e907c9",
        "0xcC90553427e7848576eDDaa27EB0720c70a01D7E"
      ],
      "transaction": {
        "from": "0xcc90553427e7848576eddaa27eb0720c70a01d7e",
        "to": null,
        "gas": "0x7ad6a",
        "value": "0x0",
        "input": "0x608060405234801561000f575f5ffd5b50604051610823380380610823833981810160405281019061003191906102c8565b805f73ffffffffffffffffffffffffffffffffffffffff168173ffffffffffffffffffffffffffffffffffffffff16036100a2575f6040517f1e4fbdf70000000000000000000000000000000000000000000000000000000081526004016100999190610315565b60405180910390fd5b6100b1816100c860201b60201c565b506100c18261018960201b60201c565b505061032e565b5f5f5f9054906101000a900473ffffffffffffffffffffffffffffffffffffffff169050815f5f6101000a81548173ffffffffffffffffffffffffffffffffffffffff021916908373ffffffffffffffffffffffffffffffffffffffff1602179055508173ffffffffffffffffffffffffffffffffffffffff168173ffffffffffffffffffffffffffffffffffffffff167f8be0079c531659141344cd1fd0a4f28419497f9722a3daafe3b4186f6b6457e060405160405180910390a35050565b5f8173ffffffffffffffffffffffffffffffffffffffff163b036101e457806040517f847ac5640000000000000000000000000000000000000000000000000000000081526004016101db9190610315565b60405180910390fd5b8060015f6101000a81548173ffffffffffffffffffffffffffffffffffffffff021916908373ffffffffffffffffffffffffffffffffffffffff1602179055508073ffffffffffffffffffffffffffffffffffffffff167fbc7cd75a20ee27fd9adebab32041f755214dbc6bffa90cc0225b39da2e5c2d3b60405160405180910390a250565b5f5ffd5b5f73ffffffffffffffffffffffffffffffffffffffff82169050919050565b5f6102978261026e565b9050919050565b6102a78161028d565b81146102b1575f5ffd5b50565b5f815190506102c28161029e565b92915050565b5f5f604083850312156102de576102dd61026a565b5b5f6102eb858286016102b4565b92505060206102fc858286016102b4565b9150509250929050565b61030f8161028d565b82525050565b5f6020820190506103285f830184610306565b92915050565b6104e88061033b5f395ff3fe608060405234801561000f575f5ffd5b5060043610610055575f3560e01c80633659cfe6146100595780635c60da1b14610075578063715018a6146100935780638da5cb5b1461009d578063f2fde38b146100bb575b5f5ffd5b610073600480360381019061006e919061045f565b6100d7565b005b61007d6100eb565b60405161008a9190610499565b60405180910390f35b61009b610113565b005b6100a5610126565b6040516100b29190610499565b60405180910390f35b6100d560048036038101906100d0919061045f565b61014d565b005b6100df6101d1565b6100e881610258565b50565b5f60015f9054906101000a900473ffffffffffffffffffffffffffffffffffffffff16905090565b61011b6101d1565b6101245f610339565b565b5f5f5f9054906101000a900473ffffffffffffffffffffffffffffffffffffffff16905090565b6101556101d1565b5f73ffffffffffffffffffffffffffffffffffffffff168173ffffffffffffffffffffffffffffffffffffffff16036101c5575f6040517f1e4fbdf70000000000000000000000000000000000000000000000000000000081526004016101bc9190610499565b60405180910390fd5b6101ce81610339565b50565b6101d96103fa565b73ffffffffffffffffffffffffffffffffffffffff166101f7610126565b73ffffffffffffffffffffffffffffffffffffffff16146102565761021a6103fa565b6040517f118cdaa700000000000000000000000000000000000000000000000000000000815260040161024d9190610499565b60405180910390fd5b565b5f8173ffffffffffffffffffffffffffffffffffffffff163b036102b357806040517f847ac5640000000000000000000000000000000000000000000000000000000081526004016102aa9190610499565b60405180910390fd5b8060015f6101000a81548173ffffffffffffffffffffffffffffffffffffffff021916908373ffffffffffffffffffffffffffffffffffffffff1602179055508073ffffffffffffffffffffffffffffffffffffffff167fbc7cd75a20ee27fd9adebab32041f755214dbc6bffa90cc0225b39da2e5c2d3b60405160405180910390a250565b5f5f5f9054906101000a900473ffffffffffffffffffffffffffffffffffffffff169050815f5f6101000a81548173ffffffffffffffffffffffffffffffffffffffff021916908373ffffffffffffffffffffffffffffffffffffffff1602179055508173ffffffffffffffffffffffffffffffffffffffff168173ffffffffffffffffffffffffffffffffffffffff167f8be0079c531659141344cd1fd0a4f28419497f9722a3daafe3b4186f6b6457e060405160405180910390a35050565b5f33905090565b5f5ffd5b5f73ffffffffffffffffffffffffffffffffffffffff82169050919050565b5f61042e82610405565b9050919050565b61043e81610424565b8114610448575f5ffd5b50565b5f8135905061045981610435565b92915050565b5f6020828403121561047457610473610401565b5b5f6104818482850161044b565b91505092915050565b61049381610424565b82525050565b5f6020820190506104ac5f83018461048a565b9291505056fea26469706673582212203425d6f7fbaebdcdb24d9329623a9ca0e4740a7f92a905dc6fbffa72bd54d44064736f6c634300082300330000000000000000000000000a6a5fb8f0f5e31ab17fecaaa13fa3eeb9e907c9000000000000000000000000cc90553427e7848576eddaa27eb0720c70a01d7e",
        "nonce": "0x4e",
        "chainId": "0x3df"
      },
      "additionalContracts": [],
      "isFixedGasLimit": false
    },
    {
      "hash": "0xf07e6a2758e28ac81778ce25d1e05b840fdb5bfedaa27c47bd2af5599e3def45",
      "transactionType": "CALL",
      "contractName": null,
      "contractAddress": "0xfd68a8e35034c09bb0b3a60da126279337392402",
      "function": "registerSubModule(bytes32,bytes32,address)",
      "arguments": [
        "0xacf1dcc98c83259b0b03819a24c0cc51e1b3a194194a9a3039f3bb86a17619fd",
        "0x0000000000000000000000000000000000000000000000000000000000000000",
        "0xA98b4B65cb9997b11fe3A07FBD3BB2fc40f013c4"
      ],
      "transaction": {
        "from": "0xcc90553427e7848576eddaa27eb0720c70a01d7e",
        "to": "0xfd68a8e35034c09bb0b3a60da126279337392402",
        "gas": "0x11896",
        "value": "0x0",
        "input": "0xad48810bacf1dcc98c83259b0b03819a24c0cc51e1b3a194194a9a3039f3bb86a17619fd0000000000000000000000000000000000000000000000000000000000000000000000000000000000000000a98b4b65cb9997b11fe3a07fbd3bb2fc40f013c4",
        "nonce": "0x4f",
        "chainId": "0x3df"
      },
      "additionalContracts": [],
      "isFixedGasLimit": false
    },
    {
      "hash": "0x60de8ae11ef2bc65f57b60ac2a3d728d8c3bc199aff498099c859c1427ce01bf",
      "transactionType": "CREATE",
      "contractName": "UpgradeableBeacon",
      "contractAddress": "0x2f091b7753474801e0b0068dfb135080cc3d136f",
      "function": null,
      "arguments": [
        "0x0A6A5fB8f0f5E31ab17fECAAa13fa3eeB9e907c9",
        "0xcC90553427e7848576eDDaa27EB0720c70a01D7E"
      ],
      "transaction": {
        "from": "0xcc90553427e7848576eddaa27eb0720c70a01d7e",
        "to": null,
        "gas": "0x7ad6a",
        "value": "0x0",
        "input": "0x608060405234801561000f575f5ffd5b50604051610823380380610823833981810160405281019061003191906102c8565b805f73ffffffffffffffffffffffffffffffffffffffff168173ffffffffffffffffffffffffffffffffffffffff16036100a2575f6040517f1e4fbdf70000000000000000000000000000000000000000000000000000000081526004016100999190610315565b60405180910390fd5b6100b1816100c860201b60201c565b506100c18261018960201b60201c565b505061032e565b5f5f5f9054906101000a900473ffffffffffffffffffffffffffffffffffffffff169050815f5f6101000a81548173ffffffffffffffffffffffffffffffffffffffff021916908373ffffffffffffffffffffffffffffffffffffffff1602179055508173ffffffffffffffffffffffffffffffffffffffff168173ffffffffffffffffffffffffffffffffffffffff167f8be0079c531659141344cd1fd0a4f28419497f9722a3daafe3b4186f6b6457e060405160405180910390a35050565b5f8173ffffffffffffffffffffffffffffffffffffffff163b036101e457806040517f847ac5640000000000000000000000000000000000000000000000000000000081526004016101db9190610315565b60405180910390fd5b8060015f6101000a81548173ffffffffffffffffffffffffffffffffffffffff021916908373ffffffffffffffffffffffffffffffffffffffff1602179055508073ffffffffffffffffffffffffffffffffffffffff167fbc7cd75a20ee27fd9adebab32041f755214dbc6bffa90cc0225b39da2e5c2d3b60405160405180910390a250565b5f5ffd5b5f73ffffffffffffffffffffffffffffffffffffffff82169050919050565b5f6102978261026e565b9050919050565b6102a78161028d565b81146102b1575f5ffd5b50565b5f815190506102c28161029e565b92915050565b5f5f604083850312156102de576102dd61026a565b5b5f6102eb858286016102b4565b92505060206102fc858286016102b4565b9150509250929050565b61030f8161028d565b82525050565b5f6020820190506103285f830184610306565b92915050565b6104e88061033b5f395ff3fe608060405234801561000f575f5ffd5b5060043610610055575f3560e01c80633659cfe6146100595780635c60da1b14610075578063715018a6146100935780638da5cb5b1461009d578063f2fde38b146100bb575b5f5ffd5b610073600480360381019061006e919061045f565b6100d7565b005b61007d6100eb565b60405161008a9190610499565b60405180910390f35b61009b610113565b005b6100a5610126565b6040516100b29190610499565b60405180910390f35b6100d560048036038101906100d0919061045f565b61014d565b005b6100df6101d1565b6100e881610258565b50565b5f60015f9054906101000a900473ffffffffffffffffffffffffffffffffffffffff16905090565b61011b6101d1565b6101245f610339565b565b5f5f5f9054906101000a900473ffffffffffffffffffffffffffffffffffffffff16905090565b6101556101d1565b5f73ffffffffffffffffffffffffffffffffffffffff168173ffffffffffffffffffffffffffffffffffffffff16036101c5575f6040517f1e4fbdf70000000000000000000000000000000000000000000000000000000081526004016101bc9190610499565b60405180910390fd5b6101ce81610339565b50565b6101d96103fa565b73ffffffffffffffffffffffffffffffffffffffff166101f7610126565b73ffffffffffffffffffffffffffffffffffffffff16146102565761021a6103fa565b6040517f118cdaa700000000000000000000000000000000000000000000000000000000815260040161024d9190610499565b60405180910390fd5b565b5f8173ffffffffffffffffffffffffffffffffffffffff163b036102b357806040517f847ac5640000000000000000000000000000000000000000000000000000000081526004016102aa9190610499565b60405180910390fd5b8060015f6101000a81548173ffffffffffffffffffffffffffffffffffffffff021916908373ffffffffffffffffffffffffffffffffffffffff1602179055508073ffffffffffffffffffffffffffffffffffffffff167fbc7cd75a20ee27fd9adebab32041f755214dbc6bffa90cc0225b39da2e5c2d3b60405160405180910390a250565b5f5f5f9054906101000a900473ffffffffffffffffffffffffffffffffffffffff169050815f5f6101000a81548173ffffffffffffffffffffffffffffffffffffffff021916908373ffffffffffffffffffffffffffffffffffffffff1602179055508173ffffffffffffffffffffffffffffffffffffffff168173ffffffffffffffffffffffffffffffffffffffff167f8be0079c531659141344cd1fd0a4f28419497f9722a3daafe3b4186f6b6457e060405160405180910390a35050565b5f33905090565b5f5ffd5b5f73ffffffffffffffffffffffffffffffffffffffff82169050919050565b5f61042e82610405565b9050919050565b61043e81610424565b8114610448575f5ffd5b50565b5f8135905061045981610435565b92915050565b5f6020828403121561047457610473610401565b5b5f6104818482850161044b565b91505092915050565b61049381610424565b82525050565b5f6020820190506104ac5f83018461048a565b9291505056fea26469706673582212203425d6f7fbaebdcdb24d9329623a9ca0e4740a7f92a905dc6fbffa72bd54d44064736f6c634300082300330000000000000000000000000a6a5fb8f0f5e31ab17fecaaa13fa3eeb9e907c9000000000000000000000000cc90553427e7848576eddaa27eb0720c70a01d7e",
        "nonce": "0x50",
        "chainId": "0x3df"
      },
      "additionalContracts": [],
      "isFixedGasLimit": false
    },
    {
      "hash": "0x626133a3c036173977f714dc6987d8d0aafba1024ff05c90f8fd20d50ed39928",
      "transactionType": "CALL",
      "contractName": null,
      "contractAddress": "0xfd68a8e35034c09bb0b3a60da126279337392402",
      "function": "registerSubModule(bytes32,bytes32,address)",
      "arguments": [
        "0xef25a28340e0dfeb4479e3cdeb1697cdeebbc6c7e86e06b53ae9a5f4cc6a69c5",
        "0x0000000000000000000000000000000000000000000000000000000000000000",
        "0x2F091B7753474801e0b0068DFb135080Cc3D136F"
      ],
      "transaction": {
        "from": "0xcc90553427e7848576eddaa27eb0720c70a01d7e",
        "to": "0xfd68a8e35034c09bb0b3a60da126279337392402",
        "gas": "0x11896",
        "value": "0x0",
        "input": "0xad48810bef25a28340e0dfeb4479e3cdeb1697cdeebbc6c7e86e06b53ae9a5f4cc6a69c500000000000000000000000000000000000000000000000000000000000000000000000000000000000000002f091b7753474801e0b0068dfb135080cc3d136f",
        "nonce": "0x51",
        "chainId": "0x3df"
      },
      "additionalContracts": [],
      "isFixedGasLimit": false
    },
    {
      "hash": "0xf2bc9b9ccac472ad213323757a009e6850604e2ccd77b7eaf1c66723b04158a8",
      "transactionType": "CREATE",
      "contractName": "UpgradeableBeacon",
      "contractAddress": "0x3632f62d1625daf475552d2b06c4360e6bc7782c",
      "function": null,
      "arguments": [
        "0x0A6A5fB8f0f5E31ab17fECAAa13fa3eeB9e907c9",
        "0xcC90553427e7848576eDDaa27EB0720c70a01D7E"
      ],
      "transaction": {
        "from": "0xcc90553427e7848576eddaa27eb0720c70a01d7e",
        "to": null,
        "gas": "0x7ad6a",
        "value": "0x0",
        "input": "0x608060405234801561000f575f5ffd5b50604051610823380380610823833981810160405281019061003191906102c8565b805f73ffffffffffffffffffffffffffffffffffffffff168173ffffffffffffffffffffffffffffffffffffffff16036100a2575f6040517f1e4fbdf70000000000000000000000000000000000000000000000000000000081526004016100999190610315565b60405180910390fd5b6100b1816100c860201b60201c565b506100c18261018960201b60201c565b505061032e565b5f5f5f9054906101000a900473ffffffffffffffffffffffffffffffffffffffff169050815f5f6101000a81548173ffffffffffffffffffffffffffffffffffffffff021916908373ffffffffffffffffffffffffffffffffffffffff1602179055508173ffffffffffffffffffffffffffffffffffffffff168173ffffffffffffffffffffffffffffffffffffffff167f8be0079c531659141344cd1fd0a4f28419497f9722a3daafe3b4186f6b6457e060405160405180910390a35050565b5f8173ffffffffffffffffffffffffffffffffffffffff163b036101e457806040517f847ac5640000000000000000000000000000000000000000000000000000000081526004016101db9190610315565b60405180910390fd5b8060015f6101000a81548173ffffffffffffffffffffffffffffffffffffffff021916908373ffffffffffffffffffffffffffffffffffffffff1602179055508073ffffffffffffffffffffffffffffffffffffffff167fbc7cd75a20ee27fd9adebab32041f755214dbc6bffa90cc0225b39da2e5c2d3b60405160405180910390a250565b5f5ffd5b5f73ffffffffffffffffffffffffffffffffffffffff82169050919050565b5f6102978261026e565b9050919050565b6102a78161028d565b81146102b1575f5ffd5b50565b5f815190506102c28161029e565b92915050565b5f5f604083850312156102de576102dd61026a565b5b5f6102eb858286016102b4565b92505060206102fc858286016102b4565b9150509250929050565b61030f8161028d565b82525050565b5f6020820190506103285f830184610306565b92915050565b6104e88061033b5f395ff3fe608060405234801561000f575f5ffd5b5060043610610055575f3560e01c80633659cfe6146100595780635c60da1b14610075578063715018a6146100935780638da5cb5b1461009d578063f2fde38b146100bb575b5f5ffd5b610073600480360381019061006e919061045f565b6100d7565b005b61007d6100eb565b60405161008a9190610499565b60405180910390f35b61009b610113565b005b6100a5610126565b6040516100b29190610499565b60405180910390f35b6100d560048036038101906100d0919061045f565b61014d565b005b6100df6101d1565b6100e881610258565b50565b5f60015f9054906101000a900473ffffffffffffffffffffffffffffffffffffffff16905090565b61011b6101d1565b6101245f610339565b565b5f5f5f9054906101000a900473ffffffffffffffffffffffffffffffffffffffff16905090565b6101556101d1565b5f73ffffffffffffffffffffffffffffffffffffffff168173ffffffffffffffffffffffffffffffffffffffff16036101c5575f6040517f1e4fbdf70000000000000000000000000000000000000000000000000000000081526004016101bc9190610499565b60405180910390fd5b6101ce81610339565b50565b6101d96103fa565b73ffffffffffffffffffffffffffffffffffffffff166101f7610126565b73ffffffffffffffffffffffffffffffffffffffff16146102565761021a6103fa565b6040517f118cdaa700000000000000000000000000000000000000000000000000000000815260040161024d9190610499565b60405180910390fd5b565b5f8173ffffffffffffffffffffffffffffffffffffffff163b036102b357806040517f847ac5640000000000000000000000000000000000000000000000000000000081526004016102aa9190610499565b60405180910390fd5b8060015f6101000a81548173ffffffffffffffffffffffffffffffffffffffff021916908373ffffffffffffffffffffffffffffffffffffffff1602179055508073ffffffffffffffffffffffffffffffffffffffff167fbc7cd75a20ee27fd9adebab32041f755214dbc6bffa90cc0225b39da2e5c2d3b60405160405180910390a250565b5f5f5f9054906101000a900473ffffffffffffffffffffffffffffffffffffffff169050815f5f6101000a81548173ffffffffffffffffffffffffffffffffffffffff021916908373ffffffffffffffffffffffffffffffffffffffff1602179055508173ffffffffffffffffffffffffffffffffffffffff168173ffffffffffffffffffffffffffffffffffffffff167f8be0079c531659141344cd1fd0a4f28419497f9722a3daafe3b4186f6b6457e060405160405180910390a35050565b5f33905090565b5f5ffd5b5f73ffffffffffffffffffffffffffffffffffffffff82169050919050565b5f61042e82610405565b9050919050565b61043e81610424565b8114610448575f5ffd5b50565b5f8135905061045981610435565b92915050565b5f6020828403121561047457610473610401565b5b5f6104818482850161044b565b91505092915050565b61049381610424565b82525050565b5f6020820190506104ac5f83018461048a565b9291505056fea26469706673582212203425d6f7fbaebdcdb24d9329623a9ca0e4740a7f92a905dc6fbffa72bd54d44064736f6c634300082300330000000000000000000000000a6a5fb8f0f5e31ab17fecaaa13fa3eeb9e907c9000000000000000000000000cc90553427e7848576eddaa27eb0720c70a01d7e",
        "nonce": "0x52",
        "chainId": "0x3df"
      },
      "additionalContracts": [],
      "isFixedGasLimit": false
    },
    {
      "hash": "0xf4542e3bfc02beaca6b8ac4ae114b21398bb16d51f9149990052ec165cf7e2d9",
      "transactionType": "CALL",
      "contractName": null,
      "contractAddress": "0xfd68a8e35034c09bb0b3a60da126279337392402",
      "function": "registerSubModule(bytes32,bytes32,address)",
      "arguments": [
        "0xa7855c40c8645ce5764ecc193316fc26d65093c553d5b3bd2a64c24400a14cc7",
        "0x0000000000000000000000000000000000000000000000000000000000000000",
        "0x3632f62D1625Daf475552d2B06c4360e6bC7782C"
      ],
      "transaction": {
        "from": "0xcc90553427e7848576eddaa27eb0720c70a01d7e",
        "to": "0xfd68a8e35034c09bb0b3a60da126279337392402",
        "gas": "0x108ee",
        "value": "0x0",
        "input": "0xad48810ba7855c40c8645ce5764ecc193316fc26d65093c553d5b3bd2a64c24400a14cc700000000000000000000000000000000000000000000000000000000000000000000000000000000000000003632f62d1625daf475552d2b06c4360e6bc7782c",
        "nonce": "0x53",
        "chainId": "0x3df"
      },
      "additionalContracts": [],
      "isFixedGasLimit": false
    }
  ],
  "receipts": [
    {
      "type": "0x2",
      "status": "0x1",
      "cumulativeGasUsed": "0x2540be400",
      "logs": [],
      "logsBloom": "0x00000000000000000000000000000000000000000000000000000000000000000000000000000000000000000000000000000000000000000000000000000000000000000000000000000000000000000000000000000000000000000000000000000000000000000000000000000000000000000000000000000000000000000000000000000000000000000000000000000000000000000000000000000000000000000000000000000000000000000000000000000000000000000000000000000000000000000000000000000000000000000000000000000000000000000000000000000000000000000000000000000000000000000000000000000000",
      "transactionHash": "0x74cbc63a286c476eb4922950e38b00a99ae07c620a0b411ef0f4810048daab0f",
      "transactionIndex": "0x0",
      "blockHash": "0x2462b3be0974c309de92ffb277ad2dde9770ed08abdc8abab70edec7433ca039",
      "blockNumber": "0x8f49",
      "gasUsed": "0x8627",
      "effectiveGasPrice": "0xf4240",
      "from": "0xcc90553427e7848576eddaa27eb0720c70a01d7e",
      "to": null,
      "contractAddress": "0x0a6a5fb8f0f5e31ab17fecaaa13fa3eeb9e907c9"
    },
    {
      "type": "0x2",
      "status": "0x1",
      "cumulativeGasUsed": "0x2540be400",
      "logs": [
        {
          "address": "0xa98b4b65cb9997b11fe3a07fbd3bb2fc40f013c4",
          "topics": [
            "0x8be0079c531659141344cd1fd0a4f28419497f9722a3daafe3b4186f6b6457e0",
            "0x0000000000000000000000000000000000000000000000000000000000000000",
            "0x000000000000000000000000cc90553427e7848576eddaa27eb0720c70a01d7e"
          ],
          "data": "0x",
          "blockHash": "0x445b3ce7337ce866569f9c769ee7ecc61241af2655c7e92c22cd9c758b1e7472",
          "blockNumber": "0x8f4a",
          "transactionHash": "0xd555de2b31608d3aa88416d92f542bb84aed159238e815ebba1e1f5f73fb73b5",
          "transactionIndex": "0x0",
          "logIndex": "0x0",
          "removed": false
        },
        {
          "address": "0xa98b4b65cb9997b11fe3a07fbd3bb2fc40f013c4",
          "topics": [
            "0xbc7cd75a20ee27fd9adebab32041f755214dbc6bffa90cc0225b39da2e5c2d3b",
            "0x0000000000000000000000000a6a5fb8f0f5e31ab17fecaaa13fa3eeb9e907c9"
          ],
          "data": "0x",
          "blockHash": "0x445b3ce7337ce866569f9c769ee7ecc61241af2655c7e92c22cd9c758b1e7472",
          "blockNumber": "0x8f4a",
          "transactionHash": "0xd555de2b31608d3aa88416d92f542bb84aed159238e815ebba1e1f5f73fb73b5",
          "transactionIndex": "0x0",
          "logIndex": "0x1",
          "removed": false
        }
      ],
      "logsBloom": "0x00000000000000000000000000000000000000000000000000000000000000000000000000000000000000000000000000000000000000000000000000000000000000000000000000000000000000000000000000000000000000000000000000000000000000000000000000000000000000000000000000000000000000000000000000000000000000000000000000000000000000000000000000000000000000000000000000000000000000000000000000000000000000000000000000000000000000000000000000000000000000000000000000000000000000000000000000000000000000000000000000000000000000000000000000000000",
      "transactionHash": "0xd555de2b31608d3aa88416d92f542bb84aed159238e815ebba1e1f5f73fb73b5",
      "transactionIndex": "0x0",
      "blockHash": "0x445b3ce7337ce866569f9c769ee7ecc61241af2655c7e92c22cd9c758b1e7472",
      "blockNumber": "0x8f4a",
      "gasUsed": "0xa4d3",
      "effectiveGasPrice": "0xf4240",
      "from": "0xcc90553427e7848576eddaa27eb0720c70a01d7e",
      "to": null,
      "contractAddress": "0xa98b4b65cb9997b11fe3a07fbd3bb2fc40f013c4"
    },
    {
      "type": "0x2",
      "status": "0x1",
      "cumulativeGasUsed": "0x2540be400",
      "logs": [
        {
          "address": "0xfd68a8e35034c09bb0b3a60da126279337392402",
          "topics": [
            "0x9641a7dc63a7282918c5789e7a4ec53e7509f3ab9b80c05b7b22c403c3a62bcc",
            "0xacf1dcc98c83259b0b03819a24c0cc51e1b3a194194a9a3039f3bb86a17619fd",
            "0x0000000000000000000000000000000000000000000000000000000000000000",
            "0x000000000000000000000000a98b4b65cb9997b11fe3a07fbd3bb2fc40f013c4"
          ],
          "data": "0x",
          "blockHash": "0x18341b50151a72c1f4f8240509cac39a7ab70bc15007a0ad6c5d996eb9598537",
          "blockNumber": "0x8f4b",
          "transactionHash": "0xf07e6a2758e28ac81778ce25d1e05b840fdb5bfedaa27c47bd2af5599e3def45",
          "transactionIndex": "0x0",
          "logIndex": "0x0",
          "removed": false
        }
      ],
      "logsBloom": "0x00000000000000000000000000000000000000000000000000000000000000000000000000000000000000000000000000000000000000000000000000000000000000000000000000000000000000000000000000000000000000000000000000000000000000000000000000000000000000000000000000000000000000000000000000000000000000000000000000000000000000000000000000000000000000000000000000000000000000000000000000000000000000000000000000000000000000000000000000000000000000000000000000000000000000000000000000000000000000000000000000000000000000000000000000000000",
      "transactionHash": "0xf07e6a2758e28ac81778ce25d1e05b840fdb5bfedaa27c47bd2af5599e3def45",
      "transactionIndex": "0x0",
      "blockHash": "0x18341b50151a72c1f4f8240509cac39a7ab70bc15007a0ad6c5d996eb9598537",
      "blockNumber": "0x8f4b",
      "gasUsed": "0x217c",
      "effectiveGasPrice": "0xf4240",
      "from": "0xcc90553427e7848576eddaa27eb0720c70a01d7e",
      "to": "0xfd68a8e35034c09bb0b3a60da126279337392402",
      "contractAddress": null
    },
    {
      "type": "0x2",
      "status": "0x1",
      "cumulativeGasUsed": "0x2540be400",
      "logs": [
        {
          "address": "0x2f091b7753474801e0b0068dfb135080cc3d136f",
          "topics": [
            "0x8be0079c531659141344cd1fd0a4f28419497f9722a3daafe3b4186f6b6457e0",
            "0x0000000000000000000000000000000000000000000000000000000000000000",
            "0x000000000000000000000000cc90553427e7848576eddaa27eb0720c70a01d7e"
          ],
          "data": "0x",
          "blockHash": "0x8e82f4ae0bba3a8dbc3712870ff35383b8532e7b80bfbd361ecd3b5d62d246a4",
          "blockNumber": "0x8f4c",
          "transactionHash": "0x60de8ae11ef2bc65f57b60ac2a3d728d8c3bc199aff498099c859c1427ce01bf",
          "transactionIndex": "0x0",
          "logIndex": "0x0",
          "removed": false
        },
        {
          "address": "0x2f091b7753474801e0b0068dfb135080cc3d136f",
          "topics": [
            "0xbc7cd75a20ee27fd9adebab32041f755214dbc6bffa90cc0225b39da2e5c2d3b",
            "0x0000000000000000000000000a6a5fb8f0f5e31ab17fecaaa13fa3eeb9e907c9"
          ],
          "data": "0x",
          "blockHash": "0x8e82f4ae0bba3a8dbc3712870ff35383b8532e7b80bfbd361ecd3b5d62d246a4",
          "blockNumber": "0x8f4c",
          "transactionHash": "0x60de8ae11ef2bc65f57b60ac2a3d728d8c3bc199aff498099c859c1427ce01bf",
          "transactionIndex": "0x0",
          "logIndex": "0x1",
          "removed": false
        }
      ],
      "logsBloom": "0x00000000000000000000000000000000000000000000000000000000000000000000000000000000000000000000000000000000000000000000000000000000000000000000000000000000000000000000000000000000000000000000000000000000000000000000000000000000000000000000000000000000000000000000000000000000000000000000000000000000000000000000000000000000000000000000000000000000000000000000000000000000000000000000000000000000000000000000000000000000000000000000000000000000000000000000000000000000000000000000000000000000000000000000000000000000",
      "transactionHash": "0x60de8ae11ef2bc65f57b60ac2a3d728d8c3bc199aff498099c859c1427ce01bf",
      "transactionIndex": "0x0",
      "blockHash": "0x8e82f4ae0bba3a8dbc3712870ff35383b8532e7b80bfbd361ecd3b5d62d246a4",
      "blockNumber": "0x8f4c",
      "gasUsed": "0xa4d3",
      "effectiveGasPrice": "0xf4240",
      "from": "0xcc90553427e7848576eddaa27eb0720c70a01d7e",
      "to": null,
      "contractAddress": "0x2f091b7753474801e0b0068dfb135080cc3d136f"
    },
    {
      "type": "0x2",
      "status": "0x1",
      "cumulativeGasUsed": "0x2540be400",
      "logs": [
        {
          "address": "0xfd68a8e35034c09bb0b3a60da126279337392402",
          "topics": [
            "0x9641a7dc63a7282918c5789e7a4ec53e7509f3ab9b80c05b7b22c403c3a62bcc",
            "0xef25a28340e0dfeb4479e3cdeb1697cdeebbc6c7e86e06b53ae9a5f4cc6a69c5",
            "0x0000000000000000000000000000000000000000000000000000000000000000",
            "0x0000000000000000000000002f091b7753474801e0b0068dfb135080cc3d136f"
          ],
          "data": "0x",
          "blockHash": "0x1bb1d6cf169a869c3e4f8fd834c1d11f54fcd5a564e1f1e914ab5e3be4fa28d6",
          "blockNumber": "0x8f4d",
          "transactionHash": "0x626133a3c036173977f714dc6987d8d0aafba1024ff05c90f8fd20d50ed39928",
          "transactionIndex": "0x0",
          "logIndex": "0x0",
          "removed": false
        }
      ],
      "logsBloom": "0x00000000000000000000000000000000000000000000000000000000000000000000000000000000000000000000000000000000000000000000000000000000000000000000000000000000000000000000000000000000000000000000000000000000000000000000000000000000000000000000000000000000000000000000000000000000000000000000000000000000000000000000000000000000000000000000000000000000000000000000000000000000000000000000000000000000000000000000000000000000000000000000000000000000000000000000000000000000000000000000000000000000000000000000000000000000",
      "transactionHash": "0x626133a3c036173977f714dc6987d8d0aafba1024ff05c90f8fd20d50ed39928",
      "transactionIndex": "0x0",
      "blockHash": "0x1bb1d6cf169a869c3e4f8fd834c1d11f54fcd5a564e1f1e914ab5e3be4fa28d6",
      "blockNumber": "0x8f4d",
      "gasUsed": "0x217c",
      "effectiveGasPrice": "0xf4240",
      "from": "0xcc90553427e7848576eddaa27eb0720c70a01d7e",
      "to": "0xfd68a8e35034c09bb0b3a60da126279337392402",
      "contractAddress": null
    },
    {
      "type": "0x2",
      "status": "0x1",
      "cumulativeGasUsed": "0x2540be400",
      "logs": [
        {
          "address": "0x3632f62d1625daf475552d2b06c4360e6bc7782c",
          "topics": [
            "0x8be0079c531659141344cd1fd0a4f28419497f9722a3daafe3b4186f6b6457e0",
            "0x0000000000000000000000000000000000000000000000000000000000000000",
            "0x000000000000000000000000cc90553427e7848576eddaa27eb0720c70a01d7e"
          ],
          "data": "0x",
          "blockHash": "0x732b7fe444166dbc2656817f90da6116cd9e0ea03ba1ddefa9bb95109b1fc651",
          "blockNumber": "0x8f4e",
          "transactionHash": "0xf2bc9b9ccac472ad213323757a009e6850604e2ccd77b7eaf1c66723b04158a8",
          "transactionIndex": "0x0",
          "logIndex": "0x0",
          "removed": false
        },
        {
          "address": "0x3632f62d1625daf475552d2b06c4360e6bc7782c",
          "topics": [
            "0xbc7cd75a20ee27fd9adebab32041f755214dbc6bffa90cc0225b39da2e5c2d3b",
            "0x0000000000000000000000000a6a5fb8f0f5e31ab17fecaaa13fa3eeb9e907c9"
          ],
          "data": "0x",
          "blockHash": "0x732b7fe444166dbc2656817f90da6116cd9e0ea03ba1ddefa9bb95109b1fc651",
          "blockNumber": "0x8f4e",
          "transactionHash": "0xf2bc9b9ccac472ad213323757a009e6850604e2ccd77b7eaf1c66723b04158a8",
          "transactionIndex": "0x0",
          "logIndex": "0x1",
          "removed": false
        }
      ],
      "logsBloom": "0x00000000000000000000000000000000000000000000000000000000000000000000000000000000000000000000000000000000000000000000000000000000000000000000000000000000000000000000000000000000000000000000000000000000000000000000000000000000000000000000000000000000000000000000000000000000000000000000000000000000000000000000000000000000000000000000000000000000000000000000000000000000000000000000000000000000000000000000000000000000000000000000000000000000000000000000000000000000000000000000000000000000000000000000000000000000",
      "transactionHash": "0xf2bc9b9ccac472ad213323757a009e6850604e2ccd77b7eaf1c66723b04158a8",
      "transactionIndex": "0x0",
      "blockHash": "0x732b7fe444166dbc2656817f90da6116cd9e0ea03ba1ddefa9bb95109b1fc651",
      "blockNumber": "0x8f4e",
      "gasUsed": "0xa4d3",
      "effectiveGasPrice": "0xf4240",
      "from": "0xcc90553427e7848576eddaa27eb0720c70a01d7e",
      "to": null,
      "contractAddress": "0x3632f62d1625daf475552d2b06c4360e6bc7782c"
    },
    {
      "type": "0x2",
      "status": "0x1",
      "cumulativeGasUsed": "0x2540be400",
      "logs": [
        {
          "address": "0xfd68a8e35034c09bb0b3a60da126279337392402",
          "topics": [
            "0x9641a7dc63a7282918c5789e7a4ec53e7509f3ab9b80c05b7b22c403c3a62bcc",
            "0xa7855c40c8645ce5764ecc193316fc26d65093c553d5b3bd2a64c24400a14cc7",
            "0x0000000000000000000000000000000000000000000000000000000000000000",
            "0x0000000000000000000000003632f62d1625daf475552d2b06c4360e6bc7782c"
          ],
          "data": "0x",
          "blockHash": "0x2c9c843b666cc986e253085a316009e9903d7211178b6d700f0e0d4b7accd605",
          "blockNumber": "0x8f4f",
          "transactionHash": "0xf4542e3bfc02beaca6b8ac4ae114b21398bb16d51f9149990052ec165cf7e2d9",
          "transactionIndex": "0x0",
          "logIndex": "0x0",
          "removed": false
        }
      ],
      "logsBloom": "0x00000000000000000000000000000000000000000000000000000000000000000000000000000000000000000000000000000000000000000000000000000000000000000000000000000000000000000000000000000000000000000000000000000000000000000000000000000000000000000000000000000000000000000000000000000000000000000000000000000000000000000000000000000000000000000000000000000000000000000000000000000000000000000000000000000000000000000000000000000000000000000000000000000000000000000000000000000000000000000000000000000000000000000000000000000000",
      "transactionHash": "0xf4542e3bfc02beaca6b8ac4ae114b21398bb16d51f9149990052ec165cf7e2d9",
      "transactionIndex": "0x0",
      "blockHash": "0x2c9c843b666cc986e253085a316009e9903d7211178b6d700f0e0d4b7accd605",
      "blockNumber": "0x8f4f",
      "gasUsed": "0x217c",
      "effectiveGasPrice": "0xf4240",
      "from": "0xcc90553427e7848576eddaa27eb0720c70a01d7e",
      "to": "0xfd68a8e35034c09bb0b3a60da126279337392402",
      "contractAddress": null
    }
  ],
  "libraries": [],
  "pending": [],
  "returns": {},
  "timestamp": 1781778539483,
  "chain": 991,
  "commit": "cdfd364"
}