{
  "transactions": [
    {
      "hash": "0x2237d71dee0e367405d365e3985bdd5edcd7dec6eecfe331c38072277f8c0096",
      "transactionType": "CREATE",
      "contractName": "EmptyLogic",
      "contractAddress": "0x5403277d540f74cf430e900f50dddd4e8d51006a",
      "function": null,
      "arguments": null,
      "transaction": {
        "from": "0xcc90553427e7848576eddaa27eb0720c70a01d7e",
        "to": null,
        "gas": "0x1537e",
        "value": "0x0",
        "input": "0x6080604052348015600e575f5ffd5b50603e80601a5f395ff3fe60806040525f5ffdfea26469706673582212200580edd8bca1f61f234da091fa3602a7e6f262ed40390734fe693912882c8b2864736f6c63430008230033",
        "nonce": "0x46",
        "chainId": "0x3df"
      },
      "additionalContracts": [],
      "isFixedGasLimit": false
    },
    {
      "hash": "0xe44fda7bd2d4a298fb40a0892134bbd2391d5918bf97f4876c3d83194c058a53",
      "transactionType": "CREATE",
      "contractName": "UpgradeableBeacon",
      "contractAddress": "0x043af64e736646d95d6cfe9bcf3862a2c3dcef94",
      "function": null,
      "arguments": [
        "0x5403277D540F74Cf430e900f50DDdd4E8D51006A",
        "0xcC90553427e7848576eDDaa27EB0720c70a01D7E"
      ],
      "transaction": {
        "from": "0xcc90553427e7848576eddaa27eb0720c70a01d7e",
        "to": null,
        "gas": "0x7ad5b",
        "value": "0x0",
        "input": "0x608060405234801561000f575f5ffd5b50604051610823380380610823833981810160405281019061003191906102c8565b805f73ffffffffffffffffffffffffffffffffffffffff168173ffffffffffffffffffffffffffffffffffffffff16036100a2575f6040517f1e4fbdf70000000000000000000000000000000000000000000000000000000081526004016100999190610315565b60405180910390fd5b6100b1816100c860201b60201c565b506100c18261018960201b60201c565b505061032e565b5f5f5f9054906101000a900473ffffffffffffffffffffffffffffffffffffffff169050815f5f6101000a81548173ffffffffffffffffffffffffffffffffffffffff021916908373ffffffffffffffffffffffffffffffffffffffff1602179055508173ffffffffffffffffffffffffffffffffffffffff168173ffffffffffffffffffffffffffffffffffffffff167f8be0079c531659141344cd1fd0a4f28419497f9722a3daafe3b4186f6b6457e060405160405180910390a35050565b5f8173ffffffffffffffffffffffffffffffffffffffff163b036101e457806040517f847ac5640000000000000000000000000000000000000000000000000000000081526004016101db9190610315565b60405180910390fd5b8060015f6101000a81548173ffffffffffffffffffffffffffffffffffffffff021916908373ffffffffffffffffffffffffffffffffffffffff1602179055508073ffffffffffffffffffffffffffffffffffffffff167fbc7cd75a20ee27fd9adebab32041f755214dbc6bffa90cc0225b39da2e5c2d3b60405160405180910390a250565b5f5ffd5b5f73ffffffffffffffffffffffffffffffffffffffff82169050919050565b5f6102978261026e565b9050919050565b6102a78161028d565b81146102b1575f5ffd5b50565b5f815190506102c28161029e565b92915050565b5f5f604083850312156102de576102dd61026a565b5b5f6102eb858286016102b4565b92505060206102fc858286016102b4565b9150509250929050565b61030f8161028d565b82525050565b5f6020820190506103285f830184610306565b92915050565b6104e88061033b5f395ff3fe608060405234801561000f575f5ffd5b5060043610610055575f3560e01c80633659cfe6146100595780635c60da1b14610075578063715018a6146100935780638da5cb5b1461009d578063f2fde38b146100bb575b5f5ffd5b610073600480360381019061006e919061045f565b6100d7565b005b61007d6100eb565b60405161008a9190610499565b60405180910390f35b61009b610113565b005b6100a5610126565b6040516100b29190610499565b60405180910390f35b6100d560048036038101906100d0919061045f565b61014d565b005b6100df6101d1565b6100e881610258565b50565b5f60015f9054906101000a900473ffffffffffffffffffffffffffffffffffffffff16905090565b61011b6101d1565b6101245f610339565b565b5f5f5f9054906101000a900473ffffffffffffffffffffffffffffffffffffffff16905090565b6101556101d1565b5f73ffffffffffffffffffffffffffffffffffffffff168173ffffffffffffffffffffffffffffffffffffffff16036101c5575f6040517f1e4fbdf70000000000000000000000000000000000000000000000000000000081526004016101bc9190610499565b60405180910390fd5b6101ce81610339565b50565b6101d96103fa565b73ffffffffffffffffffffffffffffffffffffffff166101f7610126565b73ffffffffffffffffffffffffffffffffffffffff16146102565761021a6103fa565b6040517f118cdaa700000000000000000000000000000000000000000000000000000000815260040161024d9190610499565b60405180910390fd5b565b5f8173ffffffffffffffffffffffffffffffffffffffff163b036102b357806040517f847ac5640000000000000000000000000000000000000000000000000000000081526004016102aa9190610499565b60405180910390fd5b8060015f6101000a81548173ffffffffffffffffffffffffffffffffffffffff021916908373ffffffffffffffffffffffffffffffffffffffff1602179055508073ffffffffffffffffffffffffffffffffffffffff167fbc7cd75a20ee27fd9adebab32041f755214dbc6bffa90cc0225b39da2e5c2d3b60405160405180910390a250565b5f5f5f9054906101000a900473ffffffffffffffffffffffffffffffffffffffff169050815f5f6101000a81548173ffffffffffffffffffffffffffffffffffffffff021916908373ffffffffffffffffffffffffffffffffffffffff1602179055508173ffffffffffffffffffffffffffffffffffffffff168173ffffffffffffffffffffffffffffffffffffffff167f8be0079c531659141344cd1fd0a4f28419497f9722a3daafe3b4186f6b6457e060405160405180910390a35050565b5f33905090565b5f5ffd5b5f73ffffffffffffffffffffffffffffffffffffffff82169050919050565b5f61042e82610405565b9050919050565b61043e81610424565b8114610448575f5ffd5b50565b5f8135905061045981610435565b92915050565b5f6020828403121561047457610473610401565b5b5f6104818482850161044b565b91505092915050565b61049381610424565b82525050565b5f6020820190506104ac5f83018461048a565b9291505056fea26469706673582212203425d6f7fbaebdcdb24d9329623a9ca0e4740a7f92a905dc6fbffa72bd54d44064736f6c634300082300330000000000000000000000005403277d540f74cf430e900f50dddd4e8d51006a000000000000000000000000cc90553427e7848576eddaa27eb0720c70a01d7e",
        "nonce": "0x47",
        "chainId": "0x3df"
      },
      "additionalContracts": [],
      "isFixedGasLimit": false
    },
    {
      "hash": "0x3841d064f1854853328d82f09a0021a615d7385b686c455d73fd36a896bee60a",
      "transactionType": "CALL",
      "contractName": null,
      "contractAddress": "0xfd68a8e35034c09bb0b3a60da126279337392402",
      "function": "registerSubModule(bytes32,bytes32,address)",
      "arguments": [
        "0xacf1dcc98c83259b0b03819a24c0cc51e1b3a194194a9a3039f3bb86a17619fd",
        "0x0000000000000000000000000000000000000000000000000000000000000000",
        "0x043af64E736646d95D6cfe9bcf3862a2C3dceF94"
      ],
      "transaction": {
        "from": "0xcc90553427e7848576eddaa27eb0720c70a01d7e",
        "to": "0xfd68a8e35034c09bb0b3a60da126279337392402",
        "gas": "0x11896",
        "value": "0x0",
        "input": "0xad48810bacf1dcc98c83259b0b03819a24c0cc51e1b3a194194a9a3039f3bb86a17619fd0000000000000000000000000000000000000000000000000000000000000000000000000000000000000000043af64e736646d95d6cfe9bcf3862a2c3dcef94",
        "nonce": "0x48",
        "chainId": "0x3df"
      },
      "additionalContracts": [],
      "isFixedGasLimit": false
    },
    {
      "hash": "0x6a0bf546ab31af29c09e6584f70b7c8823b5e5e0c91a888edfb2953251893ea9",
      "transactionType": "CREATE",
      "contractName": "UpgradeableBeacon",
      "contractAddress": "0xe54a0241cd3c0563b1335c7db7c5c558b8b6a73e",
      "function": null,
      "arguments": [
        "0x5403277D540F74Cf430e900f50DDdd4E8D51006A",
        "0xcC90553427e7848576eDDaa27EB0720c70a01D7E"
      ],
      "transaction": {
        "from": "0xcc90553427e7848576eddaa27eb0720c70a01d7e",
        "to": null,
        "gas": "0x7ad5b",
        "value": "0x0",
        "input": "0x608060405234801561000f575f5ffd5b50604051610823380380610823833981810160405281019061003191906102c8565b805f73ffffffffffffffffffffffffffffffffffffffff168173ffffffffffffffffffffffffffffffffffffffff16036100a2575f6040517f1e4fbdf70000000000000000000000000000000000000000000000000000000081526004016100999190610315565b60405180910390fd5b6100b1816100c860201b60201c565b506100c18261018960201b60201c565b505061032e565b5f5f5f9054906101000a900473ffffffffffffffffffffffffffffffffffffffff169050815f5f6101000a81548173ffffffffffffffffffffffffffffffffffffffff021916908373ffffffffffffffffffffffffffffffffffffffff1602179055508173ffffffffffffffffffffffffffffffffffffffff168173ffffffffffffffffffffffffffffffffffffffff167f8be0079c531659141344cd1fd0a4f28419497f9722a3daafe3b4186f6b6457e060405160405180910390a35050565b5f8173ffffffffffffffffffffffffffffffffffffffff163b036101e457806040517f847ac5640000000000000000000000000000000000000000000000000000000081526004016101db9190610315565b60405180910390fd5b8060015f6101000a81548173ffffffffffffffffffffffffffffffffffffffff021916908373ffffffffffffffffffffffffffffffffffffffff1602179055508073ffffffffffffffffffffffffffffffffffffffff167fbc7cd75a20ee27fd9adebab32041f755214dbc6bffa90cc0225b39da2e5c2d3b60405160405180910390a250565b5f5ffd5b5f73ffffffffffffffffffffffffffffffffffffffff82169050919050565b5f6102978261026e565b9050919050565b6102a78161028d565b81146102b1575f5ffd5b50565b5f815190506102c28161029e565b92915050565b5f5f604083850312156102de576102dd61026a565b5b5f6102eb858286016102b4565b92505060206102fc858286016102b4565b9150509250929050565b61030f8161028d565b82525050565b5f6020820190506103285f830184610306565b92915050565b6104e88061033b5f395ff3fe608060405234801561000f575f5ffd5b5060043610610055575f3560e01c80633659cfe6146100595780635c60da1b14610075578063715018a6146100935780638da5cb5b1461009d578063f2fde38b146100bb575b5f5ffd5b610073600480360381019061006e919061045f565b6100d7565b005b61007d6100eb565b60405161008a9190610499565b60405180910390f35b61009b610113565b005b6100a5610126565b6040516100b29190610499565b60405180910390f35b6100d560048036038101906100d0919061045f565b61014d565b005b6100df6101d1565b6100e881610258565b50565b5f60015f9054906101000a900473ffffffffffffffffffffffffffffffffffffffff16905090565b61011b6101d1565b6101245f610339565b565b5f5f5f9054906101000a900473ffffffffffffffffffffffffffffffffffffffff16905090565b6101556101d1565b5f73ffffffffffffffffffffffffffffffffffffffff168173ffffffffffffffffffffffffffffffffffffffff16036101c5575f6040517f1e4fbdf70000000000000000000000000000000000000000000000000000000081526004016101bc9190610499565b60405180910390fd5b6101ce81610339565b50565b6101d96103fa565b73ffffffffffffffffffffffffffffffffffffffff166101f7610126565b73ffffffffffffffffffffffffffffffffffffffff16146102565761021a6103fa565b6040517f118cdaa700000000000000000000000000000000000000000000000000000000815260040161024d9190610499565b60405180910390fd5b565b5f8173ffffffffffffffffffffffffffffffffffffffff163b036102b357806040517f847ac5640000000000000000000000000000000000000000000000000000000081526004016102aa9190610499565b60405180910390fd5b8060015f6101000a81548173ffffffffffffffffffffffffffffffffffffffff021916908373ffffffffffffffffffffffffffffffffffffffff1602179055508073ffffffffffffffffffffffffffffffffffffffff167fbc7cd75a20ee27fd9adebab32041f755214dbc6bffa90cc0225b39da2e5c2d3b60405160405180910390a250565b5f5f5f9054906101000a900473ffffffffffffffffffffffffffffffffffffffff169050815f5f6101000a81548173ffffffffffffffffffffffffffffffffffffffff021916908373ffffffffffffffffffffffffffffffffffffffff1602179055508173ffffffffffffffffffffffffffffffffffffffff168173ffffffffffffffffffffffffffffffffffffffff167f8be0079c531659141344cd1fd0a4f28419497f9722a3daafe3b4186f6b6457e060405160405180910390a35050565b5f33905090565b5f5ffd5b5f73ffffffffffffffffffffffffffffffffffffffff82169050919050565b5f61042e82610405565b9050919050565b61043e81610424565b8114610448575f5ffd5b50565b5f8135905061045981610435565b92915050565b5f6020828403121561047457610473610401565b5b5f6104818482850161044b565b91505092915050565b61049381610424565b82525050565b5f6020820190506104ac5f83018461048a565b9291505056fea26469706673582212203425d6f7fbaebdcdb24d9329623a9ca0e4740a7f92a905dc6fbffa72bd54d44064736f6c634300082300330000000000000000000000005403277d540f74cf430e900f50dddd4e8d51006a000000000000000000000000cc90553427e7848576eddaa27eb0720c70a01d7e",
        "nonce": "0x49",
        "chainId": "0x3df"
      },
      "additionalContracts": [],
      "isFixedGasLimit": false
    },
    {
      "hash": "0x263684d1db98bc692dc5f3a536527b8d8346d6eb36ac1d0fbe7f6eb17cefaa96",
      "transactionType": "CALL",
      "contractName": null,
      "contractAddress": "0xfd68a8e35034c09bb0b3a60da126279337392402",
      "function": "registerSubModule(bytes32,bytes32,address)",
      "arguments": [
        "0xef25a28340e0dfeb4479e3cdeb1697cdeebbc6c7e86e06b53ae9a5f4cc6a69c5",
        "0x0000000000000000000000000000000000000000000000000000000000000000",
        "0xE54A0241Cd3C0563b1335C7DB7c5c558b8b6A73e"
      ],
      "transaction": {
        "from": "0xcc90553427e7848576eddaa27eb0720c70a01d7e",
        "to": "0xfd68a8e35034c09bb0b3a60da126279337392402",
        "gas": "0x11896",
        "value": "0x0",
        "input": "0xad48810bef25a28340e0dfeb4479e3cdeb1697cdeebbc6c7e86e06b53ae9a5f4cc6a69c50000000000000000000000000000000000000000000000000000000000000000000000000000000000000000e54a0241cd3c0563b1335c7db7c5c558b8b6a73e",
        "nonce": "0x4a",
        "chainId": "0x3df"
      },
      "additionalContracts": [],
      "isFixedGasLimit": false
    },
    {
      "hash": "0xc4bfcbf3f6cad0d9accd0774faefb7076126a54b971158604fb65e6da829a44a",
      "transactionType": "CREATE",
      "contractName": "UpgradeableBeacon",
      "contractAddress": "0xf526977015aec2b65d8ef8d3cdbe217db4093153",
      "function": null,
      "arguments": [
        "0x5403277D540F74Cf430e900f50DDdd4E8D51006A",
        "0xcC90553427e7848576eDDaa27EB0720c70a01D7E"
      ],
      "transaction": {
        "from": "0xcc90553427e7848576eddaa27eb0720c70a01d7e",
        "to": null,
        "gas": "0x7ad5b",
        "value": "0x0",
        "input": "0x608060405234801561000f575f5ffd5b50604051610823380380610823833981810160405281019061003191906102c8565b805f73ffffffffffffffffffffffffffffffffffffffff168173ffffffffffffffffffffffffffffffffffffffff16036100a2575f6040517f1e4fbdf70000000000000000000000000000000000000000000000000000000081526004016100999190610315565b60405180910390fd5b6100b1816100c860201b60201c565b506100c18261018960201b60201c565b505061032e565b5f5f5f9054906101000a900473ffffffffffffffffffffffffffffffffffffffff169050815f5f6101000a81548173ffffffffffffffffffffffffffffffffffffffff021916908373ffffffffffffffffffffffffffffffffffffffff1602179055508173ffffffffffffffffffffffffffffffffffffffff168173ffffffffffffffffffffffffffffffffffffffff167f8be0079c531659141344cd1fd0a4f28419497f9722a3daafe3b4186f6b6457e060405160405180910390a35050565b5f8173ffffffffffffffffffffffffffffffffffffffff163b036101e457806040517f847ac5640000000000000000000000000000000000000000000000000000000081526004016101db9190610315565b60405180910390fd5b8060015f6101000a81548173ffffffffffffffffffffffffffffffffffffffff021916908373ffffffffffffffffffffffffffffffffffffffff1602179055508073ffffffffffffffffffffffffffffffffffffffff167fbc7cd75a20ee27fd9adebab32041f755214dbc6bffa90cc0225b39da2e5c2d3b60405160405180910390a250565b5f5ffd5b5f73ffffffffffffffffffffffffffffffffffffffff82169050919050565b5f6102978261026e565b9050919050565b6102a78161028d565b81146102b1575f5ffd5b50565b5f815190506102c28161029e565b92915050565b5f5f604083850312156102de576102dd61026a565b5b5f6102eb858286016102b4565b92505060206102fc858286016102b4565b9150509250929050565b61030f8161028d565b82525050565b5f6020820190506103285f830184610306565b92915050565b6104e88061033b5f395ff3fe608060405234801561000f575f5ffd5b5060043610610055575f3560e01c80633659cfe6146100595780635c60da1b14610075578063715018a6146100935780638da5cb5b1461009d578063f2fde38b146100bb575b5f5ffd5b610073600480360381019061006e919061045f565b6100d7565b005b61007d6100eb565b60405161008a9190610499565b60405180910390f35b61009b610113565b005b6100a5610126565b6040516100b29190610499565b60405180910390f35b6100d560048036038101906100d0919061045f565b61014d565b005b6100df6101d1565b6100e881610258565b50565b5f60015f9054906101000a900473ffffffffffffffffffffffffffffffffffffffff16905090565b61011b6101d1565b6101245f610339565b565b5f5f5f9054906101000a900473ffffffffffffffffffffffffffffffffffffffff16905090565b6101556101d1565b5f73ffffffffffffffffffffffffffffffffffffffff168173ffffffffffffffffffffffffffffffffffffffff16036101c5575f6040517f1e4fbdf70000000000000000000000000000000000000000000000000000000081526004016101bc9190610499565b60405180910390fd5b6101ce81610339565b50565b6101d96103fa565b73ffffffffffffffffffffffffffffffffffffffff166101f7610126565b73ffffffffffffffffffffffffffffffffffffffff16146102565761021a6103fa565b6040517f118cdaa700000000000000000000000000000000000000000000000000000000815260040161024d9190610499565b60405180910390fd5b565b5f8173ffffffffffffffffffffffffffffffffffffffff163b036102b357806040517f847ac5640000000000000000000000000000000000000000000000000000000081526004016102aa9190610499565b60405180910390fd5b8060015f6101000a81548173ffffffffffffffffffffffffffffffffffffffff021916908373ffffffffffffffffffffffffffffffffffffffff1602179055508073ffffffffffffffffffffffffffffffffffffffff167fbc7cd75a20ee27fd9adebab32041f755214dbc6bffa90cc0225b39da2e5c2d3b60405160405180910390a250565b5f5f5f9054906101000a900473ffffffffffffffffffffffffffffffffffffffff169050815f5f6101000a81548173ffffffffffffffffffffffffffffffffffffffff021916908373ffffffffffffffffffffffffffffffffffffffff1602179055508173ffffffffffffffffffffffffffffffffffffffff168173ffffffffffffffffffffffffffffffffffffffff167f8be0079c531659141344cd1fd0a4f28419497f9722a3daafe3b4186f6b6457e060405160405180910390a35050565b5f33905090565b5f5ffd5b5f73ffffffffffffffffffffffffffffffffffffffff82169050919050565b5f61042e82610405565b9050919050565b61043e81610424565b8114610448575f5ffd5b50565b5f8135905061045981610435565b92915050565b5f6020828403121561047457610473610401565b5b5f6104818482850161044b565b91505092915050565b61049381610424565b82525050565b5f6020820190506104ac5f83018461048a565b9291505056fea26469706673582212203425d6f7fbaebdcdb24d9329623a9ca0e4740a7f92a905dc6fbffa72bd54d44064736f6c634300082300330000000000000000000000005403277d540f74cf430e900f50dddd4e8d51006a000000000000000000000000cc90553427e7848576eddaa27eb0720c70a01d7e",
        "nonce": "0x4b",
        "chainId": "0x3df"
      },
      "additionalContracts": [],
      "isFixedGasLimit": false
    },
    {
      "hash": "0x7a1b7009827048938da38287f63d24d626e67c62d29226070a5db5d4e8967010",
      "transactionType": "CALL",
      "contractName": null,
      "contractAddress": "0xfd68a8e35034c09bb0b3a60da126279337392402",
      "function": "registerSubModule(bytes32,bytes32,address)",
      "arguments": [
        "0xa7855c40c8645ce5764ecc193316fc26d65093c553d5b3bd2a64c24400a14cc7",
        "0x0000000000000000000000000000000000000000000000000000000000000000",
        "0xf526977015AeC2b65D8Ef8d3cDBe217db4093153"
      ],
      "transaction": {
        "from": "0xcc90553427e7848576eddaa27eb0720c70a01d7e",
        "to": "0xfd68a8e35034c09bb0b3a60da126279337392402",
        "gas": "0x108ee",
        "value": "0x0",
        "input": "0xad48810ba7855c40c8645ce5764ecc193316fc26d65093c553d5b3bd2a64c24400a14cc70000000000000000000000000000000000000000000000000000000000000000000000000000000000000000f526977015aec2b65d8ef8d3cdbe217db4093153",
        "nonce": "0x4c",
        "chainId": "0x3df"
      },
      "additionalContracts": [],
      "isFixedGasLimit": false
    }
  ],
  "receipts": [
    {
      "type": "0x2",
      "status": "0x1",
      "cumulativeGasUsed": "0x2540be400",
      "logs": [],
      "logsBloom": "0x00000000000000000000000000000000000000000000000000000000000000000000000000000000000000000000000000000000000000000000000000000000000000000000000000000000000000000000000000000000000000000000000000000000000000000000000000000000000000000000000000000000000000000000000000000000000000000000000000000000000000000000000000000000000000000000000000000000000000000000000000000000000000000000000000000000000000000000000000000000000000000000000000000000000000000000000000000000000000000000000000000000000000000000000000000000",
      "transactionHash": "0x2237d71dee0e367405d365e3985bdd5edcd7dec6eecfe331c38072277f8c0096",
      "transactionIndex": "0x0",
      "blockHash": "0x2a81ce1920ad8e4bad41c356c02846ce2d5507f3389ba25bc60edcc59fdd3e60",
      "blockNumber": "0x8f3f",
      "gasUsed": "0x8627",
      "effectiveGasPrice": "0xf4240",
      "from": "0xcc90553427e7848576eddaa27eb0720c70a01d7e",
      "to": null,
      "contractAddress": "0x5403277d540f74cf430e900f50dddd4e8d51006a"
    },
    {
      "type": "0x2",
      "status": "0x1",
      "cumulativeGasUsed": "0x2540be400",
      "logs": [
        {
          "address": "0x043af64e736646d95d6cfe9bcf3862a2c3dcef94",
          "topics": [
            "0x8be0079c531659141344cd1fd0a4f28419497f9722a3daafe3b4186f6b6457e0",
            "0x0000000000000000000000000000000000000000000000000000000000000000",
            "0x000000000000000000000000cc90553427e7848576eddaa27eb0720c70a01d7e"
          ],
          "data": "0x",
          "blockHash": "0x40c2323c514653e64e4824ade38a6d91e082ee574ff34b6f5625b808382a6c3f",
          "blockNumber": "0x8f40",
          "transactionHash": "0xe44fda7bd2d4a298fb40a0892134bbd2391d5918bf97f4876c3d83194c058a53",
          "transactionIndex": "0x0",
          "logIndex": "0x0",
          "removed": false
        },
        {
          "address": "0x043af64e736646d95d6cfe9bcf3862a2c3dcef94",
          "topics": [
            "0xbc7cd75a20ee27fd9adebab32041f755214dbc6bffa90cc0225b39da2e5c2d3b",
            "0x0000000000000000000000005403277d540f74cf430e900f50dddd4e8d51006a"
          ],
          "data": "0x",
          "blockHash": "0x40c2323c514653e64e4824ade38a6d91e082ee574ff34b6f5625b808382a6c3f",
          "blockNumber": "0x8f40",
          "transactionHash": "0xe44fda7bd2d4a298fb40a0892134bbd2391d5918bf97f4876c3d83194c058a53",
          "transactionIndex": "0x0",
          "logIndex": "0x1",
          "removed": false
        }
      ],
      "logsBloom": "0x00000000000000000000000000000000000000000000000000000000000000000000000000000000000000000000000000000000000000000000000000000000000000000000000000000000000000000000000000000000000000000000000000000000000000000000000000000000000000000000000000000000000000000000000000000000000000000000000000000000000000000000000000000000000000000000000000000000000000000000000000000000000000000000000000000000000000000000000000000000000000000000000000000000000000000000000000000000000000000000000000000000000000000000000000000000",
      "transactionHash": "0xe44fda7bd2d4a298fb40a0892134bbd2391d5918bf97f4876c3d83194c058a53",
      "transactionIndex": "0x0",
      "blockHash": "0x40c2323c514653e64e4824ade38a6d91e082ee574ff34b6f5625b808382a6c3f",
      "blockNumber": "0x8f40",
      "gasUsed": "0xa4d3",
      "effectiveGasPrice": "0xf4240",
      "from": "0xcc90553427e7848576eddaa27eb0720c70a01d7e",
      "to": null,
      "contractAddress": "0x043af64e736646d95d6cfe9bcf3862a2c3dcef94"
    },
    {
      "type": "0x2",
      "status": "0x1",
      "cumulativeGasUsed": "0x2540be400",
      "logs": [
        {
          "address": "0xfd68a8e35034c09bb0b3a60da126279337392402",
          "topics": [
            "0x9641a7dc63a7282918c5789e7a4ec53e7509f3ab9b80c05b7b22c403c3a62bcc",
            "0xacf1dcc98c83259b0b03819a24c0cc51e1b3a194194a9a3039f3bb86a17619fd",
            "0x0000000000000000000000000000000000000000000000000000000000000000",
            "0x000000000000000000000000043af64e736646d95d6cfe9bcf3862a2c3dcef94"
          ],
          "data": "0x",
          "blockHash": "0xa0830814418424fc485d26be6a82568773c32dd36d73bf9f7ea7067935b8abde",
          "blockNumber": "0x8f41",
          "transactionHash": "0x3841d064f1854853328d82f09a0021a615d7385b686c455d73fd36a896bee60a",
          "transactionIndex": "0x0",
          "logIndex": "0x0",
          "removed": false
        }
      ],
      "logsBloom": "0x00000000000000000000000000000000000000000000000000000000000000000000000000000000000000000000000000000000000000000000000000000000000000000000000000000000000000000000000000000000000000000000000000000000000000000000000000000000000000000000000000000000000000000000000000000000000000000000000000000000000000000000000000000000000000000000000000000000000000000000000000000000000000000000000000000000000000000000000000000000000000000000000000000000000000000000000000000000000000000000000000000000000000000000000000000000",
      "transactionHash": "0x3841d064f1854853328d82f09a0021a615d7385b686c455d73fd36a896bee60a",
      "transactionIndex": "0x0",
      "blockHash": "0xa0830814418424fc485d26be6a82568773c32dd36d73bf9f7ea7067935b8abde",
      "blockNumber": "0x8f41",
      "gasUsed": "0x217c",
      "effectiveGasPrice": "0xf4240",
      "from": "0xcc90553427e7848576eddaa27eb0720c70a01d7e",
      "to": "0xfd68a8e35034c09bb0b3a60da126279337392402",
      "contractAddress": null
    },
    {
      "type": "0x2",
      "status": "0x1",
      "cumulativeGasUsed": "0x2540be400",
      "logs": [
        {
          "address": "0xe54a0241cd3c0563b1335c7db7c5c558b8b6a73e",
          "topics": [
            "0x8be0079c531659141344cd1fd0a4f28419497f9722a3daafe3b4186f6b6457e0",
            "0x0000000000000000000000000000000000000000000000000000000000000000",
            "0x000000000000000000000000cc90553427e7848576eddaa27eb0720c70a01d7e"
          ],
          "data": "0x",
          "blockHash": "0x86b21f3172890a93a57091d07b5f3406fce912ec760df5e9e32ae51f109b7965",
          "blockNumber": "0x8f42",
          "transactionHash": "0x6a0bf546ab31af29c09e6584f70b7c8823b5e5e0c91a888edfb2953251893ea9",
          "transactionIndex": "0x0",
          "logIndex": "0x0",
          "removed": false
        },
        {
          "address": "0xe54a0241cd3c0563b1335c7db7c5c558b8b6a73e",
          "topics": [
            "0xbc7cd75a20ee27fd9adebab32041f755214dbc6bffa90cc0225b39da2e5c2d3b",
            "0x0000000000000000000000005403277d540f74cf430e900f50dddd4e8d51006a"
          ],
          "data": "0x",
          "blockHash": "0x86b21f3172890a93a57091d07b5f3406fce912ec760df5e9e32ae51f109b7965",
          "blockNumber": "0x8f42",
          "transactionHash": "0x6a0bf546ab31af29c09e6584f70b7c8823b5e5e0c91a888edfb2953251893ea9",
          "transactionIndex": "0x0",
          "logIndex": "0x1",
          "removed": false
        }
      ],
      "logsBloom": "0x00000000000000000000000000000000000000000000000000000000000000000000000000000000000000000000000000000000000000000000000000000000000000000000000000000000000000000000000000000000000000000000000000000000000000000000000000000000000000000000000000000000000000000000000000000000000000000000000000000000000000000000000000000000000000000000000000000000000000000000000000000000000000000000000000000000000000000000000000000000000000000000000000000000000000000000000000000000000000000000000000000000000000000000000000000000",
      "transactionHash": "0x6a0bf546ab31af29c09e6584f70b7c8823b5e5e0c91a888edfb2953251893ea9",
      "transactionIndex": "0x0",
      "blockHash": "0x86b21f3172890a93a57091d07b5f3406fce912ec760df5e9e32ae51f109b7965",
      "blockNumber": "0x8f42",
      "gasUsed": "0xa4d3",
      "effectiveGasPrice": "0xf4240",
      "from": "0xcc90553427e7848576eddaa27eb0720c70a01d7e",
      "to": null,
      "contractAddress": "0xe54a0241cd3c0563b1335c7db7c5c558b8b6a73e"
    },
    {
      "type": "0x2",
      "status": "0x1",
      "cumulativeGasUsed": "0x2540be400",
      "logs": [
        {
          "address": "0xfd68a8e35034c09bb0b3a60da126279337392402",
          "topics": [
            "0x9641a7dc63a7282918c5789e7a4ec53e7509f3ab9b80c05b7b22c403c3a62bcc",
            "0xef25a28340e0dfeb4479e3cdeb1697cdeebbc6c7e86e06b53ae9a5f4cc6a69c5",
            "0x0000000000000000000000000000000000000000000000000000000000000000",
            "0x000000000000000000000000e54a0241cd3c0563b1335c7db7c5c558b8b6a73e"
          ],
          "data": "0x",
          "blockHash": "0xea607af08782de103f5235e22eebea573386cde2661e6d708e2d40078e44a9ef",
          "blockNumber": "0x8f43",
          "transactionHash": "0x263684d1db98bc692dc5f3a536527b8d8346d6eb36ac1d0fbe7f6eb17cefaa96",
          "transactionIndex": "0x0",
          "logIndex": "0x0",
          "removed": false
        }
      ],
      "logsBloom": "0x00000000000000000000000000000000000000000000000000000000000000000000000000000000000000000000000000000000000000000000000000000000000000000000000000000000000000000000000000000000000000000000000000000000000000000000000000000000000000000000000000000000000000000000000000000000000000000000000000000000000000000000000000000000000000000000000000000000000000000000000000000000000000000000000000000000000000000000000000000000000000000000000000000000000000000000000000000000000000000000000000000000000000000000000000000000",
      "transactionHash": "0x263684d1db98bc692dc5f3a536527b8d8346d6eb36ac1d0fbe7f6eb17cefaa96",
      "transactionIndex": "0x0",
      "blockHash": "0xea607af08782de103f5235e22eebea573386cde2661e6d708e2d40078e44a9ef",
      "blockNumber": "0x8f43",
      "gasUsed": "0x217c",
      "effectiveGasPrice": "0xf4240",
      "from": "0xcc90553427e7848576eddaa27eb0720c70a01d7e",
      "to": "0xfd68a8e35034c09bb0b3a60da126279337392402",
      "contractAddress": null
    },
    {
      "type": "0x2",
      "status": "0x1",
      "cumulativeGasUsed": "0x2540be400",
      "logs": [
        {
          "address": "0xf526977015aec2b65d8ef8d3cdbe217db4093153",
          "topics": [
            "0x8be0079c531659141344cd1fd0a4f28419497f9722a3daafe3b4186f6b6457e0",
            "0x0000000000000000000000000000000000000000000000000000000000000000",
            "0x000000000000000000000000cc90553427e7848576eddaa27eb0720c70a01d7e"
          ],
          "data": "0x",
          "blockHash": "0xca8d053cd7b8e780347e1de1d0fafcb7c9a7e7bd8d941816ce844f2e93f7796a",
          "blockNumber": "0x8f44",
          "transactionHash": "0xc4bfcbf3f6cad0d9accd0774faefb7076126a54b971158604fb65e6da829a44a",
          "transactionIndex": "0x0",
          "logIndex": "0x0",
          "removed": false
        },
        {
          "address": "0xf526977015aec2b65d8ef8d3cdbe217db4093153",
          "topics": [
            "0xbc7cd75a20ee27fd9adebab32041f755214dbc6bffa90cc0225b39da2e5c2d3b",
            "0x0000000000000000000000005403277d540f74cf430e900f50dddd4e8d51006a"
          ],
          "data": "0x",
          "blockHash": "0xca8d053cd7b8e780347e1de1d0fafcb7c9a7e7bd8d941816ce844f2e93f7796a",
          "blockNumber": "0x8f44",
          "transactionHash": "0xc4bfcbf3f6cad0d9accd0774faefb7076126a54b971158604fb65e6da829a44a",
          "transactionIndex": "0x0",
          "logIndex": "0x1",
          "removed": false
        }
      ],
      "logsBloom": "0x00000000000000000000000000000000000000000000000000000000000000000000000000000000000000000000000000000000000000000000000000000000000000000000000000000000000000000000000000000000000000000000000000000000000000000000000000000000000000000000000000000000000000000000000000000000000000000000000000000000000000000000000000000000000000000000000000000000000000000000000000000000000000000000000000000000000000000000000000000000000000000000000000000000000000000000000000000000000000000000000000000000000000000000000000000000",
      "transactionHash": "0xc4bfcbf3f6cad0d9accd0774faefb7076126a54b971158604fb65e6da829a44a",
      "transactionIndex": "0x0",
      "blockHash": "0xca8d053cd7b8e780347e1de1d0fafcb7c9a7e7bd8d941816ce844f2e93f7796a",
      "blockNumber": "0x8f44",
      "gasUsed": "0xa4d3",
      "effectiveGasPrice": "0xf4240",
      "from": "0xcc90553427e7848576eddaa27eb0720c70a01d7e",
      "to": null,
      "contractAddress": "0xf526977015aec2b65d8ef8d3cdbe217db4093153"
    },
    {
      "type": "0x2",
      "status": "0x1",
      "cumulativeGasUsed": "0x2540be400",
      "logs": [
        {
          "address": "0xfd68a8e35034c09bb0b3a60da126279337392402",
          "topics": [
            "0x9641a7dc63a7282918c5789e7a4ec53e7509f3ab9b80c05b7b22c403c3a62bcc",
            "0xa7855c40c8645ce5764ecc193316fc26d65093c553d5b3bd2a64c24400a14cc7",
            "0x0000000000000000000000000000000000000000000000000000000000000000",
            "0x000000000000000000000000f526977015aec2b65d8ef8d3cdbe217db4093153"
          ],
          "data": "0x",
          "blockHash": "0x9b14d806281ccff84530edb5eeaef22b21234e502403327ce1c85d123a78e86f",
          "blockNumber": "0x8f45",
          "transactionHash": "0x7a1b7009827048938da38287f63d24d626e67c62d29226070a5db5d4e8967010",
          "transactionIndex": "0x0",
          "logIndex": "0x0",
          "removed": false
        }
      ],
      "logsBloom": "0x00000000000000000000000000000000000000000000000000000000000000000000000000000000000000000000000000000000000000000000000000000000000000000000000000000000000000000000000000000000000000000000000000000000000000000000000000000000000000000000000000000000000000000000000000000000000000000000000000000000000000000000000000000000000000000000000000000000000000000000000000000000000000000000000000000000000000000000000000000000000000000000000000000000000000000000000000000000000000000000000000000000000000000000000000000000",
      "transactionHash": "0x7a1b7009827048938da38287f63d24d626e67c62d29226070a5db5d4e8967010",
      "transactionIndex": "0x0",
      "blockHash": "0x9b14d806281ccff84530edb5eeaef22b21234e502403327ce1c85d123a78e86f",
      "blockNumber": "0x8f45",
      "gasUsed": "0x217c",
      "effectiveGasPrice": "0xf4240",
      "from": "0xcc90553427e7848576eddaa27eb0720c70a01d7e",
      "to": "0xfd68a8e35034c09bb0b3a60da126279337392402",
      "contractAddress": null
    }
  ],
  "libraries": [],
  "pending": [],
  "returns": {},
  "timestamp": 1781778454799,
  "chain": 991,
  "commit": "cdfd364"
}