{
  "transactions": [
    {
      "hash": "0x79b8798a10b7f30f3b052ff52a2a0b054da22a76f286c271d98e940a3b989424",
      "transactionType": "CREATE",
      "contractName": "EmptyLogic",
      "contractAddress": "0x0586678ac0d8227b8557a65eb194ef5873973756",
      "function": null,
      "arguments": null,
      "transaction": {
        "from": "0xcc90553427e7848576eddaa27eb0720c70a01d7e",
        "to": null,
        "gas": "0x1537e",
        "value": "0x0",
        "input": "0x6080604052348015600e575f5ffd5b50603e80601a5f395ff3fe60806040525f5ffdfea26469706673582212200580edd8bca1f61f234da091fa3602a7e6f262ed40390734fe693912882c8b2864736f6c63430008230033",
        "nonce": "0x38",
        "chainId": "0x3df"
      },
      "additionalContracts": [],
      "isFixedGasLimit": false
    },
    {
      "hash": "0x6370f81124269025578c76bc702acf2304a56d5c45472c2c73283cad28d7642b",
      "transactionType": "CREATE",
      "contractName": "UpgradeableBeacon",
      "contractAddress": "0x5a10c90c17ee374221b5b6a8a10591e80e6344d6",
      "function": null,
      "arguments": [
        "0x0586678Ac0D8227B8557a65Eb194eF5873973756",
        "0xcC90553427e7848576eDDaa27EB0720c70a01D7E"
      ],
      "transaction": {
        "from": "0xcc90553427e7848576eddaa27eb0720c70a01d7e",
        "to": null,
        "gas": "0x7ad6a",
        "value": "0x0",
        "input": "0x608060405234801561000f575f5ffd5b50604051610823380380610823833981810160405281019061003191906102c8565b805f73ffffffffffffffffffffffffffffffffffffffff168173ffffffffffffffffffffffffffffffffffffffff16036100a2575f6040517f1e4fbdf70000000000000000000000000000000000000000000000000000000081526004016100999190610315565b60405180910390fd5b6100b1816100c860201b60201c565b506100c18261018960201b60201c565b505061032e565b5f5f5f9054906101000a900473ffffffffffffffffffffffffffffffffffffffff169050815f5f6101000a81548173ffffffffffffffffffffffffffffffffffffffff021916908373ffffffffffffffffffffffffffffffffffffffff1602179055508173ffffffffffffffffffffffffffffffffffffffff168173ffffffffffffffffffffffffffffffffffffffff167f8be0079c531659141344cd1fd0a4f28419497f9722a3daafe3b4186f6b6457e060405160405180910390a35050565b5f8173ffffffffffffffffffffffffffffffffffffffff163b036101e457806040517f847ac5640000000000000000000000000000000000000000000000000000000081526004016101db9190610315565b60405180910390fd5b8060015f6101000a81548173ffffffffffffffffffffffffffffffffffffffff021916908373ffffffffffffffffffffffffffffffffffffffff1602179055508073ffffffffffffffffffffffffffffffffffffffff167fbc7cd75a20ee27fd9adebab32041f755214dbc6bffa90cc0225b39da2e5c2d3b60405160405180910390a250565b5f5ffd5b5f73ffffffffffffffffffffffffffffffffffffffff82169050919050565b5f6102978261026e565b9050919050565b6102a78161028d565b81146102b1575f5ffd5b50565b5f815190506102c28161029e565b92915050565b5f5f604083850312156102de576102dd61026a565b5b5f6102eb858286016102b4565b92505060206102fc858286016102b4565b9150509250929050565b61030f8161028d565b82525050565b5f6020820190506103285f830184610306565b92915050565b6104e88061033b5f395ff3fe608060405234801561000f575f5ffd5b5060043610610055575f3560e01c80633659cfe6146100595780635c60da1b14610075578063715018a6146100935780638da5cb5b1461009d578063f2fde38b146100bb575b5f5ffd5b610073600480360381019061006e919061045f565b6100d7565b005b61007d6100eb565b60405161008a9190610499565b60405180910390f35b61009b610113565b005b6100a5610126565b6040516100b29190610499565b60405180910390f35b6100d560048036038101906100d0919061045f565b61014d565b005b6100df6101d1565b6100e881610258565b50565b5f60015f9054906101000a900473ffffffffffffffffffffffffffffffffffffffff16905090565b61011b6101d1565b6101245f610339565b565b5f5f5f9054906101000a900473ffffffffffffffffffffffffffffffffffffffff16905090565b6101556101d1565b5f73ffffffffffffffffffffffffffffffffffffffff168173ffffffffffffffffffffffffffffffffffffffff16036101c5575f6040517f1e4fbdf70000000000000000000000000000000000000000000000000000000081526004016101bc9190610499565b60405180910390fd5b6101ce81610339565b50565b6101d96103fa565b73ffffffffffffffffffffffffffffffffffffffff166101f7610126565b73ffffffffffffffffffffffffffffffffffffffff16146102565761021a6103fa565b6040517f118cdaa700000000000000000000000000000000000000000000000000000000815260040161024d9190610499565b60405180910390fd5b565b5f8173ffffffffffffffffffffffffffffffffffffffff163b036102b357806040517f847ac5640000000000000000000000000000000000000000000000000000000081526004016102aa9190610499565b60405180910390fd5b8060015f6101000a81548173ffffffffffffffffffffffffffffffffffffffff021916908373ffffffffffffffffffffffffffffffffffffffff1602179055508073ffffffffffffffffffffffffffffffffffffffff167fbc7cd75a20ee27fd9adebab32041f755214dbc6bffa90cc0225b39da2e5c2d3b60405160405180910390a250565b5f5f5f9054906101000a900473ffffffffffffffffffffffffffffffffffffffff169050815f5f6101000a81548173ffffffffffffffffffffffffffffffffffffffff021916908373ffffffffffffffffffffffffffffffffffffffff1602179055508173ffffffffffffffffffffffffffffffffffffffff168173ffffffffffffffffffffffffffffffffffffffff167f8be0079c531659141344cd1fd0a4f28419497f9722a3daafe3b4186f6b6457e060405160405180910390a35050565b5f33905090565b5f5ffd5b5f73ffffffffffffffffffffffffffffffffffffffff82169050919050565b5f61042e82610405565b9050919050565b61043e81610424565b8114610448575f5ffd5b50565b5f8135905061045981610435565b92915050565b5f6020828403121561047457610473610401565b5b5f6104818482850161044b565b91505092915050565b61049381610424565b82525050565b5f6020820190506104ac5f83018461048a565b9291505056fea26469706673582212203425d6f7fbaebdcdb24d9329623a9ca0e4740a7f92a905dc6fbffa72bd54d44064736f6c634300082300330000000000000000000000000586678ac0d8227b8557a65eb194ef5873973756000000000000000000000000cc90553427e7848576eddaa27eb0720c70a01d7e",
        "nonce": "0x39",
        "chainId": "0x3df"
      },
      "additionalContracts": [],
      "isFixedGasLimit": false
    },
    {
      "hash": "0x98c5cca7f006c7749e045a28208f02eae735189144dcb7499543762353a00dc9",
      "transactionType": "CALL",
      "contractName": null,
      "contractAddress": "0xfd68a8e35034c09bb0b3a60da126279337392402",
      "function": "registerSubModule(bytes32,bytes32,address)",
      "arguments": [
        "0xacf1dcc98c83259b0b03819a24c0cc51e1b3a194194a9a3039f3bb86a17619fd",
        "0x0000000000000000000000000000000000000000000000000000000000000000",
        "0x5a10c90c17EE374221b5b6A8A10591E80E6344d6"
      ],
      "transaction": {
        "from": "0xcc90553427e7848576eddaa27eb0720c70a01d7e",
        "to": "0xfd68a8e35034c09bb0b3a60da126279337392402",
        "gas": "0x11896",
        "value": "0x0",
        "input": "0xad48810bacf1dcc98c83259b0b03819a24c0cc51e1b3a194194a9a3039f3bb86a17619fd00000000000000000000000000000000000000000000000000000000000000000000000000000000000000005a10c90c17ee374221b5b6a8a10591e80e6344d6",
        "nonce": "0x3a",
        "chainId": "0x3df"
      },
      "additionalContracts": [],
      "isFixedGasLimit": false
    },
    {
      "hash": "0xec686c250c129e59e1e056235e025a58c9f65ca81dfc99f7e945b18c05c4a243",
      "transactionType": "CREATE",
      "contractName": "UpgradeableBeacon",
      "contractAddress": "0xe9d098283edb2c2a71d2470f9c82d2a5fe6266ae",
      "function": null,
      "arguments": [
        "0x0586678Ac0D8227B8557a65Eb194eF5873973756",
        "0xcC90553427e7848576eDDaa27EB0720c70a01D7E"
      ],
      "transaction": {
        "from": "0xcc90553427e7848576eddaa27eb0720c70a01d7e",
        "to": null,
        "gas": "0x7ad6a",
        "value": "0x0",
        "input": "0x608060405234801561000f575f5ffd5b50604051610823380380610823833981810160405281019061003191906102c8565b805f73ffffffffffffffffffffffffffffffffffffffff168173ffffffffffffffffffffffffffffffffffffffff16036100a2575f6040517f1e4fbdf70000000000000000000000000000000000000000000000000000000081526004016100999190610315565b60405180910390fd5b6100b1816100c860201b60201c565b506100c18261018960201b60201c565b505061032e565b5f5f5f9054906101000a900473ffffffffffffffffffffffffffffffffffffffff169050815f5f6101000a81548173ffffffffffffffffffffffffffffffffffffffff021916908373ffffffffffffffffffffffffffffffffffffffff1602179055508173ffffffffffffffffffffffffffffffffffffffff168173ffffffffffffffffffffffffffffffffffffffff167f8be0079c531659141344cd1fd0a4f28419497f9722a3daafe3b4186f6b6457e060405160405180910390a35050565b5f8173ffffffffffffffffffffffffffffffffffffffff163b036101e457806040517f847ac5640000000000000000000000000000000000000000000000000000000081526004016101db9190610315565b60405180910390fd5b8060015f6101000a81548173ffffffffffffffffffffffffffffffffffffffff021916908373ffffffffffffffffffffffffffffffffffffffff1602179055508073ffffffffffffffffffffffffffffffffffffffff167fbc7cd75a20ee27fd9adebab32041f755214dbc6bffa90cc0225b39da2e5c2d3b60405160405180910390a250565b5f5ffd5b5f73ffffffffffffffffffffffffffffffffffffffff82169050919050565b5f6102978261026e565b9050919050565b6102a78161028d565b81146102b1575f5ffd5b50565b5f815190506102c28161029e565b92915050565b5f5f604083850312156102de576102dd61026a565b5b5f6102eb858286016102b4565b92505060206102fc858286016102b4565b9150509250929050565b61030f8161028d565b82525050565b5f6020820190506103285f830184610306565b92915050565b6104e88061033b5f395ff3fe608060405234801561000f575f5ffd5b5060043610610055575f3560e01c80633659cfe6146100595780635c60da1b14610075578063715018a6146100935780638da5cb5b1461009d578063f2fde38b146100bb575b5f5ffd5b610073600480360381019061006e919061045f565b6100d7565b005b61007d6100eb565b60405161008a9190610499565b60405180910390f35b61009b610113565b005b6100a5610126565b6040516100b29190610499565b60405180910390f35b6100d560048036038101906100d0919061045f565b61014d565b005b6100df6101d1565b6100e881610258565b50565b5f60015f9054906101000a900473ffffffffffffffffffffffffffffffffffffffff16905090565b61011b6101d1565b6101245f610339565b565b5f5f5f9054906101000a900473ffffffffffffffffffffffffffffffffffffffff16905090565b6101556101d1565b5f73ffffffffffffffffffffffffffffffffffffffff168173ffffffffffffffffffffffffffffffffffffffff16036101c5575f6040517f1e4fbdf70000000000000000000000000000000000000000000000000000000081526004016101bc9190610499565b60405180910390fd5b6101ce81610339565b50565b6101d96103fa565b73ffffffffffffffffffffffffffffffffffffffff166101f7610126565b73ffffffffffffffffffffffffffffffffffffffff16146102565761021a6103fa565b6040517f118cdaa700000000000000000000000000000000000000000000000000000000815260040161024d9190610499565b60405180910390fd5b565b5f8173ffffffffffffffffffffffffffffffffffffffff163b036102b357806040517f847ac5640000000000000000000000000000000000000000000000000000000081526004016102aa9190610499565b60405180910390fd5b8060015f6101000a81548173ffffffffffffffffffffffffffffffffffffffff021916908373ffffffffffffffffffffffffffffffffffffffff1602179055508073ffffffffffffffffffffffffffffffffffffffff167fbc7cd75a20ee27fd9adebab32041f755214dbc6bffa90cc0225b39da2e5c2d3b60405160405180910390a250565b5f5f5f9054906101000a900473ffffffffffffffffffffffffffffffffffffffff169050815f5f6101000a81548173ffffffffffffffffffffffffffffffffffffffff021916908373ffffffffffffffffffffffffffffffffffffffff1602179055508173ffffffffffffffffffffffffffffffffffffffff168173ffffffffffffffffffffffffffffffffffffffff167f8be0079c531659141344cd1fd0a4f28419497f9722a3daafe3b4186f6b6457e060405160405180910390a35050565b5f33905090565b5f5ffd5b5f73ffffffffffffffffffffffffffffffffffffffff82169050919050565b5f61042e82610405565b9050919050565b61043e81610424565b8114610448575f5ffd5b50565b5f8135905061045981610435565b92915050565b5f6020828403121561047457610473610401565b5b5f6104818482850161044b565b91505092915050565b61049381610424565b82525050565b5f6020820190506104ac5f83018461048a565b9291505056fea26469706673582212203425d6f7fbaebdcdb24d9329623a9ca0e4740a7f92a905dc6fbffa72bd54d44064736f6c634300082300330000000000000000000000000586678ac0d8227b8557a65eb194ef5873973756000000000000000000000000cc90553427e7848576eddaa27eb0720c70a01d7e",
        "nonce": "0x3b",
        "chainId": "0x3df"
      },
      "additionalContracts": [],
      "isFixedGasLimit": false
    },
    {
      "hash": "0x8961366ba0e7cd0e9c54ff7ec61007b2ee4deb40e613d3ac01b91daea0435488",
      "transactionType": "CALL",
      "contractName": null,
      "contractAddress": "0xfd68a8e35034c09bb0b3a60da126279337392402",
      "function": "registerSubModule(bytes32,bytes32,address)",
      "arguments": [
        "0xef25a28340e0dfeb4479e3cdeb1697cdeebbc6c7e86e06b53ae9a5f4cc6a69c5",
        "0x0000000000000000000000000000000000000000000000000000000000000000",
        "0xe9d098283edb2c2A71D2470F9c82d2a5Fe6266AE"
      ],
      "transaction": {
        "from": "0xcc90553427e7848576eddaa27eb0720c70a01d7e",
        "to": "0xfd68a8e35034c09bb0b3a60da126279337392402",
        "gas": "0x11896",
        "value": "0x0",
        "input": "0xad48810bef25a28340e0dfeb4479e3cdeb1697cdeebbc6c7e86e06b53ae9a5f4cc6a69c50000000000000000000000000000000000000000000000000000000000000000000000000000000000000000e9d098283edb2c2a71d2470f9c82d2a5fe6266ae",
        "nonce": "0x3c",
        "chainId": "0x3df"
      },
      "additionalContracts": [],
      "isFixedGasLimit": false
    },
    {
      "hash": "0x3ac7df5d78982e4240c0069b85cc57ff70c574c9d4574cfcf9435d02a22726b0",
      "transactionType": "CREATE",
      "contractName": "UpgradeableBeacon",
      "contractAddress": "0x6056e3cc054e306b8e0ed95fcdcb9c6ee4b03366",
      "function": null,
      "arguments": [
        "0x0586678Ac0D8227B8557a65Eb194eF5873973756",
        "0xcC90553427e7848576eDDaa27EB0720c70a01D7E"
      ],
      "transaction": {
        "from": "0xcc90553427e7848576eddaa27eb0720c70a01d7e",
        "to": null,
        "gas": "0x7ad6a",
        "value": "0x0",
        "input": "0x608060405234801561000f575f5ffd5b50604051610823380380610823833981810160405281019061003191906102c8565b805f73ffffffffffffffffffffffffffffffffffffffff168173ffffffffffffffffffffffffffffffffffffffff16036100a2575f6040517f1e4fbdf70000000000000000000000000000000000000000000000000000000081526004016100999190610315565b60405180910390fd5b6100b1816100c860201b60201c565b506100c18261018960201b60201c565b505061032e565b5f5f5f9054906101000a900473ffffffffffffffffffffffffffffffffffffffff169050815f5f6101000a81548173ffffffffffffffffffffffffffffffffffffffff021916908373ffffffffffffffffffffffffffffffffffffffff1602179055508173ffffffffffffffffffffffffffffffffffffffff168173ffffffffffffffffffffffffffffffffffffffff167f8be0079c531659141344cd1fd0a4f28419497f9722a3daafe3b4186f6b6457e060405160405180910390a35050565b5f8173ffffffffffffffffffffffffffffffffffffffff163b036101e457806040517f847ac5640000000000000000000000000000000000000000000000000000000081526004016101db9190610315565b60405180910390fd5b8060015f6101000a81548173ffffffffffffffffffffffffffffffffffffffff021916908373ffffffffffffffffffffffffffffffffffffffff1602179055508073ffffffffffffffffffffffffffffffffffffffff167fbc7cd75a20ee27fd9adebab32041f755214dbc6bffa90cc0225b39da2e5c2d3b60405160405180910390a250565b5f5ffd5b5f73ffffffffffffffffffffffffffffffffffffffff82169050919050565b5f6102978261026e565b9050919050565b6102a78161028d565b81146102b1575f5ffd5b50565b5f815190506102c28161029e565b92915050565b5f5f604083850312156102de576102dd61026a565b5b5f6102eb858286016102b4565b92505060206102fc858286016102b4565b9150509250929050565b61030f8161028d565b82525050565b5f6020820190506103285f830184610306565b92915050565b6104e88061033b5f395ff3fe608060405234801561000f575f5ffd5b5060043610610055575f3560e01c80633659cfe6146100595780635c60da1b14610075578063715018a6146100935780638da5cb5b1461009d578063f2fde38b146100bb575b5f5ffd5b610073600480360381019061006e919061045f565b6100d7565b005b61007d6100eb565b60405161008a9190610499565b60405180910390f35b61009b610113565b005b6100a5610126565b6040516100b29190610499565b60405180910390f35b6100d560048036038101906100d0919061045f565b61014d565b005b6100df6101d1565b6100e881610258565b50565b5f60015f9054906101000a900473ffffffffffffffffffffffffffffffffffffffff16905090565b61011b6101d1565b6101245f610339565b565b5f5f5f9054906101000a900473ffffffffffffffffffffffffffffffffffffffff16905090565b6101556101d1565b5f73ffffffffffffffffffffffffffffffffffffffff168173ffffffffffffffffffffffffffffffffffffffff16036101c5575f6040517f1e4fbdf70000000000000000000000000000000000000000000000000000000081526004016101bc9190610499565b60405180910390fd5b6101ce81610339565b50565b6101d96103fa565b73ffffffffffffffffffffffffffffffffffffffff166101f7610126565b73ffffffffffffffffffffffffffffffffffffffff16146102565761021a6103fa565b6040517f118cdaa700000000000000000000000000000000000000000000000000000000815260040161024d9190610499565b60405180910390fd5b565b5f8173ffffffffffffffffffffffffffffffffffffffff163b036102b357806040517f847ac5640000000000000000000000000000000000000000000000000000000081526004016102aa9190610499565b60405180910390fd5b8060015f6101000a81548173ffffffffffffffffffffffffffffffffffffffff021916908373ffffffffffffffffffffffffffffffffffffffff1602179055508073ffffffffffffffffffffffffffffffffffffffff167fbc7cd75a20ee27fd9adebab32041f755214dbc6bffa90cc0225b39da2e5c2d3b60405160405180910390a250565b5f5f5f9054906101000a900473ffffffffffffffffffffffffffffffffffffffff169050815f5f6101000a81548173ffffffffffffffffffffffffffffffffffffffff021916908373ffffffffffffffffffffffffffffffffffffffff1602179055508173ffffffffffffffffffffffffffffffffffffffff168173ffffffffffffffffffffffffffffffffffffffff167f8be0079c531659141344cd1fd0a4f28419497f9722a3daafe3b4186f6b6457e060405160405180910390a35050565b5f33905090565b5f5ffd5b5f73ffffffffffffffffffffffffffffffffffffffff82169050919050565b5f61042e82610405565b9050919050565b61043e81610424565b8114610448575f5ffd5b50565b5f8135905061045981610435565b92915050565b5f6020828403121561047457610473610401565b5b5f6104818482850161044b565b91505092915050565b61049381610424565b82525050565b5f6020820190506104ac5f83018461048a565b9291505056fea26469706673582212203425d6f7fbaebdcdb24d9329623a9ca0e4740a7f92a905dc6fbffa72bd54d44064736f6c634300082300330000000000000000000000000586678ac0d8227b8557a65eb194ef5873973756000000000000000000000000cc90553427e7848576eddaa27eb0720c70a01d7e",
        "nonce": "0x3d",
        "chainId": "0x3df"
      },
      "additionalContracts": [],
      "isFixedGasLimit": false
    },
    {
      "hash": "0xe1122d5cb66c84baf5ee9dc58eb39dc80b6e34bffe21541ddc6f3683e9cbcfc2",
      "transactionType": "CALL",
      "contractName": null,
      "contractAddress": "0xfd68a8e35034c09bb0b3a60da126279337392402",
      "function": "registerSubModule(bytes32,bytes32,address)",
      "arguments": [
        "0xa7855c40c8645ce5764ecc193316fc26d65093c553d5b3bd2a64c24400a14cc7",
        "0x0000000000000000000000000000000000000000000000000000000000000000",
        "0x6056E3cc054e306b8e0ED95fcDCb9c6eE4b03366"
      ],
      "transaction": {
        "from": "0xcc90553427e7848576eddaa27eb0720c70a01d7e",
        "to": "0xfd68a8e35034c09bb0b3a60da126279337392402",
        "gas": "0x108ee",
        "value": "0x0",
        "input": "0xad48810ba7855c40c8645ce5764ecc193316fc26d65093c553d5b3bd2a64c24400a14cc700000000000000000000000000000000000000000000000000000000000000000000000000000000000000006056e3cc054e306b8e0ed95fcdcb9c6ee4b03366",
        "nonce": "0x3e",
        "chainId": "0x3df"
      },
      "additionalContracts": [],
      "isFixedGasLimit": false
    }
  ],
  "receipts": [
    {
      "type": "0x2",
      "status": "0x1",
      "cumulativeGasUsed": "0x2540be400",
      "logs": [],
      "logsBloom": "0x00000000000000000000000000000000000000000000000000000000000000000000000000000000000000000000000000000000000000000000000000000000000000000000000000000000000000000000000000000000000000000000000000000000000000000000000000000000000000000000000000000000000000000000000000000000000000000000000000000000000000000000000000000000000000000000000000000000000000000000000000000000000000000000000000000000000000000000000000000000000000000000000000000000000000000000000000000000000000000000000000000000000000000000000000000000",
      "transactionHash": "0x79b8798a10b7f30f3b052ff52a2a0b054da22a76f286c271d98e940a3b989424",
      "transactionIndex": "0x0",
      "blockHash": "0x1e08130a1149c2f2517a1c9328fcdc2811a584c976b9db406450022ef4ba7313",
      "blockNumber": "0x8eae",
      "gasUsed": "0x8627",
      "effectiveGasPrice": "0xf4240",
      "from": "0xcc90553427e7848576eddaa27eb0720c70a01d7e",
      "to": null,
      "contractAddress": "0x0586678ac0d8227b8557a65eb194ef5873973756"
    },
    {
      "type": "0x2",
      "status": "0x1",
      "cumulativeGasUsed": "0x2540be400",
      "logs": [
        {
          "address": "0x5a10c90c17ee374221b5b6a8a10591e80e6344d6",
          "topics": [
            "0x8be0079c531659141344cd1fd0a4f28419497f9722a3daafe3b4186f6b6457e0",
            "0x0000000000000000000000000000000000000000000000000000000000000000",
            "0x000000000000000000000000cc90553427e7848576eddaa27eb0720c70a01d7e"
          ],
          "data": "0x",
          "blockHash": "0x8485150ff2d8f8b6e0b16bae9b14c1f5ef4976b66f6a38c16054dd99517b97ae",
          "blockNumber": "0x8eb2",
          "transactionHash": "0x6370f81124269025578c76bc702acf2304a56d5c45472c2c73283cad28d7642b",
          "transactionIndex": "0x0",
          "logIndex": "0x0",
          "removed": false
        },
        {
          "address": "0x5a10c90c17ee374221b5b6a8a10591e80e6344d6",
          "topics": [
            "0xbc7cd75a20ee27fd9adebab32041f755214dbc6bffa90cc0225b39da2e5c2d3b",
            "0x0000000000000000000000000586678ac0d8227b8557a65eb194ef5873973756"
          ],
          "data": "0x",
          "blockHash": "0x8485150ff2d8f8b6e0b16bae9b14c1f5ef4976b66f6a38c16054dd99517b97ae",
          "blockNumber": "0x8eb2",
          "transactionHash": "0x6370f81124269025578c76bc702acf2304a56d5c45472c2c73283cad28d7642b",
          "transactionIndex": "0x0",
          "logIndex": "0x1",
          "removed": false
        }
      ],
      "logsBloom": "0x00000000000000000000000000000000000000000000000000000000000000000000000000000000000000000000000000000000000000000000000000000000000000000000000000000000000000000000000000000000000000000000000000000000000000000000000000000000000000000000000000000000000000000000000000000000000000000000000000000000000000000000000000000000000000000000000000000000000000000000000000000000000000000000000000000000000000000000000000000000000000000000000000000000000000000000000000000000000000000000000000000000000000000000000000000000",
      "transactionHash": "0x6370f81124269025578c76bc702acf2304a56d5c45472c2c73283cad28d7642b",
      "transactionIndex": "0x0",
      "blockHash": "0x8485150ff2d8f8b6e0b16bae9b14c1f5ef4976b66f6a38c16054dd99517b97ae",
      "blockNumber": "0x8eb2",
      "gasUsed": "0xa4d3",
      "effectiveGasPrice": "0xf4240",
      "from": "0xcc90553427e7848576eddaa27eb0720c70a01d7e",
      "to": null,
      "contractAddress": "0x5a10c90c17ee374221b5b6a8a10591e80e6344d6"
    },
    {
      "type": "0x2",
      "status": "0x1",
      "cumulativeGasUsed": "0x2540be400",
      "logs": [
        {
          "address": "0xfd68a8e35034c09bb0b3a60da126279337392402",
          "topics": [
            "0x9641a7dc63a7282918c5789e7a4ec53e7509f3ab9b80c05b7b22c403c3a62bcc",
            "0xacf1dcc98c83259b0b03819a24c0cc51e1b3a194194a9a3039f3bb86a17619fd",
            "0x0000000000000000000000000000000000000000000000000000000000000000",
            "0x0000000000000000000000005a10c90c17ee374221b5b6a8a10591e80e6344d6"
          ],
          "data": "0x",
          "blockHash": "0xc02da6e2e001bf24c5218726cb0b8e3bf420c6fbb419569e761d5a222d6c045c",
          "blockNumber": "0x8eb3",
          "transactionHash": "0x98c5cca7f006c7749e045a28208f02eae735189144dcb7499543762353a00dc9",
          "transactionIndex": "0x0",
          "logIndex": "0x0",
          "removed": false
        }
      ],
      "logsBloom": "0x00000000000000000000000000000000000000000000000000000000000000000000000000000000000000000000000000000000000000000000000000000000000000000000000000000000000000000000000000000000000000000000000000000000000000000000000000000000000000000000000000000000000000000000000000000000000000000000000000000000000000000000000000000000000000000000000000000000000000000000000000000000000000000000000000000000000000000000000000000000000000000000000000000000000000000000000000000000000000000000000000000000000000000000000000000000",
      "transactionHash": "0x98c5cca7f006c7749e045a28208f02eae735189144dcb7499543762353a00dc9",
      "transactionIndex": "0x0",
      "blockHash": "0xc02da6e2e001bf24c5218726cb0b8e3bf420c6fbb419569e761d5a222d6c045c",
      "blockNumber": "0x8eb3",
      "gasUsed": "0x217c",
      "effectiveGasPrice": "0xf4240",
      "from": "0xcc90553427e7848576eddaa27eb0720c70a01d7e",
      "to": "0xfd68a8e35034c09bb0b3a60da126279337392402",
      "contractAddress": null
    },
    {
      "type": "0x2",
      "status": "0x1",
      "cumulativeGasUsed": "0x2540be400",
      "logs": [
        {
          "address": "0xe9d098283edb2c2a71d2470f9c82d2a5fe6266ae",
          "topics": [
            "0x8be0079c531659141344cd1fd0a4f28419497f9722a3daafe3b4186f6b6457e0",
            "0x0000000000000000000000000000000000000000000000000000000000000000",
            "0x000000000000000000000000cc90553427e7848576eddaa27eb0720c70a01d7e"
          ],
          "data": "0x",
          "blockHash": "0xe6811b78055bc18008f2464034c5b204ae6ed9d423621f2ac094739edc97f42a",
          "blockNumber": "0x8eb4",
          "transactionHash": "0xec686c250c129e59e1e056235e025a58c9f65ca81dfc99f7e945b18c05c4a243",
          "transactionIndex": "0x0",
          "logIndex": "0x0",
          "removed": false
        },
        {
          "address": "0xe9d098283edb2c2a71d2470f9c82d2a5fe6266ae",
          "topics": [
            "0xbc7cd75a20ee27fd9adebab32041f755214dbc6bffa90cc0225b39da2e5c2d3b",
            "0x0000000000000000000000000586678ac0d8227b8557a65eb194ef5873973756"
          ],
          "data": "0x",
          "blockHash": "0xe6811b78055bc18008f2464034c5b204ae6ed9d423621f2ac094739edc97f42a",
          "blockNumber": "0x8eb4",
          "transactionHash": "0xec686c250c129e59e1e056235e025a58c9f65ca81dfc99f7e945b18c05c4a243",
          "transactionIndex": "0x0",
          "logIndex": "0x1",
          "removed": false
        }
      ],
      "logsBloom": "0x00000000000000000000000000000000000000000000000000000000000000000000000000000000000000000000000000000000000000000000000000000000000000000000000000000000000000000000000000000000000000000000000000000000000000000000000000000000000000000000000000000000000000000000000000000000000000000000000000000000000000000000000000000000000000000000000000000000000000000000000000000000000000000000000000000000000000000000000000000000000000000000000000000000000000000000000000000000000000000000000000000000000000000000000000000000",
      "transactionHash": "0xec686c250c129e59e1e056235e025a58c9f65ca81dfc99f7e945b18c05c4a243",
      "transactionIndex": "0x0",
      "blockHash": "0xe6811b78055bc18008f2464034c5b204ae6ed9d423621f2ac094739edc97f42a",
      "blockNumber": "0x8eb4",
      "gasUsed": "0xa4d3",
      "effectiveGasPrice": "0xf4240",
      "from": "0xcc90553427e7848576eddaa27eb0720c70a01d7e",
      "to": null,
      "contractAddress": "0xe9d098283edb2c2a71d2470f9c82d2a5fe6266ae"
    },
    {
      "type": "0x2",
      "status": "0x1",
      "cumulativeGasUsed": "0x2540be400",
      "logs": [
        {
          "address": "0xfd68a8e35034c09bb0b3a60da126279337392402",
          "topics": [
            "0x9641a7dc63a7282918c5789e7a4ec53e7509f3ab9b80c05b7b22c403c3a62bcc",
            "0xef25a28340e0dfeb4479e3cdeb1697cdeebbc6c7e86e06b53ae9a5f4cc6a69c5",
            "0x0000000000000000000000000000000000000000000000000000000000000000",
            "0x000000000000000000000000e9d098283edb2c2a71d2470f9c82d2a5fe6266ae"
          ],
          "data": "0x",
          "blockHash": "0x61880eb2191532e5e93d8682e8cbbd7c92a70f94b34eed7fddba6fd218e66605",
          "blockNumber": "0x8eb5",
          "transactionHash": "0x8961366ba0e7cd0e9c54ff7ec61007b2ee4deb40e613d3ac01b91daea0435488",
          "transactionIndex": "0x0",
          "logIndex": "0x0",
          "removed": false
        }
      ],
      "logsBloom": "0x00000000000000000000000000000000000000000000000000000000000000000000000000000000000000000000000000000000000000000000000000000000000000000000000000000000000000000000000000000000000000000000000000000000000000000000000000000000000000000000000000000000000000000000000000000000000000000000000000000000000000000000000000000000000000000000000000000000000000000000000000000000000000000000000000000000000000000000000000000000000000000000000000000000000000000000000000000000000000000000000000000000000000000000000000000000",
      "transactionHash": "0x8961366ba0e7cd0e9c54ff7ec61007b2ee4deb40e613d3ac01b91daea0435488",
      "transactionIndex": "0x0",
      "blockHash": "0x61880eb2191532e5e93d8682e8cbbd7c92a70f94b34eed7fddba6fd218e66605",
      "blockNumber": "0x8eb5",
      "gasUsed": "0x217c",
      "effectiveGasPrice": "0xf4240",
      "from": "0xcc90553427e7848576eddaa27eb0720c70a01d7e",
      "to": "0xfd68a8e35034c09bb0b3a60da126279337392402",
      "contractAddress": null
    },
    {
      "type": "0x2",
      "status": "0x1",
      "cumulativeGasUsed": "0x2540be400",
      "logs": [
        {
          "address": "0x6056e3cc054e306b8e0ed95fcdcb9c6ee4b03366",
          "topics": [
            "0x8be0079c531659141344cd1fd0a4f28419497f9722a3daafe3b4186f6b6457e0",
            "0x0000000000000000000000000000000000000000000000000000000000000000",
            "0x000000000000000000000000cc90553427e7848576eddaa27eb0720c70a01d7e"
          ],
          "data": "0x",
          "blockHash": "0x92ec9a7eeb3187e2a1fe629cd11a4a2041d92f165f9d65217d80a9376a8401d4",
          "blockNumber": "0x8eb6",
          "transactionHash": "0x3ac7df5d78982e4240c0069b85cc57ff70c574c9d4574cfcf9435d02a22726b0",
          "transactionIndex": "0x0",
          "logIndex": "0x0",
          "removed": false
        },
        {
          "address": "0x6056e3cc054e306b8e0ed95fcdcb9c6ee4b03366",
          "topics": [
            "0xbc7cd75a20ee27fd9adebab32041f755214dbc6bffa90cc0225b39da2e5c2d3b",
            "0x0000000000000000000000000586678ac0d8227b8557a65eb194ef5873973756"
          ],
          "data": "0x",
          "blockHash": "0x92ec9a7eeb3187e2a1fe629cd11a4a2041d92f165f9d65217d80a9376a8401d4",
          "blockNumber": "0x8eb6",
          "transactionHash": "0x3ac7df5d78982e4240c0069b85cc57ff70c574c9d4574cfcf9435d02a22726b0",
          "transactionIndex": "0x0",
          "logIndex": "0x1",
          "removed": false
        }
      ],
      "logsBloom": "0x00000000000000000000000000000000000000000000000000000000000000000000000000000000000000000000000000000000000000000000000000000000000000000000000000000000000000000000000000000000000000000000000000000000000000000000000000000000000000000000000000000000000000000000000000000000000000000000000000000000000000000000000000000000000000000000000000000000000000000000000000000000000000000000000000000000000000000000000000000000000000000000000000000000000000000000000000000000000000000000000000000000000000000000000000000000",
      "transactionHash": "0x3ac7df5d78982e4240c0069b85cc57ff70c574c9d4574cfcf9435d02a22726b0",
      "transactionIndex": "0x0",
      "blockHash": "0x92ec9a7eeb3187e2a1fe629cd11a4a2041d92f165f9d65217d80a9376a8401d4",
      "blockNumber": "0x8eb6",
      "gasUsed": "0xa4d3",
      "effectiveGasPrice": "0xf4240",
      "from": "0xcc90553427e7848576eddaa27eb0720c70a01d7e",
      "to": null,
      "contractAddress": "0x6056e3cc054e306b8e0ed95fcdcb9c6ee4b03366"
    },
    {
      "type": "0x2",
      "status": "0x1",
      "cumulativeGasUsed": "0x2540be400",
      "logs": [
        {
          "address": "0xfd68a8e35034c09bb0b3a60da126279337392402",
          "topics": [
            "0x9641a7dc63a7282918c5789e7a4ec53e7509f3ab9b80c05b7b22c403c3a62bcc",
            "0xa7855c40c8645ce5764ecc193316fc26d65093c553d5b3bd2a64c24400a14cc7",
            "0x0000000000000000000000000000000000000000000000000000000000000000",
            "0x0000000000000000000000006056e3cc054e306b8e0ed95fcdcb9c6ee4b03366"
          ],
          "data": "0x",
          "blockHash": "0x306acbfd9bba23d0addeb7d5faaf2ee3def0e9a0bf026ed0d455a4eeb6bad7ca",
          "blockNumber": "0x8eb7",
          "transactionHash": "0xe1122d5cb66c84baf5ee9dc58eb39dc80b6e34bffe21541ddc6f3683e9cbcfc2",
          "transactionIndex": "0x0",
          "logIndex": "0x0",
          "removed": false
        }
      ],
      "logsBloom": "0x00000000000000000000000000000000000000000000000000000000000000000000000000000000000000000000000000000000000000000000000000000000000000000000000000000000000000000000000000000000000000000000000000000000000000000000000000000000000000000000000000000000000000000000000000000000000000000000000000000000000000000000000000000000000000000000000000000000000000000000000000000000000000000000000000000000000000000000000000000000000000000000000000000000000000000000000000000000000000000000000000000000000000000000000000000000",
      "transactionHash": "0xe1122d5cb66c84baf5ee9dc58eb39dc80b6e34bffe21541ddc6f3683e9cbcfc2",
      "transactionIndex": "0x0",
      "blockHash": "0x306acbfd9bba23d0addeb7d5faaf2ee3def0e9a0bf026ed0d455a4eeb6bad7ca",
      "blockNumber": "0x8eb7",
      "gasUsed": "0x217c",
      "effectiveGasPrice": "0xf4240",
      "from": "0xcc90553427e7848576eddaa27eb0720c70a01d7e",
      "to": "0xfd68a8e35034c09bb0b3a60da126279337392402",
      "contractAddress": null
    }
  ],
  "libraries": [],
  "pending": [],
  "returns": {},
  "timestamp": 1781777694065,
  "chain": 991,
  "commit": "cdfd364"
}