{
  "transactions": [
    {
      "hash": "0x594ba2a4320331574c67afa0db64c2898f6e7f9b38c6ca5575358c1fad27570c",
      "transactionType": "CREATE",
      "contractName": "EmptyLogic",
      "contractAddress": "0xac7aa4d28c22cba16971fede005947aca674e102",
      "function": null,
      "arguments": null,
      "transaction": {
        "from": "0xcc90553427e7848576eddaa27eb0720c70a01d7e",
        "to": null,
        "gas": "0x1537e",
        "value": "0x0",
        "input": "0x6080604052348015600e575f5ffd5b50603e80601a5f395ff3fe60806040525f5ffdfea26469706673582212200580edd8bca1f61f234da091fa3602a7e6f262ed40390734fe693912882c8b2864736f6c63430008230033",
        "nonce": "0x5b",
        "chainId": "0x3df"
      },
      "additionalContracts": [],
      "isFixedGasLimit": false
    },
    {
      "hash": "0x33991f1d5d3c98dcea8939b4bd5ca2636656740d50acf418755566f410f55ba6",
      "transactionType": "CREATE",
      "contractName": "UpgradeableBeacon",
      "contractAddress": "0xae0be002fdfe42a089c2149ec52fd577e3a37a11",
      "function": null,
      "arguments": [
        "0xac7AA4D28C22cbA16971FEdE005947AcA674e102",
        "0xcC90553427e7848576eDDaa27EB0720c70a01D7E"
      ],
      "transaction": {
        "from": "0xcc90553427e7848576eddaa27eb0720c70a01d7e",
        "to": null,
        "gas": "0x7ad5b",
        "value": "0x0",
        "input": "0x608060405234801561000f575f5ffd5b50604051610823380380610823833981810160405281019061003191906102c8565b805f73ffffffffffffffffffffffffffffffffffffffff168173ffffffffffffffffffffffffffffffffffffffff16036100a2575f6040517f1e4fbdf70000000000000000000000000000000000000000000000000000000081526004016100999190610315565b60405180910390fd5b6100b1816100c860201b60201c565b506100c18261018960201b60201c565b505061032e565b5f5f5f9054906101000a900473ffffffffffffffffffffffffffffffffffffffff169050815f5f6101000a81548173ffffffffffffffffffffffffffffffffffffffff021916908373ffffffffffffffffffffffffffffffffffffffff1602179055508173ffffffffffffffffffffffffffffffffffffffff168173ffffffffffffffffffffffffffffffffffffffff167f8be0079c531659141344cd1fd0a4f28419497f9722a3daafe3b4186f6b6457e060405160405180910390a35050565b5f8173ffffffffffffffffffffffffffffffffffffffff163b036101e457806040517f847ac5640000000000000000000000000000000000000000000000000000000081526004016101db9190610315565b60405180910390fd5b8060015f6101000a81548173ffffffffffffffffffffffffffffffffffffffff021916908373ffffffffffffffffffffffffffffffffffffffff1602179055508073ffffffffffffffffffffffffffffffffffffffff167fbc7cd75a20ee27fd9adebab32041f755214dbc6bffa90cc0225b39da2e5c2d3b60405160405180910390a250565b5f5ffd5b5f73ffffffffffffffffffffffffffffffffffffffff82169050919050565b5f6102978261026e565b9050919050565b6102a78161028d565b81146102b1575f5ffd5b50565b5f815190506102c28161029e565b92915050565b5f5f604083850312156102de576102dd61026a565b5b5f6102eb858286016102b4565b92505060206102fc858286016102b4565b9150509250929050565b61030f8161028d565b82525050565b5f6020820190506103285f830184610306565b92915050565b6104e88061033b5f395ff3fe608060405234801561000f575f5ffd5b5060043610610055575f3560e01c80633659cfe6146100595780635c60da1b14610075578063715018a6146100935780638da5cb5b1461009d578063f2fde38b146100bb575b5f5ffd5b610073600480360381019061006e919061045f565b6100d7565b005b61007d6100eb565b60405161008a9190610499565b60405180910390f35b61009b610113565b005b6100a5610126565b6040516100b29190610499565b60405180910390f35b6100d560048036038101906100d0919061045f565b61014d565b005b6100df6101d1565b6100e881610258565b50565b5f60015f9054906101000a900473ffffffffffffffffffffffffffffffffffffffff16905090565b61011b6101d1565b6101245f610339565b565b5f5f5f9054906101000a900473ffffffffffffffffffffffffffffffffffffffff16905090565b6101556101d1565b5f73ffffffffffffffffffffffffffffffffffffffff168173ffffffffffffffffffffffffffffffffffffffff16036101c5575f6040517f1e4fbdf70000000000000000000000000000000000000000000000000000000081526004016101bc9190610499565b60405180910390fd5b6101ce81610339565b50565b6101d96103fa565b73ffffffffffffffffffffffffffffffffffffffff166101f7610126565b73ffffffffffffffffffffffffffffffffffffffff16146102565761021a6103fa565b6040517f118cdaa700000000000000000000000000000000000000000000000000000000815260040161024d9190610499565b60405180910390fd5b565b5f8173ffffffffffffffffffffffffffffffffffffffff163b036102b357806040517f847ac5640000000000000000000000000000000000000000000000000000000081526004016102aa9190610499565b60405180910390fd5b8060015f6101000a81548173ffffffffffffffffffffffffffffffffffffffff021916908373ffffffffffffffffffffffffffffffffffffffff1602179055508073ffffffffffffffffffffffffffffffffffffffff167fbc7cd75a20ee27fd9adebab32041f755214dbc6bffa90cc0225b39da2e5c2d3b60405160405180910390a250565b5f5f5f9054906101000a900473ffffffffffffffffffffffffffffffffffffffff169050815f5f6101000a81548173ffffffffffffffffffffffffffffffffffffffff021916908373ffffffffffffffffffffffffffffffffffffffff1602179055508173ffffffffffffffffffffffffffffffffffffffff168173ffffffffffffffffffffffffffffffffffffffff167f8be0079c531659141344cd1fd0a4f28419497f9722a3daafe3b4186f6b6457e060405160405180910390a35050565b5f33905090565b5f5ffd5b5f73ffffffffffffffffffffffffffffffffffffffff82169050919050565b5f61042e82610405565b9050919050565b61043e81610424565b8114610448575f5ffd5b50565b5f8135905061045981610435565b92915050565b5f6020828403121561047457610473610401565b5b5f6104818482850161044b565b91505092915050565b61049381610424565b82525050565b5f6020820190506104ac5f83018461048a565b9291505056fea26469706673582212203425d6f7fbaebdcdb24d9329623a9ca0e4740a7f92a905dc6fbffa72bd54d44064736f6c63430008230033000000000000000000000000ac7aa4d28c22cba16971fede005947aca674e102000000000000000000000000cc90553427e7848576eddaa27eb0720c70a01d7e",
        "nonce": "0x5c",
        "chainId": "0x3df"
      },
      "additionalContracts": [],
      "isFixedGasLimit": false
    },
    {
      "hash": "0x88cb908d1dab4cad9d60164735efc12a42cdb53747760fb38fdc7483cabd6a8b",
      "transactionType": "CALL",
      "contractName": null,
      "contractAddress": "0xfd68a8e35034c09bb0b3a60da126279337392402",
      "function": "registerSubModule(bytes32,bytes32,address)",
      "arguments": [
        "0xacf1dcc98c83259b0b03819a24c0cc51e1b3a194194a9a3039f3bb86a17619fd",
        "0x0000000000000000000000000000000000000000000000000000000000000000",
        "0xAE0Be002fdfe42A089c2149EC52fD577E3A37A11"
      ],
      "transaction": {
        "from": "0xcc90553427e7848576eddaa27eb0720c70a01d7e",
        "to": "0xfd68a8e35034c09bb0b3a60da126279337392402",
        "gas": "0x11896",
        "value": "0x0",
        "input": "0xad48810bacf1dcc98c83259b0b03819a24c0cc51e1b3a194194a9a3039f3bb86a17619fd0000000000000000000000000000000000000000000000000000000000000000000000000000000000000000ae0be002fdfe42a089c2149ec52fd577e3a37a11",
        "nonce": "0x5d",
        "chainId": "0x3df"
      },
      "additionalContracts": [],
      "isFixedGasLimit": false
    },
    {
      "hash": "0x0a6d625156e90de70f8668459fb344820d48423b84e1672e28d1403c6dfba67a",
      "transactionType": "CREATE",
      "contractName": "UpgradeableBeacon",
      "contractAddress": "0xd5e22916ecd4edb2d066275fd4464af932bba330",
      "function": null,
      "arguments": [
        "0xac7AA4D28C22cbA16971FEdE005947AcA674e102",
        "0xcC90553427e7848576eDDaa27EB0720c70a01D7E"
      ],
      "transaction": {
        "from": "0xcc90553427e7848576eddaa27eb0720c70a01d7e",
        "to": null,
        "gas": "0x7ad5b",
        "value": "0x0",
        "input": "0x608060405234801561000f575f5ffd5b50604051610823380380610823833981810160405281019061003191906102c8565b805f73ffffffffffffffffffffffffffffffffffffffff168173ffffffffffffffffffffffffffffffffffffffff16036100a2575f6040517f1e4fbdf70000000000000000000000000000000000000000000000000000000081526004016100999190610315565b60405180910390fd5b6100b1816100c860201b60201c565b506100c18261018960201b60201c565b505061032e565b5f5f5f9054906101000a900473ffffffffffffffffffffffffffffffffffffffff169050815f5f6101000a81548173ffffffffffffffffffffffffffffffffffffffff021916908373ffffffffffffffffffffffffffffffffffffffff1602179055508173ffffffffffffffffffffffffffffffffffffffff168173ffffffffffffffffffffffffffffffffffffffff167f8be0079c531659141344cd1fd0a4f28419497f9722a3daafe3b4186f6b6457e060405160405180910390a35050565b5f8173ffffffffffffffffffffffffffffffffffffffff163b036101e457806040517f847ac5640000000000000000000000000000000000000000000000000000000081526004016101db9190610315565b60405180910390fd5b8060015f6101000a81548173ffffffffffffffffffffffffffffffffffffffff021916908373ffffffffffffffffffffffffffffffffffffffff1602179055508073ffffffffffffffffffffffffffffffffffffffff167fbc7cd75a20ee27fd9adebab32041f755214dbc6bffa90cc0225b39da2e5c2d3b60405160405180910390a250565b5f5ffd5b5f73ffffffffffffffffffffffffffffffffffffffff82169050919050565b5f6102978261026e565b9050919050565b6102a78161028d565b81146102b1575f5ffd5b50565b5f815190506102c28161029e565b92915050565b5f5f604083850312156102de576102dd61026a565b5b5f6102eb858286016102b4565b92505060206102fc858286016102b4565b9150509250929050565b61030f8161028d565b82525050565b5f6020820190506103285f830184610306565b92915050565b6104e88061033b5f395ff3fe608060405234801561000f575f5ffd5b5060043610610055575f3560e01c80633659cfe6146100595780635c60da1b14610075578063715018a6146100935780638da5cb5b1461009d578063f2fde38b146100bb575b5f5ffd5b610073600480360381019061006e919061045f565b6100d7565b005b61007d6100eb565b60405161008a9190610499565b60405180910390f35b61009b610113565b005b6100a5610126565b6040516100b29190610499565b60405180910390f35b6100d560048036038101906100d0919061045f565b61014d565b005b6100df6101d1565b6100e881610258565b50565b5f60015f9054906101000a900473ffffffffffffffffffffffffffffffffffffffff16905090565b61011b6101d1565b6101245f610339565b565b5f5f5f9054906101000a900473ffffffffffffffffffffffffffffffffffffffff16905090565b6101556101d1565b5f73ffffffffffffffffffffffffffffffffffffffff168173ffffffffffffffffffffffffffffffffffffffff16036101c5575f6040517f1e4fbdf70000000000000000000000000000000000000000000000000000000081526004016101bc9190610499565b60405180910390fd5b6101ce81610339565b50565b6101d96103fa565b73ffffffffffffffffffffffffffffffffffffffff166101f7610126565b73ffffffffffffffffffffffffffffffffffffffff16146102565761021a6103fa565b6040517f118cdaa700000000000000000000000000000000000000000000000000000000815260040161024d9190610499565b60405180910390fd5b565b5f8173ffffffffffffffffffffffffffffffffffffffff163b036102b357806040517f847ac5640000000000000000000000000000000000000000000000000000000081526004016102aa9190610499565b60405180910390fd5b8060015f6101000a81548173ffffffffffffffffffffffffffffffffffffffff021916908373ffffffffffffffffffffffffffffffffffffffff1602179055508073ffffffffffffffffffffffffffffffffffffffff167fbc7cd75a20ee27fd9adebab32041f755214dbc6bffa90cc0225b39da2e5c2d3b60405160405180910390a250565b5f5f5f9054906101000a900473ffffffffffffffffffffffffffffffffffffffff169050815f5f6101000a81548173ffffffffffffffffffffffffffffffffffffffff021916908373ffffffffffffffffffffffffffffffffffffffff1602179055508173ffffffffffffffffffffffffffffffffffffffff168173ffffffffffffffffffffffffffffffffffffffff167f8be0079c531659141344cd1fd0a4f28419497f9722a3daafe3b4186f6b6457e060405160405180910390a35050565b5f33905090565b5f5ffd5b5f73ffffffffffffffffffffffffffffffffffffffff82169050919050565b5f61042e82610405565b9050919050565b61043e81610424565b8114610448575f5ffd5b50565b5f8135905061045981610435565b92915050565b5f6020828403121561047457610473610401565b5b5f6104818482850161044b565b91505092915050565b61049381610424565b82525050565b5f6020820190506104ac5f83018461048a565b9291505056fea26469706673582212203425d6f7fbaebdcdb24d9329623a9ca0e4740a7f92a905dc6fbffa72bd54d44064736f6c63430008230033000000000000000000000000ac7aa4d28c22cba16971fede005947aca674e102000000000000000000000000cc90553427e7848576eddaa27eb0720c70a01d7e",
        "nonce": "0x5e",
        "chainId": "0x3df"
      },
      "additionalContracts": [],
      "isFixedGasLimit": false
    },
    {
      "hash": "0x58610abf78c5e00c9c9b5b96796418a23ecc2ee7f476e1213c0818c8574fde45",
      "transactionType": "CALL",
      "contractName": null,
      "contractAddress": "0xfd68a8e35034c09bb0b3a60da126279337392402",
      "function": "registerSubModule(bytes32,bytes32,address)",
      "arguments": [
        "0xef25a28340e0dfeb4479e3cdeb1697cdeebbc6c7e86e06b53ae9a5f4cc6a69c5",
        "0x0000000000000000000000000000000000000000000000000000000000000000",
        "0xd5E22916ECD4eDB2D066275fD4464AF932BbA330"
      ],
      "transaction": {
        "from": "0xcc90553427e7848576eddaa27eb0720c70a01d7e",
        "to": "0xfd68a8e35034c09bb0b3a60da126279337392402",
        "gas": "0x11896",
        "value": "0x0",
        "input": "0xad48810bef25a28340e0dfeb4479e3cdeb1697cdeebbc6c7e86e06b53ae9a5f4cc6a69c50000000000000000000000000000000000000000000000000000000000000000000000000000000000000000d5e22916ecd4edb2d066275fd4464af932bba330",
        "nonce": "0x5f",
        "chainId": "0x3df"
      },
      "additionalContracts": [],
      "isFixedGasLimit": false
    },
    {
      "hash": "0xf74cfb17a4d6963a4cc267fb20c9df50f813a50c8e7c72c29160621715aa81fd",
      "transactionType": "CREATE",
      "contractName": "UpgradeableBeacon",
      "contractAddress": "0x067fcce172045b029377cafc7c90370c57bb0186",
      "function": null,
      "arguments": [
        "0xac7AA4D28C22cbA16971FEdE005947AcA674e102",
        "0xcC90553427e7848576eDDaa27EB0720c70a01D7E"
      ],
      "transaction": {
        "from": "0xcc90553427e7848576eddaa27eb0720c70a01d7e",
        "to": null,
        "gas": "0x7ad5b",
        "value": "0x0",
        "input": "0x608060405234801561000f575f5ffd5b50604051610823380380610823833981810160405281019061003191906102c8565b805f73ffffffffffffffffffffffffffffffffffffffff168173ffffffffffffffffffffffffffffffffffffffff16036100a2575f6040517f1e4fbdf70000000000000000000000000000000000000000000000000000000081526004016100999190610315565b60405180910390fd5b6100b1816100c860201b60201c565b506100c18261018960201b60201c565b505061032e565b5f5f5f9054906101000a900473ffffffffffffffffffffffffffffffffffffffff169050815f5f6101000a81548173ffffffffffffffffffffffffffffffffffffffff021916908373ffffffffffffffffffffffffffffffffffffffff1602179055508173ffffffffffffffffffffffffffffffffffffffff168173ffffffffffffffffffffffffffffffffffffffff167f8be0079c531659141344cd1fd0a4f28419497f9722a3daafe3b4186f6b6457e060405160405180910390a35050565b5f8173ffffffffffffffffffffffffffffffffffffffff163b036101e457806040517f847ac5640000000000000000000000000000000000000000000000000000000081526004016101db9190610315565b60405180910390fd5b8060015f6101000a81548173ffffffffffffffffffffffffffffffffffffffff021916908373ffffffffffffffffffffffffffffffffffffffff1602179055508073ffffffffffffffffffffffffffffffffffffffff167fbc7cd75a20ee27fd9adebab32041f755214dbc6bffa90cc0225b39da2e5c2d3b60405160405180910390a250565b5f5ffd5b5f73ffffffffffffffffffffffffffffffffffffffff82169050919050565b5f6102978261026e565b9050919050565b6102a78161028d565b81146102b1575f5ffd5b50565b5f815190506102c28161029e565b92915050565b5f5f604083850312156102de576102dd61026a565b5b5f6102eb858286016102b4565b92505060206102fc858286016102b4565b9150509250929050565b61030f8161028d565b82525050565b5f6020820190506103285f830184610306565b92915050565b6104e88061033b5f395ff3fe608060405234801561000f575f5ffd5b5060043610610055575f3560e01c80633659cfe6146100595780635c60da1b14610075578063715018a6146100935780638da5cb5b1461009d578063f2fde38b146100bb575b5f5ffd5b610073600480360381019061006e919061045f565b6100d7565b005b61007d6100eb565b60405161008a9190610499565b60405180910390f35b61009b610113565b005b6100a5610126565b6040516100b29190610499565b60405180910390f35b6100d560048036038101906100d0919061045f565b61014d565b005b6100df6101d1565b6100e881610258565b50565b5f60015f9054906101000a900473ffffffffffffffffffffffffffffffffffffffff16905090565b61011b6101d1565b6101245f610339565b565b5f5f5f9054906101000a900473ffffffffffffffffffffffffffffffffffffffff16905090565b6101556101d1565b5f73ffffffffffffffffffffffffffffffffffffffff168173ffffffffffffffffffffffffffffffffffffffff16036101c5575f6040517f1e4fbdf70000000000000000000000000000000000000000000000000000000081526004016101bc9190610499565b60405180910390fd5b6101ce81610339565b50565b6101d96103fa565b73ffffffffffffffffffffffffffffffffffffffff166101f7610126565b73ffffffffffffffffffffffffffffffffffffffff16146102565761021a6103fa565b6040517f118cdaa700000000000000000000000000000000000000000000000000000000815260040161024d9190610499565b60405180910390fd5b565b5f8173ffffffffffffffffffffffffffffffffffffffff163b036102b357806040517f847ac5640000000000000000000000000000000000000000000000000000000081526004016102aa9190610499565b60405180910390fd5b8060015f6101000a81548173ffffffffffffffffffffffffffffffffffffffff021916908373ffffffffffffffffffffffffffffffffffffffff1602179055508073ffffffffffffffffffffffffffffffffffffffff167fbc7cd75a20ee27fd9adebab32041f755214dbc6bffa90cc0225b39da2e5c2d3b60405160405180910390a250565b5f5f5f9054906101000a900473ffffffffffffffffffffffffffffffffffffffff169050815f5f6101000a81548173ffffffffffffffffffffffffffffffffffffffff021916908373ffffffffffffffffffffffffffffffffffffffff1602179055508173ffffffffffffffffffffffffffffffffffffffff168173ffffffffffffffffffffffffffffffffffffffff167f8be0079c531659141344cd1fd0a4f28419497f9722a3daafe3b4186f6b6457e060405160405180910390a35050565b5f33905090565b5f5ffd5b5f73ffffffffffffffffffffffffffffffffffffffff82169050919050565b5f61042e82610405565b9050919050565b61043e81610424565b8114610448575f5ffd5b50565b5f8135905061045981610435565b92915050565b5f6020828403121561047457610473610401565b5b5f6104818482850161044b565b91505092915050565b61049381610424565b82525050565b5f6020820190506104ac5f83018461048a565b9291505056fea26469706673582212203425d6f7fbaebdcdb24d9329623a9ca0e4740a7f92a905dc6fbffa72bd54d44064736f6c63430008230033000000000000000000000000ac7aa4d28c22cba16971fede005947aca674e102000000000000000000000000cc90553427e7848576eddaa27eb0720c70a01d7e",
        "nonce": "0x60",
        "chainId": "0x3df"
      },
      "additionalContracts": [],
      "isFixedGasLimit": false
    },
    {
      "hash": "0xf9f8a799a823f2c3535bb7671b186ac596e8cbbfa1123bf30144d9f728399d77",
      "transactionType": "CALL",
      "contractName": null,
      "contractAddress": "0xfd68a8e35034c09bb0b3a60da126279337392402",
      "function": "registerSubModule(bytes32,bytes32,address)",
      "arguments": [
        "0xa7855c40c8645ce5764ecc193316fc26d65093c553d5b3bd2a64c24400a14cc7",
        "0x0000000000000000000000000000000000000000000000000000000000000000",
        "0x067FCCe172045b029377caFC7C90370c57Bb0186"
      ],
      "transaction": {
        "from": "0xcc90553427e7848576eddaa27eb0720c70a01d7e",
        "to": "0xfd68a8e35034c09bb0b3a60da126279337392402",
        "gas": "0x108ee",
        "value": "0x0",
        "input": "0xad48810ba7855c40c8645ce5764ecc193316fc26d65093c553d5b3bd2a64c24400a14cc70000000000000000000000000000000000000000000000000000000000000000000000000000000000000000067fcce172045b029377cafc7c90370c57bb0186",
        "nonce": "0x61",
        "chainId": "0x3df"
      },
      "additionalContracts": [],
      "isFixedGasLimit": false
    }
  ],
  "receipts": [
    {
      "type": "0x2",
      "status": "0x1",
      "cumulativeGasUsed": "0x2540be400",
      "logs": [],
      "logsBloom": "0x00000000000000000000000000000000000000000000000000000000000000000000000000000000000000000000000000000000000000000000000000000000000000000000000000000000000000000000000000000000000000000000000000000000000000000000000000000000000000000000000000000000000000000000000000000000000000000000000000000000000000000000000000000000000000000000000000000000000000000000000000000000000000000000000000000000000000000000000000000000000000000000000000000000000000000000000000000000000000000000000000000000000000000000000000000000",
      "transactionHash": "0x594ba2a4320331574c67afa0db64c2898f6e7f9b38c6ca5575358c1fad27570c",
      "transactionIndex": "0x0",
      "blockHash": "0x087712583ef9756da6005320bb83e07b78d9aaa903c5899a4bfcafe0d8475457",
      "blockNumber": "0x8f88",
      "gasUsed": "0x8627",
      "effectiveGasPrice": "0xf4240",
      "from": "0xcc90553427e7848576eddaa27eb0720c70a01d7e",
      "to": null,
      "contractAddress": "0xac7aa4d28c22cba16971fede005947aca674e102"
    },
    {
      "type": "0x2",
      "status": "0x1",
      "cumulativeGasUsed": "0x2540be400",
      "logs": [
        {
          "address": "0xae0be002fdfe42a089c2149ec52fd577e3a37a11",
          "topics": [
            "0x8be0079c531659141344cd1fd0a4f28419497f9722a3daafe3b4186f6b6457e0",
            "0x0000000000000000000000000000000000000000000000000000000000000000",
            "0x000000000000000000000000cc90553427e7848576eddaa27eb0720c70a01d7e"
          ],
          "data": "0x",
          "blockHash": "0x2be260b68f9f4754693b4b93b233de9049e71aa93f3724d16bcedc096502eb26",
          "blockNumber": "0x8f89",
          "transactionHash": "0x33991f1d5d3c98dcea8939b4bd5ca2636656740d50acf418755566f410f55ba6",
          "transactionIndex": "0x0",
          "logIndex": "0x0",
          "removed": false
        },
        {
          "address": "0xae0be002fdfe42a089c2149ec52fd577e3a37a11",
          "topics": [
            "0xbc7cd75a20ee27fd9adebab32041f755214dbc6bffa90cc0225b39da2e5c2d3b",
            "0x000000000000000000000000ac7aa4d28c22cba16971fede005947aca674e102"
          ],
          "data": "0x",
          "blockHash": "0x2be260b68f9f4754693b4b93b233de9049e71aa93f3724d16bcedc096502eb26",
          "blockNumber": "0x8f89",
          "transactionHash": "0x33991f1d5d3c98dcea8939b4bd5ca2636656740d50acf418755566f410f55ba6",
          "transactionIndex": "0x0",
          "logIndex": "0x1",
          "removed": false
        }
      ],
      "logsBloom": "0x00000000000000000000000000000000000000000000000000000000000000000000000000000000000000000000000000000000000000000000000000000000000000000000000000000000000000000000000000000000000000000000000000000000000000000000000000000000000000000000000000000000000000000000000000000000000000000000000000000000000000000000000000000000000000000000000000000000000000000000000000000000000000000000000000000000000000000000000000000000000000000000000000000000000000000000000000000000000000000000000000000000000000000000000000000000",
      "transactionHash": "0x33991f1d5d3c98dcea8939b4bd5ca2636656740d50acf418755566f410f55ba6",
      "transactionIndex": "0x0",
      "blockHash": "0x2be260b68f9f4754693b4b93b233de9049e71aa93f3724d16bcedc096502eb26",
      "blockNumber": "0x8f89",
      "gasUsed": "0xa4d3",
      "effectiveGasPrice": "0xf4240",
      "from": "0xcc90553427e7848576eddaa27eb0720c70a01d7e",
      "to": null,
      "contractAddress": "0xae0be002fdfe42a089c2149ec52fd577e3a37a11"
    },
    {
      "type": "0x2",
      "status": "0x1",
      "cumulativeGasUsed": "0x2540be400",
      "logs": [
        {
          "address": "0xfd68a8e35034c09bb0b3a60da126279337392402",
          "topics": [
            "0x9641a7dc63a7282918c5789e7a4ec53e7509f3ab9b80c05b7b22c403c3a62bcc",
            "0xacf1dcc98c83259b0b03819a24c0cc51e1b3a194194a9a3039f3bb86a17619fd",
            "0x0000000000000000000000000000000000000000000000000000000000000000",
            "0x000000000000000000000000ae0be002fdfe42a089c2149ec52fd577e3a37a11"
          ],
          "data": "0x",
          "blockHash": "0xa48380f007dfd6df301e2a80b60ea66d1039b778a384c9659ada3ef3cea6edc0",
          "blockNumber": "0x8f8a",
          "transactionHash": "0x88cb908d1dab4cad9d60164735efc12a42cdb53747760fb38fdc7483cabd6a8b",
          "transactionIndex": "0x0",
          "logIndex": "0x0",
          "removed": false
        }
      ],
      "logsBloom": "0x00000000000000000000000000000000000000000000000000000000000000000000000000000000000000000000000000000000000000000000000000000000000000000000000000000000000000000000000000000000000000000000000000000000000000000000000000000000000000000000000000000000000000000000000000000000000000000000000000000000000000000000000000000000000000000000000000000000000000000000000000000000000000000000000000000000000000000000000000000000000000000000000000000000000000000000000000000000000000000000000000000000000000000000000000000000",
      "transactionHash": "0x88cb908d1dab4cad9d60164735efc12a42cdb53747760fb38fdc7483cabd6a8b",
      "transactionIndex": "0x0",
      "blockHash": "0xa48380f007dfd6df301e2a80b60ea66d1039b778a384c9659ada3ef3cea6edc0",
      "blockNumber": "0x8f8a",
      "gasUsed": "0x217c",
      "effectiveGasPrice": "0xf4240",
      "from": "0xcc90553427e7848576eddaa27eb0720c70a01d7e",
      "to": "0xfd68a8e35034c09bb0b3a60da126279337392402",
      "contractAddress": null
    },
    {
      "type": "0x2",
      "status": "0x1",
      "cumulativeGasUsed": "0x2540be400",
      "logs": [
        {
          "address": "0xd5e22916ecd4edb2d066275fd4464af932bba330",
          "topics": [
            "0x8be0079c531659141344cd1fd0a4f28419497f9722a3daafe3b4186f6b6457e0",
            "0x0000000000000000000000000000000000000000000000000000000000000000",
            "0x000000000000000000000000cc90553427e7848576eddaa27eb0720c70a01d7e"
          ],
          "data": "0x",
          "blockHash": "0xbcde360f47da1edf412c3a6359d24324992e1d1dcc25e1ef7dc4a5fcfdcb3aeb",
          "blockNumber": "0x8f8c",
          "transactionHash": "0x0a6d625156e90de70f8668459fb344820d48423b84e1672e28d1403c6dfba67a",
          "transactionIndex": "0x0",
          "logIndex": "0x0",
          "removed": false
        },
        {
          "address": "0xd5e22916ecd4edb2d066275fd4464af932bba330",
          "topics": [
            "0xbc7cd75a20ee27fd9adebab32041f755214dbc6bffa90cc0225b39da2e5c2d3b",
            "0x000000000000000000000000ac7aa4d28c22cba16971fede005947aca674e102"
          ],
          "data": "0x",
          "blockHash": "0xbcde360f47da1edf412c3a6359d24324992e1d1dcc25e1ef7dc4a5fcfdcb3aeb",
          "blockNumber": "0x8f8c",
          "transactionHash": "0x0a6d625156e90de70f8668459fb344820d48423b84e1672e28d1403c6dfba67a",
          "transactionIndex": "0x0",
          "logIndex": "0x1",
          "removed": false
        }
      ],
      "logsBloom": "0x00000000000000000000000000000000000000000000000000000000000000000000000000000000000000000000000000000000000000000000000000000000000000000000000000000000000000000000000000000000000000000000000000000000000000000000000000000000000000000000000000000000000000000000000000000000000000000000000000000000000000000000000000000000000000000000000000000000000000000000000000000000000000000000000000000000000000000000000000000000000000000000000000000000000000000000000000000000000000000000000000000000000000000000000000000000",
      "transactionHash": "0x0a6d625156e90de70f8668459fb344820d48423b84e1672e28d1403c6dfba67a",
      "transactionIndex": "0x0",
      "blockHash": "0xbcde360f47da1edf412c3a6359d24324992e1d1dcc25e1ef7dc4a5fcfdcb3aeb",
      "blockNumber": "0x8f8c",
      "gasUsed": "0xa4d3",
      "effectiveGasPrice": "0xf4240",
      "from": "0xcc90553427e7848576eddaa27eb0720c70a01d7e",
      "to": null,
      "contractAddress": "0xd5e22916ecd4edb2d066275fd4464af932bba330"
    },
    {
      "type": "0x2",
      "status": "0x1",
      "cumulativeGasUsed": "0x2540be400",
      "logs": [
        {
          "address": "0xfd68a8e35034c09bb0b3a60da126279337392402",
          "topics": [
            "0x9641a7dc63a7282918c5789e7a4ec53e7509f3ab9b80c05b7b22c403c3a62bcc",
            "0xef25a28340e0dfeb4479e3cdeb1697cdeebbc6c7e86e06b53ae9a5f4cc6a69c5",
            "0x0000000000000000000000000000000000000000000000000000000000000000",
            "0x000000000000000000000000d5e22916ecd4edb2d066275fd4464af932bba330"
          ],
          "data": "0x",
          "blockHash": "0x89d95231ee4ebeff3f2bf28b285104ec91f65a5ca843a89f6c8a00e21dabcab2",
          "blockNumber": "0x8f8e",
          "transactionHash": "0x58610abf78c5e00c9c9b5b96796418a23ecc2ee7f476e1213c0818c8574fde45",
          "transactionIndex": "0x0",
          "logIndex": "0x0",
          "removed": false
        }
      ],
      "logsBloom": "0x00000000000000000000000000000000000000000000000000000000000000000000000000000000000000000000000000000000000000000000000000000000000000000000000000000000000000000000000000000000000000000000000000000000000000000000000000000000000000000000000000000000000000000000000000000000000000000000000000000000000000000000000000000000000000000000000000000000000000000000000000000000000000000000000000000000000000000000000000000000000000000000000000000000000000000000000000000000000000000000000000000000000000000000000000000000",
      "transactionHash": "0x58610abf78c5e00c9c9b5b96796418a23ecc2ee7f476e1213c0818c8574fde45",
      "transactionIndex": "0x0",
      "blockHash": "0x89d95231ee4ebeff3f2bf28b285104ec91f65a5ca843a89f6c8a00e21dabcab2",
      "blockNumber": "0x8f8e",
      "gasUsed": "0x217c",
      "effectiveGasPrice": "0xf4240",
      "from": "0xcc90553427e7848576eddaa27eb0720c70a01d7e",
      "to": "0xfd68a8e35034c09bb0b3a60da126279337392402",
      "contractAddress": null
    },
    {
      "type": "0x2",
      "status": "0x1",
      "cumulativeGasUsed": "0x2540be400",
      "logs": [
        {
          "address": "0x067fcce172045b029377cafc7c90370c57bb0186",
          "topics": [
            "0x8be0079c531659141344cd1fd0a4f28419497f9722a3daafe3b4186f6b6457e0",
            "0x0000000000000000000000000000000000000000000000000000000000000000",
            "0x000000000000000000000000cc90553427e7848576eddaa27eb0720c70a01d7e"
          ],
          "data": "0x",
          "blockHash": "0x56dfbeecf7d6820f883e07180cbab417559fedb7af93547659f26d7b29db52eb",
          "blockNumber": "0x8f8f",
          "transactionHash": "0xf74cfb17a4d6963a4cc267fb20c9df50f813a50c8e7c72c29160621715aa81fd",
          "transactionIndex": "0x0",
          "logIndex": "0x0",
          "removed": false
        },
        {
          "address": "0x067fcce172045b029377cafc7c90370c57bb0186",
          "topics": [
            "0xbc7cd75a20ee27fd9adebab32041f755214dbc6bffa90cc0225b39da2e5c2d3b",
            "0x000000000000000000000000ac7aa4d28c22cba16971fede005947aca674e102"
          ],
          "data": "0x",
          "blockHash": "0x56dfbeecf7d6820f883e07180cbab417559fedb7af93547659f26d7b29db52eb",
          "blockNumber": "0x8f8f",
          "transactionHash": "0xf74cfb17a4d6963a4cc267fb20c9df50f813a50c8e7c72c29160621715aa81fd",
          "transactionIndex": "0x0",
          "logIndex": "0x1",
          "removed": false
        }
      ],
      "logsBloom": "0x00000000000000000000000000000000000000000000000000000000000000000000000000000000000000000000000000000000000000000000000000000000000000000000000000000000000000000000000000000000000000000000000000000000000000000000000000000000000000000000000000000000000000000000000000000000000000000000000000000000000000000000000000000000000000000000000000000000000000000000000000000000000000000000000000000000000000000000000000000000000000000000000000000000000000000000000000000000000000000000000000000000000000000000000000000000",
      "transactionHash": "0xf74cfb17a4d6963a4cc267fb20c9df50f813a50c8e7c72c29160621715aa81fd",
      "transactionIndex": "0x0",
      "blockHash": "0x56dfbeecf7d6820f883e07180cbab417559fedb7af93547659f26d7b29db52eb",
      "blockNumber": "0x8f8f",
      "gasUsed": "0xa4d3",
      "effectiveGasPrice": "0xf4240",
      "from": "0xcc90553427e7848576eddaa27eb0720c70a01d7e",
      "to": null,
      "contractAddress": "0x067fcce172045b029377cafc7c90370c57bb0186"
    },
    {
      "type": "0x2",
      "status": "0x1",
      "cumulativeGasUsed": "0x2540be400",
      "logs": [
        {
          "address": "0xfd68a8e35034c09bb0b3a60da126279337392402",
          "topics": [
            "0x9641a7dc63a7282918c5789e7a4ec53e7509f3ab9b80c05b7b22c403c3a62bcc",
            "0xa7855c40c8645ce5764ecc193316fc26d65093c553d5b3bd2a64c24400a14cc7",
            "0x0000000000000000000000000000000000000000000000000000000000000000",
            "0x000000000000000000000000067fcce172045b029377cafc7c90370c57bb0186"
          ],
          "data": "0x",
          "blockHash": "0x0c39e592698313b14d3e735e6cc93c6f2125a9a8d24a1a3dffb669df2cbb3383",
          "blockNumber": "0x8f90",
          "transactionHash": "0xf9f8a799a823f2c3535bb7671b186ac596e8cbbfa1123bf30144d9f728399d77",
          "transactionIndex": "0x0",
          "logIndex": "0x0",
          "removed": false
        }
      ],
      "logsBloom": "0x00000000000000000000000000000000000000000000000000000000000000000000000000000000000000000000000000000000000000000000000000000000000000000000000000000000000000000000000000000000000000000000000000000000000000000000000000000000000000000000000000000000000000000000000000000000000000000000000000000000000000000000000000000000000000000000000000000000000000000000000000000000000000000000000000000000000000000000000000000000000000000000000000000000000000000000000000000000000000000000000000000000000000000000000000000000",
      "transactionHash": "0xf9f8a799a823f2c3535bb7671b186ac596e8cbbfa1123bf30144d9f728399d77",
      "transactionIndex": "0x0",
      "blockHash": "0x0c39e592698313b14d3e735e6cc93c6f2125a9a8d24a1a3dffb669df2cbb3383",
      "blockNumber": "0x8f90",
      "gasUsed": "0x217c",
      "effectiveGasPrice": "0xf4240",
      "from": "0xcc90553427e7848576eddaa27eb0720c70a01d7e",
      "to": "0xfd68a8e35034c09bb0b3a60da126279337392402",
      "contractAddress": null
    }
  ],
  "libraries": [],
  "pending": [],
  "returns": {},
  "timestamp": 1781779055081,
  "chain": 991,
  "commit": "cdfd364"
}