{
  "transactions": [
    {
      "hash": "0xbd70412d4701e3e5b934d8996476cc65ff8defa759dd99331979ddce778f8288",
      "transactionType": "CALL",
      "contractName": null,
      "contractAddress": "0x98278b5d6e6208d3cb81484c19ce945076bf6efc",
      "function": "createOrganization(address)",
      "arguments": [
        "0x63D5F1d7bA1BFBC27d43a19989C4EF488394DCAa"
      ],
      "transaction": {
        "from": "0x76ff9fa884d418bed250b15ab5aee9eed055a9ce",
        "to": "0x98278b5d6e6208d3cb81484c19ce945076bf6efc",
        "gas": "0x2aa97",
        "value": "0x0",
        "input": "0x3402ec5d00000000000000000000000063d5f1d7ba1bfbc27d43a19989c4ef488394dcaa",
        "nonce": "0x10",
        "chainId": "0x3df"
      },
      "additionalContracts": [],
      "isFixedGasLimit": false
    },
    {
      "hash": "0xf082944c592edbc8d7fe0f36a138e13d7089e1141fbd8f7eae58eabe7e668526",
      "transactionType": "CALL",
      "contractName": null,
      "contractAddress": "0x98278b5d6e6208d3cb81484c19ce945076bf6efc",
      "function": "createBranch(uint256)",
      "arguments": [
        "2"
      ],
      "transaction": {
        "from": "0x76ff9fa884d418bed250b15ab5aee9eed055a9ce",
        "to": "0x98278b5d6e6208d3cb81484c19ce945076bf6efc",
        "gas": "0x3b52c",
        "value": "0x0",
        "input": "0x0a9e19040000000000000000000000000000000000000000000000000000000000000002",
        "nonce": "0x11",
        "chainId": "0x3df"
      },
      "additionalContracts": [],
      "isFixedGasLimit": false
    },
    {
      "hash": "0x97bcacc26dd7273cb96116ede862506dbbb1ce8902d7f4c4c4e9e8f8eae23f25",
      "transactionType": "CALL",
      "contractName": null,
      "contractAddress": "0x98278b5d6e6208d3cb81484c19ce945076bf6efc",
      "function": "createBranch(uint256)",
      "arguments": [
        "2"
      ],
      "transaction": {
        "from": "0x76ff9fa884d418bed250b15ab5aee9eed055a9ce",
        "to": "0x98278b5d6e6208d3cb81484c19ce945076bf6efc",
        "gas": "0x3242d",
        "value": "0x0",
        "input": "0x0a9e19040000000000000000000000000000000000000000000000000000000000000002",
        "nonce": "0x12",
        "chainId": "0x3df"
      },
      "additionalContracts": [],
      "isFixedGasLimit": false
    }
  ],
  "receipts": [
    {
      "type": "0x2",
      "status": "0x1",
      "cumulativeGasUsed": "0x2540be400",
      "logs": [
        {
          "address": "0x98278b5d6e6208d3cb81484c19ce945076bf6efc",
          "topics": [
            "0x0ce81df677347dd4476e2f5358d95e39aa67d12bfbb33cb7eb78e5b3140abb3a",
            "0x0000000000000000000000000000000000000000000000000000000000000002",
            "0x00000000000000000000000063d5f1d7ba1bfbc27d43a19989c4ef488394dcaa"
          ],
          "data": "0x",
          "blockHash": "0xfdfa8d9d229df48a9685ae81dc875869c60276dd1e0cba4f7288b45c2486ee85",
          "blockNumber": "0xc1e6",
          "transactionHash": "0xbd70412d4701e3e5b934d8996476cc65ff8defa759dd99331979ddce778f8288",
          "transactionIndex": "0x0",
          "logIndex": "0x0",
          "removed": false
        }
      ],
      "logsBloom": "0x00000000000000000000000000000000000000000000000000000000000000000000000000000000000000000000000000000000000000000000000000000000000000000000000000000000000000000000000000000000000000000000000000000000000000000000000000000000000000000000000000000000000000000000000000000000000000000000000000000000000000000000000000000000000000000000000000000000000000000000000000000000000000000000000000000000000000000000000000000000000000000000000000000000000000000000000000000000000000000000000000000000000000000000000000000000",
      "transactionHash": "0xbd70412d4701e3e5b934d8996476cc65ff8defa759dd99331979ddce778f8288",
      "transactionIndex": "0x0",
      "blockHash": "0xfdfa8d9d229df48a9685ae81dc875869c60276dd1e0cba4f7288b45c2486ee85",
      "blockNumber": "0xc1e6",
      "gasUsed": "0x2a60",
      "effectiveGasPrice": "0xf4240",
      "from": "0x76ff9fa884d418bed250b15ab5aee9eed055a9ce",
      "to": "0x98278b5d6e6208d3cb81484c19ce945076bf6efc",
      "contractAddress": null
    },
    {
      "type": "0x2",
      "status": "0x1",
      "cumulativeGasUsed": "0x2540be400",
      "logs": [
        {
          "address": "0x98278b5d6e6208d3cb81484c19ce945076bf6efc",
          "topics": [
            "0x7e1ab386b6b800b467c2c8f5b4296d5a780878dc123ecf9d4ee511c3e6750091",
            "0x0000000000000000000000000000000000000000000000000000000000000003",
            "0x0000000000000000000000000000000000000000000000000000000000000002"
          ],
          "data": "0x",
          "blockHash": "0x5fed54ff2017533a47e3d4b594ef28b49b0e68b666ba6761e911e362e3682dda",
          "blockNumber": "0xc1e7",
          "transactionHash": "0xf082944c592edbc8d7fe0f36a138e13d7089e1141fbd8f7eae58eabe7e668526",
          "transactionIndex": "0x0",
          "logIndex": "0x0",
          "removed": false
        }
      ],
      "logsBloom": "0x00000000000000000000000000000000000000000000000000000000000000000000000000000000000000000000000000000000000000000000000000000000000000000000000000000000000000000000000000000000000000000000000000000000000000000000000000000000000000000000000000000000000000000000000000000000000000000000000000000000000000000000000000000000000000000000000000000000000000000000000000000000000000000000000000000000000000000000000000000000000000000000000000000000000000000000000000000000000000000000000000000000000000000000000000000000",
      "transactionHash": "0xf082944c592edbc8d7fe0f36a138e13d7089e1141fbd8f7eae58eabe7e668526",
      "transactionIndex": "0x0",
      "blockHash": "0x5fed54ff2017533a47e3d4b594ef28b49b0e68b666ba6761e911e362e3682dda",
      "blockNumber": "0xc1e7",
      "gasUsed": "0x2cf8",
      "effectiveGasPrice": "0xf4240",
      "from": "0x76ff9fa884d418bed250b15ab5aee9eed055a9ce",
      "to": "0x98278b5d6e6208d3cb81484c19ce945076bf6efc",
      "contractAddress": null
    },
    {
      "type": "0x2",
      "status": "0x1",
      "cumulativeGasUsed": "0x2540be400",
      "logs": [
        {
          "address": "0x98278b5d6e6208d3cb81484c19ce945076bf6efc",
          "topics": [
            "0x7e1ab386b6b800b467c2c8f5b4296d5a780878dc123ecf9d4ee511c3e6750091",
            "0x0000000000000000000000000000000000000000000000000000000000000004",
            "0x0000000000000000000000000000000000000000000000000000000000000002"
          ],
          "data": "0x",
          "blockHash": "0x176231855d094a629ed27d408b17d688516cb4e303d220e1b3e1e63fd427329a",
          "blockNumber": "0xc1e8",
          "transactionHash": "0x97bcacc26dd7273cb96116ede862506dbbb1ce8902d7f4c4c4e9e8f8eae23f25",
          "transactionIndex": "0x0",
          "logIndex": "0x0",
          "removed": false
        }
      ],
      "logsBloom": "0x00000000000000000000000000000000000000000000000000000000000000000000000000000000000000000000000000000000000000000000000000000000000000000000000000000000000000000000000000000000000000000000000000000000000000000000000000000000000000000000000000000000000000000000000000000000000000000000000000000000000000000000000000000000000000000000000000000000000000000000000000000000000000000000000000000000000000000000000000000000000000000000000000000000000000000000000000000000000000000000000000000000000000000000000000000000",
      "transactionHash": "0x97bcacc26dd7273cb96116ede862506dbbb1ce8902d7f4c4c4e9e8f8eae23f25",
      "transactionIndex": "0x0",
      "blockHash": "0x176231855d094a629ed27d408b17d688516cb4e303d220e1b3e1e63fd427329a",
      "blockNumber": "0xc1e8",
      "gasUsed": "0x2cf8",
      "effectiveGasPrice": "0xf4240",
      "from": "0x76ff9fa884d418bed250b15ab5aee9eed055a9ce",
      "to": "0x98278b5d6e6208d3cb81484c19ce945076bf6efc",
      "contractAddress": null
    }
  ],
  "libraries": [],
  "pending": [],
  "returns": {},
  "timestamp": 1782377429247,
  "chain": 991,
  "commit": null
}