{
  "transactions": [
    {
      "hash": "0x1b960ac16a66e7fde1bc7ce1902fa2e1cf786f641c95f412ef917e9c6afa98a5",
      "transactionType": "CALL",
      "contractName": null,
      "contractAddress": "0x98278b5d6e6208d3cb81484c19ce945076bf6efc",
      "function": "createOrganization(address)",
      "arguments": [
        "0x8615491b14C77DCd3F3F23E8973046aA33F35F32"
      ],
      "transaction": {
        "from": "0x76ff9fa884d418bed250b15ab5aee9eed055a9ce",
        "to": "0x98278b5d6e6208d3cb81484c19ce945076bf6efc",
        "gas": "0x2e0ee",
        "value": "0x0",
        "input": "0x3402ec5d0000000000000000000000008615491b14c77dcd3f3f23e8973046aa33f35f32",
        "nonce": "0xd",
        "chainId": "0x3df"
      },
      "additionalContracts": [],
      "isFixedGasLimit": false
    },
    {
      "hash": "0xbd5ab23bd0a29ed001ee0b8a3f834bb428419627087f38987670fa83c5f6160b",
      "transactionType": "CALL",
      "contractName": null,
      "contractAddress": "0x98278b5d6e6208d3cb81484c19ce945076bf6efc",
      "function": "createBranch(uint256)",
      "arguments": [
        "1"
      ],
      "transaction": {
        "from": "0x76ff9fa884d418bed250b15ab5aee9eed055a9ce",
        "to": "0x98278b5d6e6208d3cb81484c19ce945076bf6efc",
        "gas": "0x3dcb3",
        "value": "0x0",
        "input": "0x0a9e19040000000000000000000000000000000000000000000000000000000000000001",
        "nonce": "0xe",
        "chainId": "0x3df"
      },
      "additionalContracts": [],
      "isFixedGasLimit": false
    },
    {
      "hash": "0x061ae8af2a36005e5282a09e42a56b278cbda01191cce81fd734fcfb05fd51b2",
      "transactionType": "CALL",
      "contractName": null,
      "contractAddress": "0x98278b5d6e6208d3cb81484c19ce945076bf6efc",
      "function": "createBranch(uint256)",
      "arguments": [
        "1"
      ],
      "transaction": {
        "from": "0x76ff9fa884d418bed250b15ab5aee9eed055a9ce",
        "to": "0x98278b5d6e6208d3cb81484c19ce945076bf6efc",
        "gas": "0x3242d",
        "value": "0x0",
        "input": "0x0a9e19040000000000000000000000000000000000000000000000000000000000000001",
        "nonce": "0xf",
        "chainId": "0x3df"
      },
      "additionalContracts": [],
      "isFixedGasLimit": false
    }
  ],
  "receipts": [
    {
      "type": "0x2",
      "status": "0x1",
      "cumulativeGasUsed": "0x2540be400",
      "logs": [
        {
          "address": "0x98278b5d6e6208d3cb81484c19ce945076bf6efc",
          "topics": [
            "0x0ce81df677347dd4476e2f5358d95e39aa67d12bfbb33cb7eb78e5b3140abb3a",
            "0x0000000000000000000000000000000000000000000000000000000000000001",
            "0x0000000000000000000000008615491b14c77dcd3f3f23e8973046aa33f35f32"
          ],
          "data": "0x",
          "blockHash": "0x6862e5337b59de60a1b3d906a9ce4c3311eaefd7d8e2dd15edde304d8108e67b",
          "blockNumber": "0xc1d8",
          "transactionHash": "0x1b960ac16a66e7fde1bc7ce1902fa2e1cf786f641c95f412ef917e9c6afa98a5",
          "transactionIndex": "0x0",
          "logIndex": "0x0",
          "removed": false
        }
      ],
      "logsBloom": "0x00000000000000000000000000000000000000000000000000000000000000000000000000000000000000000000000000000000000000000000000000000000000000000000000000000000000000000000000000000000000000000000000000000000000000000000000000000000000000000000000000000000000000000000000000000000000000000000000000000000000000000000000000000000000000000000000000000000000000000000000000000000000000000000000000000000000000000000000000000000000000000000000000000000000000000000000000000000000000000000000000000000000000000000000000000000",
      "transactionHash": "0x1b960ac16a66e7fde1bc7ce1902fa2e1cf786f641c95f412ef917e9c6afa98a5",
      "transactionIndex": "0x0",
      "blockHash": "0x6862e5337b59de60a1b3d906a9ce4c3311eaefd7d8e2dd15edde304d8108e67b",
      "blockNumber": "0xc1d8",
      "gasUsed": "0x2a60",
      "effectiveGasPrice": "0xf4240",
      "from": "0x76ff9fa884d418bed250b15ab5aee9eed055a9ce",
      "to": "0x98278b5d6e6208d3cb81484c19ce945076bf6efc",
      "contractAddress": null
    },
    {
      "type": "0x2",
      "status": "0x1",
      "cumulativeGasUsed": "0x2540be400",
      "logs": [
        {
          "address": "0x98278b5d6e6208d3cb81484c19ce945076bf6efc",
          "topics": [
            "0x7e1ab386b6b800b467c2c8f5b4296d5a780878dc123ecf9d4ee511c3e6750091",
            "0x0000000000000000000000000000000000000000000000000000000000000001",
            "0x0000000000000000000000000000000000000000000000000000000000000001"
          ],
          "data": "0x",
          "blockHash": "0xf4f2d66150305447eb00bbb5b67ab5019654afce68d2c590ff035bb47524a48d",
          "blockNumber": "0xc1d9",
          "transactionHash": "0xbd5ab23bd0a29ed001ee0b8a3f834bb428419627087f38987670fa83c5f6160b",
          "transactionIndex": "0x0",
          "logIndex": "0x0",
          "removed": false
        }
      ],
      "logsBloom": "0x00000000000000000000000000000000000000000000000000000000000000000000000000000000000000000000000000000000000000000000000000000000000000000000000000000000000000000000000000000000000000000000000000000000000000000000000000000000000000000000000000000000000000000000000000000000000000000000000000000000000000000000000000000000000000000000000000000000000000000000000000000000000000000000000000000000000000000000000000000000000000000000000000000000000000000000000000000000000000000000000000000000000000000000000000000000",
      "transactionHash": "0xbd5ab23bd0a29ed001ee0b8a3f834bb428419627087f38987670fa83c5f6160b",
      "transactionIndex": "0x0",
      "blockHash": "0xf4f2d66150305447eb00bbb5b67ab5019654afce68d2c590ff035bb47524a48d",
      "blockNumber": "0xc1d9",
      "gasUsed": "0x2cf8",
      "effectiveGasPrice": "0xf4240",
      "from": "0x76ff9fa884d418bed250b15ab5aee9eed055a9ce",
      "to": "0x98278b5d6e6208d3cb81484c19ce945076bf6efc",
      "contractAddress": null
    },
    {
      "type": "0x2",
      "status": "0x1",
      "cumulativeGasUsed": "0x2540be400",
      "logs": [
        {
          "address": "0x98278b5d6e6208d3cb81484c19ce945076bf6efc",
          "topics": [
            "0x7e1ab386b6b800b467c2c8f5b4296d5a780878dc123ecf9d4ee511c3e6750091",
            "0x0000000000000000000000000000000000000000000000000000000000000002",
            "0x0000000000000000000000000000000000000000000000000000000000000001"
          ],
          "data": "0x",
          "blockHash": "0xd2e15a8b863dcfb1b1404f65d4b866d8cf18082ba3c7afdc86cc50126889b708",
          "blockNumber": "0xc1da",
          "transactionHash": "0x061ae8af2a36005e5282a09e42a56b278cbda01191cce81fd734fcfb05fd51b2",
          "transactionIndex": "0x0",
          "logIndex": "0x0",
          "removed": false
        }
      ],
      "logsBloom": "0x00000000000000000000000000000000000000000000000000000000000000000000000000000000000000000000000000000000000000000000000000000000000000000000000000000000000000000000000000000000000000000000000000000000000000000000000000000000000000000000000000000000000000000000000000000000000000000000000000000000000000000000000000000000000000000000000000000000000000000000000000000000000000000000000000000000000000000000000000000000000000000000000000000000000000000000000000000000000000000000000000000000000000000000000000000000",
      "transactionHash": "0x061ae8af2a36005e5282a09e42a56b278cbda01191cce81fd734fcfb05fd51b2",
      "transactionIndex": "0x0",
      "blockHash": "0xd2e15a8b863dcfb1b1404f65d4b866d8cf18082ba3c7afdc86cc50126889b708",
      "blockNumber": "0xc1da",
      "gasUsed": "0x2cf8",
      "effectiveGasPrice": "0xf4240",
      "from": "0x76ff9fa884d418bed250b15ab5aee9eed055a9ce",
      "to": "0x98278b5d6e6208d3cb81484c19ce945076bf6efc",
      "contractAddress": null
    }
  ],
  "libraries": [],
  "pending": [],
  "returns": {},
  "timestamp": 1782377073105,
  "chain": 991,
  "commit": null
}